{
  "_format": "hh-sol-artifact-1",
  "contractName": "BebRegistryBetaController",
  "sourceName": "contracts/BebRegistryBetaController.sol",
  "abi": [
    {
      "inputs": [
        {
          "internalType": "contract BaseRegistrar",
          "name": "_base",
          "type": "address"
        },
        {
          "internalType": "contract IPriceOracle",
          "name": "_prices",
          "type": "address"
        },
        {
          "internalType": "uint256",
          "name": "_minCommitmentAge",
          "type": "uint256"
        },
        {
          "internalType": "uint256",
          "name": "_maxCommitmentAge",
          "type": "uint256"
        }
      ],
      "stateMutability": "nonpayable",
      "type": "constructor"
    },
    {
      "anonymous": false,
      "inputs": [
        {
          "indexed": false,
          "internalType": "string",
          "name": "name",
          "type": "string"
        },
        {
          "indexed": true,
          "internalType": "bytes32",
          "name": "label",
          "type": "bytes32"
        },
        {
          "indexed": true,
          "internalType": "address",
          "name": "owner",
          "type": "address"
        },
        {
          "indexed": false,
          "internalType": "uint256",
          "name": "duration",
          "type": "uint256"
        },
        {
          "indexed": false,
          "internalType": "uint256",
          "name": "baseCost",
          "type": "uint256"
        },
        {
          "indexed": false,
          "internalType": "uint256",
          "name": "premium",
          "type": "uint256"
        },
        {
          "indexed": false,
          "internalType": "uint256",
          "name": "expires",
          "type": "uint256"
        }
      ],
      "name": "NameRegistered",
      "type": "event"
    },
    {
      "anonymous": false,
      "inputs": [
        {
          "indexed": false,
          "internalType": "string",
          "name": "name",
          "type": "string"
        },
        {
          "indexed": true,
          "internalType": "bytes32",
          "name": "label",
          "type": "bytes32"
        },
        {
          "indexed": false,
          "internalType": "uint256",
          "name": "cost",
          "type": "uint256"
        },
        {
          "indexed": false,
          "internalType": "uint256",
          "name": "expires",
          "type": "uint256"
        }
      ],
      "name": "NameRenewed",
      "type": "event"
    },
    {
      "anonymous": false,
      "inputs": [
        {
          "indexed": true,
          "internalType": "address",
          "name": "previousOwner",
          "type": "address"
        },
        {
          "indexed": true,
          "internalType": "address",
          "name": "newOwner",
          "type": "address"
        }
      ],
      "name": "OwnershipTransferred",
      "type": "event"
    },
    {
      "inputs": [],
      "name": "MIN_REGISTRATION_DURATION",
      "outputs": [
        {
          "internalType": "uint256",
          "name": "",
          "type": "uint256"
        }
      ],
      "stateMutability": "view",
      "type": "function"
    },
    {
      "inputs": [
        {
          "internalType": "string",
          "name": "name",
          "type": "string"
        }
      ],
      "name": "available",
      "outputs": [
        {
          "internalType": "bool",
          "name": "",
          "type": "bool"
        }
      ],
      "stateMutability": "view",
      "type": "function"
    },
    {
      "inputs": [
        {
          "internalType": "bytes32",
          "name": "commitment",
          "type": "bytes32"
        }
      ],
      "name": "commit",
      "outputs": [],
      "stateMutability": "nonpayable",
      "type": "function"
    },
    {
      "inputs": [
        {
          "internalType": "bytes32",
          "name": "",
          "type": "bytes32"
        }
      ],
      "name": "commitments",
      "outputs": [
        {
          "internalType": "uint256",
          "name": "",
          "type": "uint256"
        }
      ],
      "stateMutability": "view",
      "type": "function"
    },
    {
      "inputs": [
        {
          "internalType": "string",
          "name": "name",
          "type": "string"
        },
        {
          "internalType": "address",
          "name": "owner",
          "type": "address"
        },
        {
          "internalType": "uint256",
          "name": "duration",
          "type": "uint256"
        },
        {
          "internalType": "bytes32",
          "name": "secret",
          "type": "bytes32"
        }
      ],
      "name": "makeCommitment",
      "outputs": [
        {
          "internalType": "bytes32",
          "name": "",
          "type": "bytes32"
        }
      ],
      "stateMutability": "pure",
      "type": "function"
    },
    {
      "inputs": [],
      "name": "maxCommitmentAge",
      "outputs": [
        {
          "internalType": "uint256",
          "name": "",
          "type": "uint256"
        }
      ],
      "stateMutability": "view",
      "type": "function"
    },
    {
      "inputs": [],
      "name": "minCommitmentAge",
      "outputs": [
        {
          "internalType": "uint256",
          "name": "",
          "type": "uint256"
        }
      ],
      "stateMutability": "view",
      "type": "function"
    },
    {
      "inputs": [],
      "name": "owner",
      "outputs": [
        {
          "internalType": "address",
          "name": "",
          "type": "address"
        }
      ],
      "stateMutability": "view",
      "type": "function"
    },
    {
      "inputs": [],
      "name": "prices",
      "outputs": [
        {
          "internalType": "contract IPriceOracle",
          "name": "",
          "type": "address"
        }
      ],
      "stateMutability": "view",
      "type": "function"
    },
    {
      "inputs": [
        {
          "internalType": "string",
          "name": "name",
          "type": "string"
        },
        {
          "internalType": "address",
          "name": "owner",
          "type": "address"
        },
        {
          "internalType": "uint256",
          "name": "duration",
          "type": "uint256"
        },
        {
          "internalType": "bytes32",
          "name": "secret",
          "type": "bytes32"
        }
      ],
      "name": "register",
      "outputs": [],
      "stateMutability": "payable",
      "type": "function"
    },
    {
      "inputs": [
        {
          "internalType": "string",
          "name": "name",
          "type": "string"
        },
        {
          "internalType": "uint256",
          "name": "duration",
          "type": "uint256"
        }
      ],
      "name": "renew",
      "outputs": [],
      "stateMutability": "payable",
      "type": "function"
    },
    {
      "inputs": [],
      "name": "renounceOwnership",
      "outputs": [],
      "stateMutability": "nonpayable",
      "type": "function"
    },
    {
      "inputs": [
        {
          "internalType": "string",
          "name": "name",
          "type": "string"
        },
        {
          "internalType": "uint256",
          "name": "duration",
          "type": "uint256"
        }
      ],
      "name": "rentPrice",
      "outputs": [
        {
          "components": [
            {
              "internalType": "uint256",
              "name": "base",
              "type": "uint256"
            },
            {
              "internalType": "uint256",
              "name": "premium",
              "type": "uint256"
            }
          ],
          "internalType": "struct IPriceOracle.Price",
          "name": "price",
          "type": "tuple"
        }
      ],
      "stateMutability": "view",
      "type": "function"
    },
    {
      "inputs": [
        {
          "internalType": "address",
          "name": "newOwner",
          "type": "address"
        }
      ],
      "name": "transferOwnership",
      "outputs": [],
      "stateMutability": "nonpayable",
      "type": "function"
    },
    {
      "inputs": [
        {
          "internalType": "string",
          "name": "name",
          "type": "string"
        }
      ],
      "name": "valid",
      "outputs": [
        {
          "internalType": "bool",
          "name": "",
          "type": "bool"
        }
      ],
      "stateMutability": "pure",
      "type": "function"
    },
    {
      "inputs": [],
      "name": "withdraw",
      "outputs": [],
      "stateMutability": "nonpayable",
      "type": "function"
    }
  ],
  "bytecode": "0x6101006040523480156200001257600080fd5b50604051620024df380380620024df8339818101604052810190620000389190620001fe565b620000586200004c620000ed60201b60201c565b620000f560201b60201c565b8181116200006557600080fd5b8373ffffffffffffffffffffffffffffffffffffffff1660808173ffffffffffffffffffffffffffffffffffffffff1660601b815250508273ffffffffffffffffffffffffffffffffffffffff1660a08173ffffffffffffffffffffffffffffffffffffffff1660601b815250508160c081815250508060e08181525050505050506200031e565b600033905090565b60008060009054906101000a900473ffffffffffffffffffffffffffffffffffffffff169050816000806101000a81548173ffffffffffffffffffffffffffffffffffffffff021916908373ffffffffffffffffffffffffffffffffffffffff1602179055508173ffffffffffffffffffffffffffffffffffffffff168173ffffffffffffffffffffffffffffffffffffffff167f8be0079c531659141344cd1fd0a4f28419497f9722a3daafe3b4186f6b6457e060405160405180910390a35050565b600081519050620001ca81620002d0565b92915050565b600081519050620001e181620002ea565b92915050565b600081519050620001f88162000304565b92915050565b600080600080608085870312156200021557600080fd5b60006200022587828801620001b9565b94505060206200023887828801620001d0565b93505060406200024b87828801620001e7565b92505060606200025e87828801620001e7565b91505092959194509250565b60006200027782620002a6565b9050919050565b60006200028b826200026a565b9050919050565b60006200029f826200026a565b9050919050565b600073ffffffffffffffffffffffffffffffffffffffff82169050919050565b6000819050919050565b620002db816200027e565b8114620002e757600080fd5b50565b620002f58162000292565b81146200030157600080fd5b50565b6200030f81620002c6565b81146200031b57600080fd5b50565b60805160601c60a05160601c60c05160e0516121506200038f60003960008181610cfb01528181610d440152610fee0152600081816109740152610f6d0152600081816105030152610d1f015260008181610540015281816107cf01528181610a9d0152610c4601526121506000f3fe6080604052600436106100f35760003560e01c80638da5cb5b1161008a578063ce1e09c011610059578063ce1e09c014610310578063d3419bf31461033b578063f14fcbc814610366578063f2fde38b1461038f576100f3565b80638da5cb5b1461024f5780639791c0971461027a578063acf1a841146102b7578063aeb8ce9b146102d3576100f3565b806383e7f6ff116100c657806383e7f6ff146101a057806385f6d155146101dd5780638a95b09f146101f95780638d839ffe14610224576100f3565b806318e98549146100f85780633ccfd60b14610135578063715018a61461014c578063839df94514610163575b600080fd5b34801561010457600080fd5b5061011f600480360381019061011a91906115cf565b6103b8565b60405161012c9190611948565b60405180910390f35b34801561014157600080fd5b5061014a6103fd565b005b34801561015857600080fd5b5061016161044d565b005b34801561016f57600080fd5b5061018a6004803603810190610185919061148d565b6104d5565b6040516101979190611b98565b60405180910390f35b3480156101ac57600080fd5b506101c760048036038101906101c2919061164a565b6104ed565b6040516101d49190611b7d565b60405180910390f35b6101f760048036038101906101f291906114b6565b610661565b005b34801561020557600080fd5b5061020e61096b565b60405161021b9190611b98565b60405180910390f35b34801561023057600080fd5b50610239610972565b6040516102469190611b98565b60405180910390f35b34801561025b57600080fd5b50610264610996565b6040516102719190611912565b60405180910390f35b34801561028657600080fd5b506102a1600480360381019061029c919061158e565b6109bf565b6040516102ae919061192d565b60405180910390f35b6102d160048036038101906102cc9190611536565b6109d5565b005b3480156102df57600080fd5b506102fa60048036038101906102f5919061158e565b610c27565b604051610307919061192d565b60405180910390f35b34801561031c57600080fd5b50610325610cf9565b6040516103329190611b98565b60405180910390f35b34801561034757600080fd5b50610350610d1d565b60405161035d91906119a8565b60405180910390f35b34801561037257600080fd5b5061038d6004803603810190610388919061148d565b610d41565b005b34801561039b57600080fd5b506103b660048036038101906103b1919061143b565b610da6565b005b60008085805190602001209050808585856040516020016103dc9493929190611963565b60405160208183030381529060405280519060200120915050949350505050565b610405610996565b73ffffffffffffffffffffffffffffffffffffffff166108fc479081150290604051600060405180830381858888f1935050505015801561044a573d6000803e3d6000fd5b50565b610455610e9e565b73ffffffffffffffffffffffffffffffffffffffff16610473610996565b73ffffffffffffffffffffffffffffffffffffffff16146104c9576040517f08c379a00000000000000000000000000000000000000000000000000000000081526004016104c090611b1d565b60405180910390fd5b6104d36000610ea6565b565b60016020528060005260406000206000915090505481565b6104f56112ba565b6000838051906020012090507f000000000000000000000000000000000000000000000000000000000000000073ffffffffffffffffffffffffffffffffffffffff166350e9a715857f000000000000000000000000000000000000000000000000000000000000000073ffffffffffffffffffffffffffffffffffffffff1663d6e4fa868560001c6040518263ffffffff1660e01b815260040161059a9190611b98565b60206040518083038186803b1580156105b257600080fd5b505afa1580156105c6573d6000803e3d6000fd5b505050506040513d601f19601f820116820180604052508101906105ea91906116c7565b866040518463ffffffff1660e01b815260040161060993929190611a5f565b604080518083038186803b15801561062057600080fd5b505afa158015610634573d6000803e3d6000fd5b505050506040513d601f19601f82011682018060405250810190610658919061169e565b91505092915050565b600085856040516106739291906118f9565b6040518091039020905060006106cd87878080601f016020809104026020016040519081016040528093929190818152602001838380828437600081840152601f19601f82011690508083019250505050505050856104ed565b9050806020015181600001516106e39190611c90565b341015610725576040517f08c379a000000000000000000000000000000000000000000000000000000000815260040161071c90611afd565b60405180910390fd5b6107c387878080601f016020809104026020016040519081016040528093929190818152602001838380828437600081840152601f19601f82011690508083019250505050505050856107be8a8a8080601f016020809104026020016040519081016040528093929190818152602001838380828437600081840152601f19601f820116905080830192505050505050508989896103b8565b610f6a565b60008260001c905060007f000000000000000000000000000000000000000000000000000000000000000073ffffffffffffffffffffffffffffffffffffffff1663fca247ac8389896040518463ffffffff1660e01b815260040161082a93929190611bb3565b602060405180830381600087803b15801561084457600080fd5b505af1158015610858573d6000803e3d6000fd5b505050506040513d601f19601f8201168201806040525081019061087c91906116c7565b90508673ffffffffffffffffffffffffffffffffffffffff16847f3f20a2f68d2f1fc31915768c6a23ee9a37aea4bc54fd9698fd61546843bb22598b8b8a88600001518960200151886040516108d796959493929190611a03565b60405180910390a3826020015183600001516108f39190611c90565b341115610960573373ffffffffffffffffffffffffffffffffffffffff166108fc846020015185600001516109289190611c90565b346109339190611ce6565b9081150290604051600060405180830381858888f1935050505015801561095e573d6000803e3d6000fd5b505b505050505050505050565b6224ea0081565b7f000000000000000000000000000000000000000000000000000000000000000081565b60008060009054906101000a900473ffffffffffffffffffffffffffffffffffffffff16905090565b600060016109cc836110df565b10159050919050565b600083836040516109e79291906118f9565b604051809103902090506000610a4185858080601f016020809104026020016040519081016040528093929190818152602001838380828437600081840152601f19601f82011690508083019250505050505050846104ed565b905080602001518160000151610a579190611c90565b341015610a99576040517f08c379a0000000000000000000000000000000000000000000000000000000008152600401610a9090611b5d565b60405180910390fd5b60007f000000000000000000000000000000000000000000000000000000000000000073ffffffffffffffffffffffffffffffffffffffff1663c475abff8460001c866040518363ffffffff1660e01b8152600401610af9929190611bea565b602060405180830381600087803b158015610b1357600080fd5b505af1158015610b27573d6000803e3d6000fd5b505050506040513d601f19601f82011682018060405250810190610b4b91906116c7565b905081602001518260000151610b619190611c90565b341115610bce573373ffffffffffffffffffffffffffffffffffffffff166108fc83602001518460000151610b969190611c90565b34610ba19190611ce6565b9081150290604051600060405180830381858888f19350505050158015610bcc573d6000803e3d6000fd5b505b827f3da24c024582931cfaf8267d8ed24d13a82a8068d5bd337d30ec45cea4e506ae878785602001518660000151610c069190611c90565b85604051610c1794939291906119c3565b60405180910390a2505050505050565b60008082805190602001209050610c3d836109bf565b8015610cf157507f000000000000000000000000000000000000000000000000000000000000000073ffffffffffffffffffffffffffffffffffffffff166396e494e88260001c6040518263ffffffff1660e01b8152600401610ca09190611b98565b60206040518083038186803b158015610cb857600080fd5b505afa158015610ccc573d6000803e3d6000fd5b505050506040513d601f19601f82011682018060405250810190610cf09190611464565b5b915050919050565b7f000000000000000000000000000000000000000000000000000000000000000081565b7f000000000000000000000000000000000000000000000000000000000000000081565b427f00000000000000000000000000000000000000000000000000000000000000006001600084815260200190815260200160002054610d819190611c90565b10610d8b57600080fd5b42600160008381526020019081526020016000208190555050565b610dae610e9e565b73ffffffffffffffffffffffffffffffffffffffff16610dcc610996565b73ffffffffffffffffffffffffffffffffffffffff1614610e22576040517f08c379a0000000000000000000000000000000000000000000000000000000008152600401610e1990611b1d565b60405180910390fd5b600073ffffffffffffffffffffffffffffffffffffffff168173ffffffffffffffffffffffffffffffffffffffff161415610e92576040517f08c379a0000000000000000000000000000000000000000000000000000000008152600401610e8990611a9d565b60405180910390fd5b610e9b81610ea6565b50565b600033905090565b60008060009054906101000a900473ffffffffffffffffffffffffffffffffffffffff169050816000806101000a81548173ffffffffffffffffffffffffffffffffffffffff021916908373ffffffffffffffffffffffffffffffffffffffff1602179055508173ffffffffffffffffffffffffffffffffffffffff168173ffffffffffffffffffffffffffffffffffffffff167f8be0079c531659141344cd1fd0a4f28419497f9722a3daafe3b4186f6b6457e060405160405180910390a35050565b427f00000000000000000000000000000000000000000000000000000000000000006001600084815260200190815260200160002054610faa9190611c90565b1115610feb576040517f08c379a0000000000000000000000000000000000000000000000000000000008152600401610fe290611b3d565b60405180910390fd5b427f0000000000000000000000000000000000000000000000000000000000000000600160008481526020019081526020016000205461102b9190611c90565b1161106b576040517f08c379a000000000000000000000000000000000000000000000000000000000815260040161106290611add565b60405180910390fd5b61107483610c27565b6110b3576040517f08c379a00000000000000000000000000000000000000000000000000000000081526004016110aa90611abd565b60405180910390fd5b60016000828152602001908152602001600020600090556224ea008210156110da57600080fd5b505050565b60008060008084519050600092505b808210156112af576000858381518110611131577f4e487b7100000000000000000000000000000000000000000000000000000000600052603260045260246000fd5b602001015160f81c60f81b9050608060f81b817effffffffffffffffffffffffffffffffffffffffffffffffffffffffffffff19161015611180576001836111799190611c90565b925061129b565b60e060f81b817effffffffffffffffffffffffffffffffffffffffffffffffffffffffffffff191610156111c2576002836111bb9190611c90565b925061129a565b60f060f81b817effffffffffffffffffffffffffffffffffffffffffffffffffffffffffffff19161015611204576003836111fd9190611c90565b9250611299565b60f8801b817effffffffffffffffffffffffffffffffffffffffffffffffffffffffffffff191610156112455760048361123e9190611c90565b9250611298565b60fc60f81b817effffffffffffffffffffffffffffffffffffffffffffffffffffffffffffff19161015611287576005836112809190611c90565b9250611297565b6006836112949190611c90565b92505b5b5b5b5b5082806112a790611e03565b9350506110ee565b829350505050919050565b604051806040016040528060008152602001600081525090565b60006112e76112e284611c38565b611c13565b9050828152602081018484840111156112ff57600080fd5b61130a848285611d90565b509392505050565b600081359050611321816120be565b92915050565b600081519050611336816120d5565b92915050565b60008135905061134b816120ec565b92915050565b60008083601f84011261136357600080fd5b8235905067ffffffffffffffff81111561137c57600080fd5b60208301915083600182028301111561139457600080fd5b9250929050565b600082601f8301126113ac57600080fd5b81356113bc8482602086016112d4565b91505092915050565b6000604082840312156113d757600080fd5b6113e16040611c13565b905060006113f184828501611426565b600083015250602061140584828501611426565b60208301525092915050565b60008135905061142081612103565b92915050565b60008151905061143581612103565b92915050565b60006020828403121561144d57600080fd5b600061145b84828501611312565b91505092915050565b60006020828403121561147657600080fd5b600061148484828501611327565b91505092915050565b60006020828403121561149f57600080fd5b60006114ad8482850161133c565b91505092915050565b6000806000806000608086880312156114ce57600080fd5b600086013567ffffffffffffffff8111156114e857600080fd5b6114f488828901611351565b9550955050602061150788828901611312565b935050604061151888828901611411565b92505060606115298882890161133c565b9150509295509295909350565b60008060006040848603121561154b57600080fd5b600084013567ffffffffffffffff81111561156557600080fd5b61157186828701611351565b9350935050602061158486828701611411565b9150509250925092565b6000602082840312156115a057600080fd5b600082013567ffffffffffffffff8111156115ba57600080fd5b6115c68482850161139b565b91505092915050565b600080600080608085870312156115e557600080fd5b600085013567ffffffffffffffff8111156115ff57600080fd5b61160b8782880161139b565b945050602061161c87828801611312565b935050604061162d87828801611411565b925050606061163e8782880161133c565b91505092959194509250565b6000806040838503121561165d57600080fd5b600083013567ffffffffffffffff81111561167757600080fd5b6116838582860161139b565b925050602061169485828601611411565b9150509250929050565b6000604082840312156116b057600080fd5b60006116be848285016113c5565b91505092915050565b6000602082840312156116d957600080fd5b60006116e784828501611426565b91505092915050565b6116f981611d1a565b82525050565b61170881611d2c565b82525050565b61171781611d38565b82525050565b60006117298385611c74565b9350611736838584611d90565b82840190509392505050565b61174b81611d6c565b82525050565b600061175d8385611c7f565b935061176a838584611d90565b61177383611eaa565b840190509392505050565b600061178982611c69565b6117938185611c7f565b93506117a3818560208601611d9f565b6117ac81611eaa565b840191505092915050565b60006117c4602683611c7f565b91506117cf82611ebb565b604082019050919050565b60006117e7602e83611c7f565b91506117f282611f0a565b604082019050919050565b600061180a603183611c7f565b915061181582611f59565b604082019050919050565b600061182d603483611c7f565b915061183882611fa8565b604082019050919050565b6000611850602083611c7f565b915061185b82611ff7565b602082019050919050565b6000611873603283611c7f565b915061187e82612020565b604082019050919050565b6000611896604083611c7f565b91506118a18261206f565b604082019050919050565b6040820160008201516118c260008501826118db565b5060208201516118d560208501826118db565b50505050565b6118e481611d62565b82525050565b6118f381611d62565b82525050565b600061190682848661171d565b91508190509392505050565b600060208201905061192760008301846116f0565b92915050565b600060208201905061194260008301846116ff565b92915050565b600060208201905061195d600083018461170e565b92915050565b6000608082019050611978600083018761170e565b61198560208301866116f0565b61199260408301856118ea565b61199f606083018461170e565b95945050505050565b60006020820190506119bd6000830184611742565b92915050565b600060608201905081810360008301526119de818688611751565b90506119ed60208301856118ea565b6119fa60408301846118ea565b95945050505050565b600060a0820190508181036000830152611a1e81888a611751565b9050611a2d60208301876118ea565b611a3a60408301866118ea565b611a4760608301856118ea565b611a5460808301846118ea565b979650505050505050565b60006060820190508181036000830152611a79818661177e565b9050611a8860208301856118ea565b611a9560408301846118ea565b949350505050565b60006020820190508181036000830152611ab6816117b7565b9050919050565b60006020820190508181036000830152611ad6816117da565b9050919050565b60006020820190508181036000830152611af6816117fd565b9050919050565b60006020820190508181036000830152611b1681611820565b9050919050565b60006020820190508181036000830152611b3681611843565b9050919050565b60006020820190508181036000830152611b5681611866565b9050919050565b60006020820190508181036000830152611b7681611889565b9050919050565b6000604082019050611b9260008301846118ac565b92915050565b6000602082019050611bad60008301846118ea565b92915050565b6000606082019050611bc860008301866118ea565b611bd560208301856116f0565b611be260408301846118ea565b949350505050565b6000604082019050611bff60008301856118ea565b611c0c60208301846118ea565b9392505050565b6000611c1d611c2e565b9050611c298282611dd2565b919050565b6000604051905090565b600067ffffffffffffffff821115611c5357611c52611e7b565b5b611c5c82611eaa565b9050602081019050919050565b600081519050919050565b600081905092915050565b600082825260208201905092915050565b6000611c9b82611d62565b9150611ca683611d62565b9250827fffffffffffffffffffffffffffffffffffffffffffffffffffffffffffffffff03821115611cdb57611cda611e4c565b5b828201905092915050565b6000611cf182611d62565b9150611cfc83611d62565b925082821015611d0f57611d0e611e4c565b5b828203905092915050565b6000611d2582611d42565b9050919050565b60008115159050919050565b6000819050919050565b600073ffffffffffffffffffffffffffffffffffffffff82169050919050565b6000819050919050565b6000611d7782611d7e565b9050919050565b6000611d8982611d42565b9050919050565b82818337600083830152505050565b60005b83811015611dbd578082015181840152602081019050611da2565b83811115611dcc576000848401525b50505050565b611ddb82611eaa565b810181811067ffffffffffffffff82111715611dfa57611df9611e7b565b5b80604052505050565b6000611e0e82611d62565b91507fffffffffffffffffffffffffffffffffffffffffffffffffffffffffffffffff821415611e4157611e40611e4c565b5b600182019050919050565b7f4e487b7100000000000000000000000000000000000000000000000000000000600052601160045260246000fd5b7f4e487b7100000000000000000000000000000000000000000000000000000000600052604160045260246000fd5b6000601f19601f8301169050919050565b7f4f776e61626c653a206e6577206f776e657220697320746865207a65726f206160008201527f6464726573730000000000000000000000000000000000000000000000000000602082015250565b7f426562526567697374727942657461436f6e74726f6c6c65723a204e616d652060008201527f697320756e617661696c61626c65000000000000000000000000000000000000602082015250565b7f426562526567697374727942657461436f6e74726f6c6c65723a20436f6d6d6960008201527f746d656e74206861732065787069726564000000000000000000000000000000602082015250565b7f426562526567697374727942657461436f6e74726f6c6c65723a204e6f74206560008201527f6e6f7567682065746865722070726f7669646564000000000000000000000000602082015250565b7f4f776e61626c653a2063616c6c6572206973206e6f7420746865206f776e6572600082015250565b7f426562526567697374727942657461436f6e74726f6c6c65723a20436f6d6d6960008201527f746d656e74206973206e6f742076616c69640000000000000000000000000000602082015250565b7f426562526567697374727942657461436f6e74726f6c6c65723a204e6f74206560008201527f6e6f7567682045746865722070726f766964656420666f722072656e6577616c602082015250565b6120c781611d1a565b81146120d257600080fd5b50565b6120de81611d2c565b81146120e957600080fd5b50565b6120f581611d38565b811461210057600080fd5b50565b61210c81611d62565b811461211757600080fd5b5056fea264697066735822122099dc6d23acfe5fed3ea60c609ca2729ab491e9015955f7c18e23c84e1db78fe264736f6c63430008040033",
  "linkReferences": {},
  "deployedLinkReferences": {}
}