{
  "_format": "hh-sol-artifact-1",
  "contractName": "BaseRegistrar",
  "sourceName": "contracts/BaseRegistrar.sol",
  "abi": [
    {
      "inputs": [
        {
          "internalType": "contract IBEBRegistry",
          "name": "_bebRegistry",
          "type": "address"
        },
        {
          "internalType": "bytes32",
          "name": "_baseNode",
          "type": "bytes32"
        }
      ],
      "stateMutability": "nonpayable",
      "type": "constructor"
    },
    {
      "anonymous": false,
      "inputs": [
        {
          "indexed": true,
          "internalType": "address",
          "name": "owner",
          "type": "address"
        },
        {
          "indexed": true,
          "internalType": "address",
          "name": "approved",
          "type": "address"
        },
        {
          "indexed": true,
          "internalType": "uint256",
          "name": "tokenId",
          "type": "uint256"
        }
      ],
      "name": "Approval",
      "type": "event"
    },
    {
      "anonymous": false,
      "inputs": [
        {
          "indexed": true,
          "internalType": "address",
          "name": "owner",
          "type": "address"
        },
        {
          "indexed": true,
          "internalType": "address",
          "name": "operator",
          "type": "address"
        },
        {
          "indexed": false,
          "internalType": "bool",
          "name": "approved",
          "type": "bool"
        }
      ],
      "name": "ApprovalForAll",
      "type": "event"
    },
    {
      "anonymous": false,
      "inputs": [
        {
          "indexed": true,
          "internalType": "address",
          "name": "controller",
          "type": "address"
        }
      ],
      "name": "ControllerAdded",
      "type": "event"
    },
    {
      "anonymous": false,
      "inputs": [
        {
          "indexed": true,
          "internalType": "address",
          "name": "controller",
          "type": "address"
        }
      ],
      "name": "ControllerRemoved",
      "type": "event"
    },
    {
      "anonymous": false,
      "inputs": [
        {
          "indexed": true,
          "internalType": "uint256",
          "name": "id",
          "type": "uint256"
        },
        {
          "indexed": true,
          "internalType": "address",
          "name": "owner",
          "type": "address"
        },
        {
          "indexed": false,
          "internalType": "uint256",
          "name": "expires",
          "type": "uint256"
        }
      ],
      "name": "NameMigrated",
      "type": "event"
    },
    {
      "anonymous": false,
      "inputs": [
        {
          "indexed": true,
          "internalType": "uint256",
          "name": "id",
          "type": "uint256"
        },
        {
          "indexed": true,
          "internalType": "address",
          "name": "owner",
          "type": "address"
        },
        {
          "indexed": false,
          "internalType": "uint256",
          "name": "expires",
          "type": "uint256"
        }
      ],
      "name": "NameRegistered",
      "type": "event"
    },
    {
      "anonymous": false,
      "inputs": [
        {
          "indexed": true,
          "internalType": "uint256",
          "name": "id",
          "type": "uint256"
        },
        {
          "indexed": false,
          "internalType": "uint256",
          "name": "expires",
          "type": "uint256"
        }
      ],
      "name": "NameRenewed",
      "type": "event"
    },
    {
      "anonymous": false,
      "inputs": [
        {
          "indexed": true,
          "internalType": "address",
          "name": "previousOwner",
          "type": "address"
        },
        {
          "indexed": true,
          "internalType": "address",
          "name": "newOwner",
          "type": "address"
        }
      ],
      "name": "OwnershipTransferred",
      "type": "event"
    },
    {
      "anonymous": false,
      "inputs": [
        {
          "indexed": true,
          "internalType": "address",
          "name": "from",
          "type": "address"
        },
        {
          "indexed": true,
          "internalType": "address",
          "name": "to",
          "type": "address"
        },
        {
          "indexed": true,
          "internalType": "uint256",
          "name": "tokenId",
          "type": "uint256"
        }
      ],
      "name": "Transfer",
      "type": "event"
    },
    {
      "inputs": [],
      "name": "GRACE_PERIOD",
      "outputs": [
        {
          "internalType": "uint256",
          "name": "",
          "type": "uint256"
        }
      ],
      "stateMutability": "view",
      "type": "function"
    },
    {
      "inputs": [
        {
          "internalType": "address",
          "name": "controller",
          "type": "address"
        }
      ],
      "name": "addController",
      "outputs": [],
      "stateMutability": "nonpayable",
      "type": "function"
    },
    {
      "inputs": [
        {
          "internalType": "address",
          "name": "to",
          "type": "address"
        },
        {
          "internalType": "uint256",
          "name": "tokenId",
          "type": "uint256"
        }
      ],
      "name": "approve",
      "outputs": [],
      "stateMutability": "nonpayable",
      "type": "function"
    },
    {
      "inputs": [
        {
          "internalType": "uint256",
          "name": "id",
          "type": "uint256"
        }
      ],
      "name": "available",
      "outputs": [
        {
          "internalType": "bool",
          "name": "",
          "type": "bool"
        }
      ],
      "stateMutability": "view",
      "type": "function"
    },
    {
      "inputs": [
        {
          "internalType": "address",
          "name": "owner",
          "type": "address"
        }
      ],
      "name": "balanceOf",
      "outputs": [
        {
          "internalType": "uint256",
          "name": "",
          "type": "uint256"
        }
      ],
      "stateMutability": "view",
      "type": "function"
    },
    {
      "inputs": [],
      "name": "baseNode",
      "outputs": [
        {
          "internalType": "bytes32",
          "name": "",
          "type": "bytes32"
        }
      ],
      "stateMutability": "view",
      "type": "function"
    },
    {
      "inputs": [],
      "name": "baseURI",
      "outputs": [
        {
          "internalType": "string",
          "name": "",
          "type": "string"
        }
      ],
      "stateMutability": "view",
      "type": "function"
    },
    {
      "inputs": [],
      "name": "bebRegistry",
      "outputs": [
        {
          "internalType": "contract IBEBRegistry",
          "name": "",
          "type": "address"
        }
      ],
      "stateMutability": "view",
      "type": "function"
    },
    {
      "inputs": [
        {
          "internalType": "address",
          "name": "",
          "type": "address"
        }
      ],
      "name": "controllers",
      "outputs": [
        {
          "internalType": "bool",
          "name": "",
          "type": "bool"
        }
      ],
      "stateMutability": "view",
      "type": "function"
    },
    {
      "inputs": [
        {
          "internalType": "uint256",
          "name": "tokenId",
          "type": "uint256"
        }
      ],
      "name": "getApproved",
      "outputs": [
        {
          "internalType": "address",
          "name": "",
          "type": "address"
        }
      ],
      "stateMutability": "view",
      "type": "function"
    },
    {
      "inputs": [
        {
          "internalType": "address",
          "name": "owner",
          "type": "address"
        },
        {
          "internalType": "address",
          "name": "operator",
          "type": "address"
        }
      ],
      "name": "isApprovedForAll",
      "outputs": [
        {
          "internalType": "bool",
          "name": "",
          "type": "bool"
        }
      ],
      "stateMutability": "view",
      "type": "function"
    },
    {
      "inputs": [],
      "name": "name",
      "outputs": [
        {
          "internalType": "string",
          "name": "",
          "type": "string"
        }
      ],
      "stateMutability": "view",
      "type": "function"
    },
    {
      "inputs": [
        {
          "internalType": "uint256",
          "name": "id",
          "type": "uint256"
        }
      ],
      "name": "nameExpires",
      "outputs": [
        {
          "internalType": "uint256",
          "name": "",
          "type": "uint256"
        }
      ],
      "stateMutability": "view",
      "type": "function"
    },
    {
      "inputs": [],
      "name": "owner",
      "outputs": [
        {
          "internalType": "address",
          "name": "",
          "type": "address"
        }
      ],
      "stateMutability": "view",
      "type": "function"
    },
    {
      "inputs": [
        {
          "internalType": "uint256",
          "name": "tokenId",
          "type": "uint256"
        }
      ],
      "name": "ownerOf",
      "outputs": [
        {
          "internalType": "address",
          "name": "",
          "type": "address"
        }
      ],
      "stateMutability": "view",
      "type": "function"
    },
    {
      "inputs": [
        {
          "internalType": "uint256",
          "name": "id",
          "type": "uint256"
        },
        {
          "internalType": "address",
          "name": "owner",
          "type": "address"
        }
      ],
      "name": "reclaim",
      "outputs": [],
      "stateMutability": "nonpayable",
      "type": "function"
    },
    {
      "inputs": [
        {
          "internalType": "uint256",
          "name": "id",
          "type": "uint256"
        },
        {
          "internalType": "address",
          "name": "owner",
          "type": "address"
        },
        {
          "internalType": "uint256",
          "name": "duration",
          "type": "uint256"
        }
      ],
      "name": "register",
      "outputs": [
        {
          "internalType": "uint256",
          "name": "",
          "type": "uint256"
        }
      ],
      "stateMutability": "nonpayable",
      "type": "function"
    },
    {
      "inputs": [
        {
          "internalType": "uint256",
          "name": "id",
          "type": "uint256"
        },
        {
          "internalType": "address",
          "name": "owner",
          "type": "address"
        },
        {
          "internalType": "uint256",
          "name": "duration",
          "type": "uint256"
        }
      ],
      "name": "registerOnly",
      "outputs": [
        {
          "internalType": "uint256",
          "name": "",
          "type": "uint256"
        }
      ],
      "stateMutability": "nonpayable",
      "type": "function"
    },
    {
      "inputs": [
        {
          "internalType": "address",
          "name": "controller",
          "type": "address"
        }
      ],
      "name": "removeController",
      "outputs": [],
      "stateMutability": "nonpayable",
      "type": "function"
    },
    {
      "inputs": [
        {
          "internalType": "uint256",
          "name": "id",
          "type": "uint256"
        },
        {
          "internalType": "uint256",
          "name": "duration",
          "type": "uint256"
        }
      ],
      "name": "renew",
      "outputs": [
        {
          "internalType": "uint256",
          "name": "",
          "type": "uint256"
        }
      ],
      "stateMutability": "nonpayable",
      "type": "function"
    },
    {
      "inputs": [],
      "name": "renounceOwnership",
      "outputs": [],
      "stateMutability": "nonpayable",
      "type": "function"
    },
    {
      "inputs": [],
      "name": "royaltyController",
      "outputs": [
        {
          "internalType": "contract IRoyaltyController",
          "name": "",
          "type": "address"
        }
      ],
      "stateMutability": "view",
      "type": "function"
    },
    {
      "inputs": [
        {
          "internalType": "uint256",
          "name": "tokenId",
          "type": "uint256"
        },
        {
          "internalType": "uint256",
          "name": "salePrice",
          "type": "uint256"
        }
      ],
      "name": "royaltyInfo",
      "outputs": [
        {
          "internalType": "address",
          "name": "receiver",
          "type": "address"
        },
        {
          "internalType": "uint256",
          "name": "royaltyAmount",
          "type": "uint256"
        }
      ],
      "stateMutability": "view",
      "type": "function"
    },
    {
      "inputs": [
        {
          "internalType": "address",
          "name": "from",
          "type": "address"
        },
        {
          "internalType": "address",
          "name": "to",
          "type": "address"
        },
        {
          "internalType": "uint256",
          "name": "tokenId",
          "type": "uint256"
        }
      ],
      "name": "safeTransferFrom",
      "outputs": [],
      "stateMutability": "nonpayable",
      "type": "function"
    },
    {
      "inputs": [
        {
          "internalType": "address",
          "name": "from",
          "type": "address"
        },
        {
          "internalType": "address",
          "name": "to",
          "type": "address"
        },
        {
          "internalType": "uint256",
          "name": "tokenId",
          "type": "uint256"
        },
        {
          "internalType": "bytes",
          "name": "_data",
          "type": "bytes"
        }
      ],
      "name": "safeTransferFrom",
      "outputs": [],
      "stateMutability": "nonpayable",
      "type": "function"
    },
    {
      "inputs": [
        {
          "internalType": "address",
          "name": "operator",
          "type": "address"
        },
        {
          "internalType": "bool",
          "name": "approved",
          "type": "bool"
        }
      ],
      "name": "setApprovalForAll",
      "outputs": [],
      "stateMutability": "nonpayable",
      "type": "function"
    },
    {
      "inputs": [
        {
          "internalType": "string",
          "name": "uri",
          "type": "string"
        }
      ],
      "name": "setBaseURI",
      "outputs": [],
      "stateMutability": "nonpayable",
      "type": "function"
    },
    {
      "inputs": [
        {
          "internalType": "contract IRoyaltyController",
          "name": "_royaltyController",
          "type": "address"
        }
      ],
      "name": "setRoyaltyController",
      "outputs": [],
      "stateMutability": "nonpayable",
      "type": "function"
    },
    {
      "inputs": [
        {
          "internalType": "bytes4",
          "name": "interfaceId",
          "type": "bytes4"
        }
      ],
      "name": "supportsInterface",
      "outputs": [
        {
          "internalType": "bool",
          "name": "",
          "type": "bool"
        }
      ],
      "stateMutability": "view",
      "type": "function"
    },
    {
      "inputs": [],
      "name": "symbol",
      "outputs": [
        {
          "internalType": "string",
          "name": "",
          "type": "string"
        }
      ],
      "stateMutability": "view",
      "type": "function"
    },
    {
      "inputs": [
        {
          "internalType": "uint256",
          "name": "tokenId",
          "type": "uint256"
        }
      ],
      "name": "tokenURI",
      "outputs": [
        {
          "internalType": "string",
          "name": "",
          "type": "string"
        }
      ],
      "stateMutability": "view",
      "type": "function"
    },
    {
      "inputs": [
        {
          "internalType": "address",
          "name": "from",
          "type": "address"
        },
        {
          "internalType": "address",
          "name": "to",
          "type": "address"
        },
        {
          "internalType": "uint256",
          "name": "tokenId",
          "type": "uint256"
        }
      ],
      "name": "transferFrom",
      "outputs": [],
      "stateMutability": "nonpayable",
      "type": "function"
    },
    {
      "inputs": [
        {
          "internalType": "address",
          "name": "newOwner",
          "type": "address"
        }
      ],
      "name": "transferOwnership",
      "outputs": [],
      "stateMutability": "nonpayable",
      "type": "function"
    }
  ],
  "bytecode": "0x60806040523480156200001157600080fd5b50604051620042dc380380620042dc8339818101604052810190620000379190620002f3565b6040518060400160405280600381526020017f42454200000000000000000000000000000000000000000000000000000000008152506040518060400160405280600381526020017f42454200000000000000000000000000000000000000000000000000000000008152508160009080519060200190620000bb92919062000215565b508060019080519060200190620000d492919062000215565b505050620000f7620000eb6200014760201b60201c565b6200014f60201b60201c565b81600860006101000a81548173ffffffffffffffffffffffffffffffffffffffff021916908373ffffffffffffffffffffffffffffffffffffffff16021790555080600a8190555050506200041f565b600033905090565b6000600660009054906101000a900473ffffffffffffffffffffffffffffffffffffffff16905081600660006101000a81548173ffffffffffffffffffffffffffffffffffffffff021916908373ffffffffffffffffffffffffffffffffffffffff1602179055508173ffffffffffffffffffffffffffffffffffffffff168173ffffffffffffffffffffffffffffffffffffffff167f8be0079c531659141344cd1fd0a4f28419497f9722a3daafe3b4186f6b6457e060405160405180910390a35050565b828054620002239062000386565b90600052602060002090601f01602090048101928262000247576000855562000293565b82601f106200026257805160ff191683800117855562000293565b8280016001018555821562000293579182015b828111156200029257825182559160200191906001019062000275565b5b509050620002a29190620002a6565b5090565b5b80821115620002c1576000816000905550600101620002a7565b5090565b600081519050620002d681620003eb565b92915050565b600081519050620002ed8162000405565b92915050565b600080604083850312156200030757600080fd5b60006200031785828601620002dc565b92505060206200032a85828601620002c5565b9150509250929050565b6000620003418262000366565b9050919050565b6000819050919050565b60006200035f8262000334565b9050919050565b600073ffffffffffffffffffffffffffffffffffffffff82169050919050565b600060028204905060018216806200039f57607f821691505b60208210811415620003b657620003b5620003bc565b5b50919050565b7f4e487b7100000000000000000000000000000000000000000000000000000000600052602260045260246000fd5b620003f68162000348565b81146200040257600080fd5b50565b620004108162000352565b81146200041c57600080fd5b50565b613ead806200042f6000396000f3fe608060405234801561001057600080fd5b50600436106101fb5760003560e01c80637b4b59051161011a578063c475abff116100ad578063ddf7fcb01161007c578063ddf7fcb0146105e9578063e985e9c514610607578063f2fde38b14610637578063f6a74ed714610653578063fca247ac1461066f576101fb565b8063c475abff14610529578063c87b56dd14610559578063d6e4fa8614610589578063da8c229e146105b9576101fb565b8063a22cb465116100e9578063a22cb465146104b7578063a7fc7a07146104d3578063b88d4fde146104ef578063c1a287e21461050b576101fb565b80637b4b59051461042d5780638da5cb5b1461044b57806395d89b411461046957806396e494e814610487576101fb565b806328ed4f6c116101925780636352211e116101615780636352211e146103a55780636c0360eb146103d557806370a08231146103f3578063715018a614610423576101fb565b806328ed4f6c146103205780632a55205a1461033c57806342842e0e1461036d57806355f804b314610389576101fb565b80630e297b45116101ce5780630e297b451461029a578063105c4813146102ca57806311ed8c31146102e857806323b872dd14610304576101fb565b806301ffc9a71461020057806306fdde0314610230578063081812fc1461024e578063095ea7b31461027e575b600080fd5b61021a60048036038101906102159190612d75565b61069f565b60405161022791906132e3565b60405180910390f35b610238610781565b6040516102459190613386565b60405180910390f35b61026860048036038101906102639190612e35565b610813565b6040516102759190613253565b60405180910390f35b61029860048036038101906102939190612cd4565b610898565b005b6102b460048036038101906102af9190612e9a565b6109b0565b6040516102c19190613588565b60405180910390f35b6102d26109c8565b6040516102df919061336b565b60405180910390f35b61030260048036038101906102fd9190612dc7565b6109ee565b005b61031e60048036038101906103199190612bce565b6109fa565b005b61033a60048036038101906103359190612e5e565b610a5a565b005b61035660048036038101906103519190612ee9565b610c0c565b6040516103649291906132ba565b60405180910390f35b61038760048036038101906103829190612bce565b610cc6565b005b6103a3600480360381019061039e9190612df0565b610ce6565b005b6103bf60048036038101906103ba9190612e35565b610cf4565b6040516103cc9190613253565b60405180910390f35b6103dd610d25565b6040516103ea9190613386565b60405180910390f35b61040d60048036038101906104089190612b40565b610db3565b60405161041a9190613588565b60405180910390f35b61042b610e6b565b005b610435610ef3565b6040516104429190613350565b60405180910390f35b610453610f19565b6040516104609190613253565b60405180910390f35b610471610f43565b60405161047e9190613386565b60405180910390f35b6104a1600480360381019061049c9190612e35565b610fd5565b6040516104ae91906132e3565b60405180910390f35b6104d160048036038101906104cc9190612c98565b611002565b005b6104ed60048036038101906104e89190612b40565b611018565b005b61050960048036038101906105049190612c1d565b6110ef565b005b610513611151565b6040516105209190613588565b60405180910390f35b610543600480360381019061053e9190612ee9565b611158565b6040516105509190613588565b60405180910390f35b610573600480360381019061056e9190612e35565b6112b5565b6040516105809190613386565b60405180910390f35b6105a3600480360381019061059e9190612e35565b61135c565b6040516105b09190613588565b60405180910390f35b6105d360048036038101906105ce9190612b40565b611379565b6040516105e091906132e3565b60405180910390f35b6105f1611399565b6040516105fe91906132fe565b60405180910390f35b610621600480360381019061061c9190612b92565b61139f565b60405161062e91906132e3565b60405180910390f35b610651600480360381019061064c9190612b40565b611433565b005b61066d60048036038101906106689190612b40565b61152b565b005b61068960048036038101906106849190612e9a565b611602565b6040516106969190613588565b60405180910390f35b60007f80ac58cd000000000000000000000000000000000000000000000000000000007bffffffffffffffffffffffffffffffffffffffffffffffffffffffff1916827bffffffffffffffffffffffffffffffffffffffffffffffffffffffff1916148061076a57507f5b5e139f000000000000000000000000000000000000000000000000000000007bffffffffffffffffffffffffffffffffffffffffffffffffffffffff1916827bffffffffffffffffffffffffffffffffffffffffffffffffffffffff1916145b8061077a57506107798261161a565b5b9050919050565b6060600080546107909061383a565b80601f01602080910402602001604051908101604052809291908181526020018280546107bc9061383a565b80156108095780601f106107de57610100808354040283529160200191610809565b820191906000526020600020905b8154815290600101906020018083116107ec57829003601f168201915b5050505050905090565b600061081e82611684565b61085d576040517f08c379a0000000000000000000000000000000000000000000000000000000008152600401610854906134e8565b60405180910390fd5b6004600083815260200190815260200160002060009054906101000a900473ffffffffffffffffffffffffffffffffffffffff169050919050565b60006108a3826116f0565b90508073ffffffffffffffffffffffffffffffffffffffff168373ffffffffffffffffffffffffffffffffffffffff161415610914576040517f08c379a000000000000000000000000000000000000000000000000000000000815260040161090b90613548565b60405180910390fd5b8073ffffffffffffffffffffffffffffffffffffffff166109336117a2565b73ffffffffffffffffffffffffffffffffffffffff16148061096257506109618161095c6117a2565b61139f565b5b6109a1576040517f08c379a000000000000000000000000000000000000000000000000000000000815260040161099890613468565b60405180910390fd5b6109ab83836117aa565b505050565b60006109bf8484846000611863565b90509392505050565b600960009054906101000a900473ffffffffffffffffffffffffffffffffffffffff1681565b6109f781611b57565b50565b610a0b610a056117a2565b82611c17565b610a4a576040517f08c379a0000000000000000000000000000000000000000000000000000000008152600401610a4190613568565b60405180910390fd5b610a55838383611cac565b505050565b3073ffffffffffffffffffffffffffffffffffffffff16600860009054906101000a900473ffffffffffffffffffffffffffffffffffffffff1673ffffffffffffffffffffffffffffffffffffffff166302571be3600a546040518263ffffffff1660e01b8152600401610ace91906132fe565b60206040518083038186803b158015610ae657600080fd5b505afa158015610afa573d6000803e3d6000fd5b505050506040513d601f19601f82011682018060405250810190610b1e9190612b69565b73ffffffffffffffffffffffffffffffffffffffff1614610b3e57600080fd5b610b483383611c17565b610b5157600080fd5b600860009054906101000a900473ffffffffffffffffffffffffffffffffffffffff1673ffffffffffffffffffffffffffffffffffffffff166306ab5923600a548460001b846040518463ffffffff1660e01b8152600401610bb593929190613319565b602060405180830381600087803b158015610bcf57600080fd5b505af1158015610be3573d6000803e3d6000fd5b505050506040513d601f19601f82011682018060405250810190610c079190612d4c565b505050565b600080600960009054906101000a900473ffffffffffffffffffffffffffffffffffffffff1673ffffffffffffffffffffffffffffffffffffffff16632a55205a85856040518363ffffffff1660e01b8152600401610c6c9291906135a3565b604080518083038186803b158015610c8357600080fd5b505afa158015610c97573d6000803e3d6000fd5b505050506040513d601f19601f82011682018060405250810190610cbb9190612d10565b915091509250929050565b610ce1838383604051806020016040528060008152506110ef565b505050565b610cf08282611f13565b5050565b600042600760008481526020019081526020016000205411610d1557600080fd5b610d1e826116f0565b9050919050565b600c8054610d329061383a565b80601f0160208091040260200160405190810160405280929190818152602001828054610d5e9061383a565b8015610dab5780601f10610d8057610100808354040283529160200191610dab565b820191906000526020600020905b815481529060010190602001808311610d8e57829003601f168201915b505050505081565b60008073ffffffffffffffffffffffffffffffffffffffff168273ffffffffffffffffffffffffffffffffffffffff161415610e24576040517f08c379a0000000000000000000000000000000000000000000000000000000008152600401610e1b90613488565b60405180910390fd5b600360008373ffffffffffffffffffffffffffffffffffffffff1673ffffffffffffffffffffffffffffffffffffffff168152602001908152602001600020549050919050565b610e736117a2565b73ffffffffffffffffffffffffffffffffffffffff16610e91610f19565b73ffffffffffffffffffffffffffffffffffffffff1614610ee7576040517f08c379a0000000000000000000000000000000000000000000000000000000008152600401610ede90613508565b60405180910390fd5b610ef16000611fa5565b565b600860009054906101000a900473ffffffffffffffffffffffffffffffffffffffff1681565b6000600660009054906101000a900473ffffffffffffffffffffffffffffffffffffffff16905090565b606060018054610f529061383a565b80601f0160208091040260200160405190810160405280929190818152602001828054610f7e9061383a565b8015610fcb5780601f10610fa057610100808354040283529160200191610fcb565b820191906000526020600020905b815481529060010190602001808311610fae57829003601f168201915b5050505050905090565b6000426276a7006007600085815260200190815260200160002054610ffa9190613665565b109050919050565b61101461100d6117a2565b838361206b565b5050565b6110206117a2565b73ffffffffffffffffffffffffffffffffffffffff1661103e610f19565b73ffffffffffffffffffffffffffffffffffffffff1614611094576040517f08c379a000000000000000000000000000000000000000000000000000000000815260040161108b90613508565b60405180910390fd5b6001600b60008373ffffffffffffffffffffffffffffffffffffffff1673ffffffffffffffffffffffffffffffffffffffff16815260200190815260200160002060006101000a81548160ff02191690831515021790555050565b6111006110fa6117a2565b83611c17565b61113f576040517f08c379a000000000000000000000000000000000000000000000000000000000815260040161113690613568565b60405180910390fd5b61114b848484846121d8565b50505050565b6276a70081565b6000600b60003373ffffffffffffffffffffffffffffffffffffffff1673ffffffffffffffffffffffffffffffffffffffff16815260200190815260200160002060009054906101000a900460ff166111b057600080fd5b426276a70060076000868152602001908152602001600020546111d39190613665565b10156111de57600080fd5b6276a700826111ed9190613665565b6276a7008360076000878152602001908152602001600020546112109190613665565b61121a9190613665565b1161122457600080fd5b816007600085815260200190815260200160002060008282546112479190613665565b92505081905550827f9b87a00e30f1ac65d898f070f8a3488fe60517182d0a2098e1b4b93a54aa9bd660076000868152602001908152602001600020546040516112919190613588565b60405180910390a26007600084815260200190815260200160002054905092915050565b60606112c082611684565b6112ff576040517f08c379a00000000000000000000000000000000000000000000000000000000081526004016112f690613528565b60405180910390fd5b6000611309612234565b905060008151116113295760405180602001604052806000815250611354565b80611333846122c6565b60405160200161134492919061322f565b6040516020818303038152906040525b915050919050565b600060076000838152602001908152602001600020549050919050565b600b6020528060005260406000206000915054906101000a900460ff1681565b600a5481565b6000600560008473ffffffffffffffffffffffffffffffffffffffff1673ffffffffffffffffffffffffffffffffffffffff16815260200190815260200160002060008373ffffffffffffffffffffffffffffffffffffffff1673ffffffffffffffffffffffffffffffffffffffff16815260200190815260200160002060009054906101000a900460ff16905092915050565b61143b6117a2565b73ffffffffffffffffffffffffffffffffffffffff16611459610f19565b73ffffffffffffffffffffffffffffffffffffffff16146114af576040517f08c379a00000000000000000000000000000000000000000000000000000000081526004016114a690613508565b60405180910390fd5b600073ffffffffffffffffffffffffffffffffffffffff168173ffffffffffffffffffffffffffffffffffffffff16141561151f576040517f08c379a0000000000000000000000000000000000000000000000000000000008152600401611516906133c8565b60405180910390fd5b61152881611fa5565b50565b6115336117a2565b73ffffffffffffffffffffffffffffffffffffffff16611551610f19565b73ffffffffffffffffffffffffffffffffffffffff16146115a7576040517f08c379a000000000000000000000000000000000000000000000000000000000815260040161159e90613508565b60405180910390fd5b6000600b60008373ffffffffffffffffffffffffffffffffffffffff1673ffffffffffffffffffffffffffffffffffffffff16815260200190815260200160002060006101000a81548160ff02191690831515021790555050565b60006116118484846001611863565b90509392505050565b60007f01ffc9a7000000000000000000000000000000000000000000000000000000007bffffffffffffffffffffffffffffffffffffffffffffffffffffffff1916827bffffffffffffffffffffffffffffffffffffffffffffffffffffffff1916149050919050565b60008073ffffffffffffffffffffffffffffffffffffffff166002600084815260200190815260200160002060009054906101000a900473ffffffffffffffffffffffffffffffffffffffff1673ffffffffffffffffffffffffffffffffffffffff1614159050919050565b6000806002600084815260200190815260200160002060009054906101000a900473ffffffffffffffffffffffffffffffffffffffff169050600073ffffffffffffffffffffffffffffffffffffffff168173ffffffffffffffffffffffffffffffffffffffff161415611799576040517f08c379a0000000000000000000000000000000000000000000000000000000008152600401611790906134a8565b60405180910390fd5b80915050919050565b600033905090565b816004600083815260200190815260200160002060006101000a81548173ffffffffffffffffffffffffffffffffffffffff021916908373ffffffffffffffffffffffffffffffffffffffff160217905550808273ffffffffffffffffffffffffffffffffffffffff1661181d836116f0565b73ffffffffffffffffffffffffffffffffffffffff167f8c5be1e5ebec7d5bd14f71427d1e84f3dd0314c0f7b2291e5b200ac8c7c3b92560405160405180910390a45050565b60003073ffffffffffffffffffffffffffffffffffffffff16600860009054906101000a900473ffffffffffffffffffffffffffffffffffffffff1673ffffffffffffffffffffffffffffffffffffffff166302571be3600a546040518263ffffffff1660e01b81526004016118d991906132fe565b60206040518083038186803b1580156118f157600080fd5b505afa158015611905573d6000803e3d6000fd5b505050506040513d601f19601f820116820180604052508101906119299190612b69565b73ffffffffffffffffffffffffffffffffffffffff161461194957600080fd5b600b60003373ffffffffffffffffffffffffffffffffffffffff1673ffffffffffffffffffffffffffffffffffffffff16815260200190815260200160002060009054906101000a900460ff1661199f57600080fd5b6119a885610fd5565b6119b157600080fd5b6276a700426119c09190613665565b6276a70084426119d09190613665565b6119da9190613665565b116119e457600080fd5b82426119f09190613665565b6007600087815260200190815260200160002081905550611a1085611684565b15611a1f57611a1e85612473565b5b611a298486612590565b8115611ae757600860009054906101000a900473ffffffffffffffffffffffffffffffffffffffff1673ffffffffffffffffffffffffffffffffffffffff166306ab5923600a548760001b876040518463ffffffff1660e01b8152600401611a9393929190613319565b602060405180830381600087803b158015611aad57600080fd5b505af1158015611ac1573d6000803e3d6000fd5b505050506040513d601f19601f82011682018060405250810190611ae59190612d4c565b505b8373ffffffffffffffffffffffffffffffffffffffff16857fb3d987963d01b2f68493b4bdb130988f157ea43070d4ad840fee0466ed9370d98542611b2c9190613665565b604051611b399190613588565b60405180910390a38242611b4d9190613665565b9050949350505050565b611b5f6117a2565b73ffffffffffffffffffffffffffffffffffffffff16611b7d610f19565b73ffffffffffffffffffffffffffffffffffffffff1614611bd3576040517f08c379a0000000000000000000000000000000000000000000000000000000008152600401611bca90613508565b60405180910390fd5b80600960006101000a81548173ffffffffffffffffffffffffffffffffffffffff021916908373ffffffffffffffffffffffffffffffffffffffff16021790555050565b600080611c2383610cf4565b90508073ffffffffffffffffffffffffffffffffffffffff168473ffffffffffffffffffffffffffffffffffffffff161480611c9257508373ffffffffffffffffffffffffffffffffffffffff16611c7a84610813565b73ffffffffffffffffffffffffffffffffffffffff16145b80611ca35750611ca2818561139f565b5b91505092915050565b8273ffffffffffffffffffffffffffffffffffffffff16611ccc826116f0565b73ffffffffffffffffffffffffffffffffffffffff1614611d22576040517f08c379a0000000000000000000000000000000000000000000000000000000008152600401611d19906133e8565b60405180910390fd5b600073ffffffffffffffffffffffffffffffffffffffff168273ffffffffffffffffffffffffffffffffffffffff161415611d92576040517f08c379a0000000000000000000000000000000000000000000000000000000008152600401611d8990613428565b60405180910390fd5b611d9d83838361276a565b611da86000826117aa565b6001600360008573ffffffffffffffffffffffffffffffffffffffff1673ffffffffffffffffffffffffffffffffffffffff1681526020019081526020016000206000828254611df891906136ec565b925050819055506001600360008473ffffffffffffffffffffffffffffffffffffffff1673ffffffffffffffffffffffffffffffffffffffff1681526020019081526020016000206000828254611e4f9190613665565b92505081905550816002600083815260200190815260200160002060006101000a81548173ffffffffffffffffffffffffffffffffffffffff021916908373ffffffffffffffffffffffffffffffffffffffff160217905550808273ffffffffffffffffffffffffffffffffffffffff168473ffffffffffffffffffffffffffffffffffffffff167fddf252ad1be2c89b69c2b068fc378daa952ba7f163c4a11628f55a4df523b3ef60405160405180910390a4611f0e83838361276f565b505050565b611f1b6117a2565b73ffffffffffffffffffffffffffffffffffffffff16611f39610f19565b73ffffffffffffffffffffffffffffffffffffffff1614611f8f576040517f08c379a0000000000000000000000000000000000000000000000000000000008152600401611f8690613508565b60405180910390fd5b8181600c9190611fa092919061292e565b505050565b6000600660009054906101000a900473ffffffffffffffffffffffffffffffffffffffff16905081600660006101000a81548173ffffffffffffffffffffffffffffffffffffffff021916908373ffffffffffffffffffffffffffffffffffffffff1602179055508173ffffffffffffffffffffffffffffffffffffffff168173ffffffffffffffffffffffffffffffffffffffff167f8be0079c531659141344cd1fd0a4f28419497f9722a3daafe3b4186f6b6457e060405160405180910390a35050565b8173ffffffffffffffffffffffffffffffffffffffff168373ffffffffffffffffffffffffffffffffffffffff1614156120da576040517f08c379a00000000000000000000000000000000000000000000000000000000081526004016120d190613448565b60405180910390fd5b80600560008573ffffffffffffffffffffffffffffffffffffffff1673ffffffffffffffffffffffffffffffffffffffff16815260200190815260200160002060008473ffffffffffffffffffffffffffffffffffffffff1673ffffffffffffffffffffffffffffffffffffffff16815260200190815260200160002060006101000a81548160ff0219169083151502179055508173ffffffffffffffffffffffffffffffffffffffff168373ffffffffffffffffffffffffffffffffffffffff167f17307eab39ab6107e8899845ad3d59bd9653f200f220920489ca2b5937696c31836040516121cb91906132e3565b60405180910390a3505050565b6121e3848484611cac565b6121ef84848484612774565b61222e576040517f08c379a0000000000000000000000000000000000000000000000000000000008152600401612225906133a8565b60405180910390fd5b50505050565b6060600c80546122439061383a565b80601f016020809104026020016040519081016040528092919081815260200182805461226f9061383a565b80156122bc5780601f10612291576101008083540402835291602001916122bc565b820191906000526020600020905b81548152906001019060200180831161229f57829003601f168201915b5050505050905090565b6060600082141561230e576040518060400160405280600181526020017f3000000000000000000000000000000000000000000000000000000000000000815250905061246e565b600082905060005b600082146123405780806123299061389d565b915050600a8261233991906136bb565b9150612316565b60008167ffffffffffffffff811115612382577f4e487b7100000000000000000000000000000000000000000000000000000000600052604160045260246000fd5b6040519080825280601f01601f1916602001820160405280156123b45781602001600182028036833780820191505090505b5090505b60008514612467576001826123cd91906136ec565b9150600a856123dc91906138e6565b60306123e89190613665565b60f81b818381518110612424577f4e487b7100000000000000000000000000000000000000000000000000000000600052603260045260246000fd5b60200101907effffffffffffffffffffffffffffffffffffffffffffffffffffffffffffff1916908160001a905350600a8561246091906136bb565b94506123b8565b8093505050505b919050565b600061247e826116f0565b905061248c8160008461276a565b6124976000836117aa565b6001600360008373ffffffffffffffffffffffffffffffffffffffff1673ffffffffffffffffffffffffffffffffffffffff16815260200190815260200160002060008282546124e791906136ec565b925050819055506002600083815260200190815260200160002060006101000a81549073ffffffffffffffffffffffffffffffffffffffff021916905581600073ffffffffffffffffffffffffffffffffffffffff168273ffffffffffffffffffffffffffffffffffffffff167fddf252ad1be2c89b69c2b068fc378daa952ba7f163c4a11628f55a4df523b3ef60405160405180910390a461258c8160008461276f565b5050565b600073ffffffffffffffffffffffffffffffffffffffff168273ffffffffffffffffffffffffffffffffffffffff161415612600576040517f08c379a00000000000000000000000000000000000000000000000000000000081526004016125f7906134c8565b60405180910390fd5b61260981611684565b15612649576040517f08c379a000000000000000000000000000000000000000000000000000000000815260040161264090613408565b60405180910390fd5b6126556000838361276a565b6001600360008473ffffffffffffffffffffffffffffffffffffffff1673ffffffffffffffffffffffffffffffffffffffff16815260200190815260200160002060008282546126a59190613665565b92505081905550816002600083815260200190815260200160002060006101000a81548173ffffffffffffffffffffffffffffffffffffffff021916908373ffffffffffffffffffffffffffffffffffffffff160217905550808273ffffffffffffffffffffffffffffffffffffffff16600073ffffffffffffffffffffffffffffffffffffffff167fddf252ad1be2c89b69c2b068fc378daa952ba7f163c4a11628f55a4df523b3ef60405160405180910390a46127666000838361276f565b5050565b505050565b505050565b60006127958473ffffffffffffffffffffffffffffffffffffffff1661290b565b156128fe578373ffffffffffffffffffffffffffffffffffffffff1663150b7a026127be6117a2565b8786866040518563ffffffff1660e01b81526004016127e0949392919061326e565b602060405180830381600087803b1580156127fa57600080fd5b505af192505050801561282b57506040513d601f19601f820116820180604052508101906128289190612d9e565b60015b6128ae573d806000811461285b576040519150601f19603f3d011682016040523d82523d6000602084013e612860565b606091505b506000815114156128a6576040517f08c379a000000000000000000000000000000000000000000000000000000000815260040161289d906133a8565b60405180910390fd5b805181602001fd5b63150b7a0260e01b7bffffffffffffffffffffffffffffffffffffffffffffffffffffffff1916817bffffffffffffffffffffffffffffffffffffffffffffffffffffffff191614915050612903565b600190505b949350505050565b6000808273ffffffffffffffffffffffffffffffffffffffff163b119050919050565b82805461293a9061383a565b90600052602060002090601f01602090048101928261295c57600085556129a3565b82601f1061297557803560ff19168380011785556129a3565b828001600101855582156129a3579182015b828111156129a2578235825591602001919060010190612987565b5b5090506129b091906129b4565b5090565b5b808211156129cd5760008160009055506001016129b5565b5090565b60006129e46129df846135f1565b6135cc565b9050828152602081018484840111156129fc57600080fd5b612a078482856137f8565b509392505050565b600081359050612a1e81613ded565b92915050565b600081519050612a3381613ded565b92915050565b600081359050612a4881613e04565b92915050565b600081519050612a5d81613e1b565b92915050565b600081359050612a7281613e32565b92915050565b600081519050612a8781613e32565b92915050565b600082601f830112612a9e57600080fd5b8135612aae8482602086016129d1565b91505092915050565b600081359050612ac681613e49565b92915050565b60008083601f840112612ade57600080fd5b8235905067ffffffffffffffff811115612af757600080fd5b602083019150836001820283011115612b0f57600080fd5b9250929050565b600081359050612b2581613e60565b92915050565b600081519050612b3a81613e60565b92915050565b600060208284031215612b5257600080fd5b6000612b6084828501612a0f565b91505092915050565b600060208284031215612b7b57600080fd5b6000612b8984828501612a24565b91505092915050565b60008060408385031215612ba557600080fd5b6000612bb385828601612a0f565b9250506020612bc485828601612a0f565b9150509250929050565b600080600060608486031215612be357600080fd5b6000612bf186828701612a0f565b9350506020612c0286828701612a0f565b9250506040612c1386828701612b16565b9150509250925092565b60008060008060808587031215612c3357600080fd5b6000612c4187828801612a0f565b9450506020612c5287828801612a0f565b9350506040612c6387828801612b16565b925050606085013567ffffffffffffffff811115612c8057600080fd5b612c8c87828801612a8d565b91505092959194509250565b60008060408385031215612cab57600080fd5b6000612cb985828601612a0f565b9250506020612cca85828601612a39565b9150509250929050565b60008060408385031215612ce757600080fd5b6000612cf585828601612a0f565b9250506020612d0685828601612b16565b9150509250929050565b60008060408385031215612d2357600080fd5b6000612d3185828601612a24565b9250506020612d4285828601612b2b565b9150509250929050565b600060208284031215612d5e57600080fd5b6000612d6c84828501612a4e565b91505092915050565b600060208284031215612d8757600080fd5b6000612d9584828501612a63565b91505092915050565b600060208284031215612db057600080fd5b6000612dbe84828501612a78565b91505092915050565b600060208284031215612dd957600080fd5b6000612de784828501612ab7565b91505092915050565b60008060208385031215612e0357600080fd5b600083013567ffffffffffffffff811115612e1d57600080fd5b612e2985828601612acc565b92509250509250929050565b600060208284031215612e4757600080fd5b6000612e5584828501612b16565b91505092915050565b60008060408385031215612e7157600080fd5b6000612e7f85828601612b16565b9250506020612e9085828601612a0f565b9150509250929050565b600080600060608486031215612eaf57600080fd5b6000612ebd86828701612b16565b9350506020612ece86828701612a0f565b9250506040612edf86828701612b16565b9150509250925092565b60008060408385031215612efc57600080fd5b6000612f0a85828601612b16565b9250506020612f1b85828601612b16565b9150509250929050565b612f2e81613720565b82525050565b612f3d81613732565b82525050565b612f4c8161373e565b82525050565b6000612f5d82613622565b612f678185613638565b9350612f77818560208601613807565b612f80816139d3565b840191505092915050565b612f94816137b0565b82525050565b612fa3816137d4565b82525050565b6000612fb48261362d565b612fbe8185613649565b9350612fce818560208601613807565b612fd7816139d3565b840191505092915050565b6000612fed8261362d565b612ff7818561365a565b9350613007818560208601613807565b80840191505092915050565b6000613020603283613649565b915061302b826139e4565b604082019050919050565b6000613043602683613649565b915061304e82613a33565b604082019050919050565b6000613066602583613649565b915061307182613a82565b604082019050919050565b6000613089601c83613649565b915061309482613ad1565b602082019050919050565b60006130ac602483613649565b91506130b782613afa565b604082019050919050565b60006130cf601983613649565b91506130da82613b49565b602082019050919050565b60006130f2603883613649565b91506130fd82613b72565b604082019050919050565b6000613115602a83613649565b915061312082613bc1565b604082019050919050565b6000613138602983613649565b915061314382613c10565b604082019050919050565b600061315b602083613649565b915061316682613c5f565b602082019050919050565b600061317e602c83613649565b915061318982613c88565b604082019050919050565b60006131a1602083613649565b91506131ac82613cd7565b602082019050919050565b60006131c4602f83613649565b91506131cf82613d00565b604082019050919050565b60006131e7602183613649565b91506131f282613d4f565b604082019050919050565b600061320a603183613649565b915061321582613d9e565b604082019050919050565b613229816137a6565b82525050565b600061323b8285612fe2565b91506132478284612fe2565b91508190509392505050565b60006020820190506132686000830184612f25565b92915050565b60006080820190506132836000830187612f25565b6132906020830186612f25565b61329d6040830185613220565b81810360608301526132af8184612f52565b905095945050505050565b60006040820190506132cf6000830185612f25565b6132dc6020830184613220565b9392505050565b60006020820190506132f86000830184612f34565b92915050565b60006020820190506133136000830184612f43565b92915050565b600060608201905061332e6000830186612f43565b61333b6020830185612f43565b6133486040830184612f25565b949350505050565b60006020820190506133656000830184612f8b565b92915050565b60006020820190506133806000830184612f9a565b92915050565b600060208201905081810360008301526133a08184612fa9565b905092915050565b600060208201905081810360008301526133c181613013565b9050919050565b600060208201905081810360008301526133e181613036565b9050919050565b6000602082019050818103600083015261340181613059565b9050919050565b600060208201905081810360008301526134218161307c565b9050919050565b600060208201905081810360008301526134418161309f565b9050919050565b60006020820190508181036000830152613461816130c2565b9050919050565b60006020820190508181036000830152613481816130e5565b9050919050565b600060208201905081810360008301526134a181613108565b9050919050565b600060208201905081810360008301526134c18161312b565b9050919050565b600060208201905081810360008301526134e18161314e565b9050919050565b6000602082019050818103600083015261350181613171565b9050919050565b6000602082019050818103600083015261352181613194565b9050919050565b60006020820190508181036000830152613541816131b7565b9050919050565b60006020820190508181036000830152613561816131da565b9050919050565b60006020820190508181036000830152613581816131fd565b9050919050565b600060208201905061359d6000830184613220565b92915050565b60006040820190506135b86000830185613220565b6135c56020830184613220565b9392505050565b60006135d66135e7565b90506135e2828261386c565b919050565b6000604051905090565b600067ffffffffffffffff82111561360c5761360b6139a4565b5b613615826139d3565b9050602081019050919050565b600081519050919050565b600081519050919050565b600082825260208201905092915050565b600082825260208201905092915050565b600081905092915050565b6000613670826137a6565b915061367b836137a6565b9250827fffffffffffffffffffffffffffffffffffffffffffffffffffffffffffffffff038211156136b0576136af613917565b5b828201905092915050565b60006136c6826137a6565b91506136d1836137a6565b9250826136e1576136e0613946565b5b828204905092915050565b60006136f7826137a6565b9150613702836137a6565b92508282101561371557613714613917565b5b828203905092915050565b600061372b82613786565b9050919050565b60008115159050919050565b6000819050919050565b60007fffffffff0000000000000000000000000000000000000000000000000000000082169050919050565b600061377f82613720565b9050919050565b600073ffffffffffffffffffffffffffffffffffffffff82169050919050565b6000819050919050565b60006137bb826137c2565b9050919050565b60006137cd82613786565b9050919050565b60006137df826137e6565b9050919050565b60006137f182613786565b9050919050565b82818337600083830152505050565b60005b8381101561382557808201518184015260208101905061380a565b83811115613834576000848401525b50505050565b6000600282049050600182168061385257607f821691505b6020821081141561386657613865613975565b5b50919050565b613875826139d3565b810181811067ffffffffffffffff82111715613894576138936139a4565b5b80604052505050565b60006138a8826137a6565b91507fffffffffffffffffffffffffffffffffffffffffffffffffffffffffffffffff8214156138db576138da613917565b5b600182019050919050565b60006138f1826137a6565b91506138fc836137a6565b92508261390c5761390b613946565b5b828206905092915050565b7f4e487b7100000000000000000000000000000000000000000000000000000000600052601160045260246000fd5b7f4e487b7100000000000000000000000000000000000000000000000000000000600052601260045260246000fd5b7f4e487b7100000000000000000000000000000000000000000000000000000000600052602260045260246000fd5b7f4e487b7100000000000000000000000000000000000000000000000000000000600052604160045260246000fd5b6000601f19601f8301169050919050565b7f4552433732313a207472616e7366657220746f206e6f6e20455243373231526560008201527f63656976657220696d706c656d656e7465720000000000000000000000000000602082015250565b7f4f776e61626c653a206e6577206f776e657220697320746865207a65726f206160008201527f6464726573730000000000000000000000000000000000000000000000000000602082015250565b7f4552433732313a207472616e736665722066726f6d20696e636f72726563742060008201527f6f776e6572000000000000000000000000000000000000000000000000000000602082015250565b7f4552433732313a20746f6b656e20616c7265616479206d696e74656400000000600082015250565b7f4552433732313a207472616e7366657220746f20746865207a65726f2061646460008201527f7265737300000000000000000000000000000000000000000000000000000000602082015250565b7f4552433732313a20617070726f766520746f2063616c6c657200000000000000600082015250565b7f4552433732313a20617070726f76652063616c6c6572206973206e6f74206f7760008201527f6e6572206e6f7220617070726f76656420666f7220616c6c0000000000000000602082015250565b7f4552433732313a2062616c616e636520717565727920666f7220746865207a6560008201527f726f206164647265737300000000000000000000000000000000000000000000602082015250565b7f4552433732313a206f776e657220717565727920666f72206e6f6e657869737460008201527f656e7420746f6b656e0000000000000000000000000000000000000000000000602082015250565b7f4552433732313a206d696e7420746f20746865207a65726f2061646472657373600082015250565b7f4552433732313a20617070726f76656420717565727920666f72206e6f6e657860008201527f697374656e7420746f6b656e0000000000000000000000000000000000000000602082015250565b7f4f776e61626c653a2063616c6c6572206973206e6f7420746865206f776e6572600082015250565b7f4552433732314d657461646174613a2055524920717565727920666f72206e6f60008201527f6e6578697374656e7420746f6b656e0000000000000000000000000000000000602082015250565b7f4552433732313a20617070726f76616c20746f2063757272656e74206f776e6560008201527f7200000000000000000000000000000000000000000000000000000000000000602082015250565b7f4552433732313a207472616e736665722063616c6c6572206973206e6f74206f60008201527f776e6572206e6f7220617070726f766564000000000000000000000000000000602082015250565b613df681613720565b8114613e0157600080fd5b50565b613e0d81613732565b8114613e1857600080fd5b50565b613e248161373e565b8114613e2f57600080fd5b50565b613e3b81613748565b8114613e4657600080fd5b50565b613e5281613774565b8114613e5d57600080fd5b50565b613e69816137a6565b8114613e7457600080fd5b5056fea2646970667358221220e99d110cc740d0fc1262b8942db28250a1201b3d98c541bcc51e2a83da2e4e4164736f6c63430008040033",
  "linkReferences": {},
  "deployedLinkReferences": {}
}