{
  "_format": "hh-sol-artifact-1",
  "contractName": "FidMarketplaceV3",
  "sourceName": "contracts/FidMarketplace.sol",
  "abi": [
    {
      "inputs": [
        {
          "internalType": "uint256",
          "name": "version",
          "type": "uint256"
        }
      ],
      "stateMutability": "nonpayable",
      "type": "constructor"
    },
    {
      "anonymous": false,
      "inputs": [
        {
          "indexed": false,
          "internalType": "address",
          "name": "previousAdmin",
          "type": "address"
        },
        {
          "indexed": false,
          "internalType": "address",
          "name": "newAdmin",
          "type": "address"
        }
      ],
      "name": "AdminChanged",
      "type": "event"
    },
    {
      "anonymous": false,
      "inputs": [
        {
          "indexed": true,
          "internalType": "address",
          "name": "beacon",
          "type": "address"
        }
      ],
      "name": "BeaconUpgraded",
      "type": "event"
    },
    {
      "anonymous": false,
      "inputs": [
        {
          "indexed": true,
          "internalType": "uint256",
          "name": "fid",
          "type": "uint256"
        },
        {
          "indexed": true,
          "internalType": "address",
          "name": "buyer",
          "type": "address"
        },
        {
          "indexed": false,
          "internalType": "uint256",
          "name": "amount",
          "type": "uint256"
        },
        {
          "indexed": true,
          "internalType": "address",
          "name": "owner",
          "type": "address"
        }
      ],
      "name": "Bought",
      "type": "event"
    },
    {
      "anonymous": false,
      "inputs": [
        {
          "indexed": true,
          "internalType": "uint256",
          "name": "fid",
          "type": "uint256"
        }
      ],
      "name": "Canceled",
      "type": "event"
    },
    {
      "anonymous": false,
      "inputs": [
        {
          "indexed": false,
          "internalType": "uint8",
          "name": "version",
          "type": "uint8"
        }
      ],
      "name": "Initialized",
      "type": "event"
    },
    {
      "anonymous": false,
      "inputs": [
        {
          "indexed": true,
          "internalType": "uint256",
          "name": "fid",
          "type": "uint256"
        },
        {
          "indexed": true,
          "internalType": "address",
          "name": "owner",
          "type": "address"
        },
        {
          "indexed": true,
          "internalType": "address",
          "name": "proxyContract",
          "type": "address"
        },
        {
          "indexed": false,
          "internalType": "uint256",
          "name": "amount",
          "type": "uint256"
        },
        {
          "indexed": false,
          "internalType": "uint256",
          "name": "deadline",
          "type": "uint256"
        }
      ],
      "name": "Listed",
      "type": "event"
    },
    {
      "anonymous": false,
      "inputs": [
        {
          "indexed": true,
          "internalType": "address",
          "name": "owner",
          "type": "address"
        },
        {
          "indexed": true,
          "internalType": "uint256",
          "name": "fid",
          "type": "uint256"
        },
        {
          "indexed": true,
          "internalType": "address",
          "name": "buyer",
          "type": "address"
        },
        {
          "indexed": false,
          "internalType": "uint256",
          "name": "amount",
          "type": "uint256"
        }
      ],
      "name": "OfferApproved",
      "type": "event"
    },
    {
      "anonymous": false,
      "inputs": [
        {
          "indexed": true,
          "internalType": "uint256",
          "name": "fid",
          "type": "uint256"
        },
        {
          "indexed": true,
          "internalType": "address",
          "name": "buyer",
          "type": "address"
        }
      ],
      "name": "OfferCanceled",
      "type": "event"
    },
    {
      "anonymous": false,
      "inputs": [
        {
          "indexed": true,
          "internalType": "uint256",
          "name": "fid",
          "type": "uint256"
        },
        {
          "indexed": true,
          "internalType": "address",
          "name": "buyer",
          "type": "address"
        },
        {
          "indexed": false,
          "internalType": "uint256",
          "name": "amount",
          "type": "uint256"
        },
        {
          "indexed": false,
          "internalType": "uint256",
          "name": "deadline",
          "type": "uint256"
        }
      ],
      "name": "OfferMade",
      "type": "event"
    },
    {
      "anonymous": false,
      "inputs": [
        {
          "indexed": true,
          "internalType": "address",
          "name": "implementation",
          "type": "address"
        }
      ],
      "name": "Upgraded",
      "type": "event"
    },
    {
      "inputs": [],
      "name": "_owner",
      "outputs": [
        {
          "internalType": "address",
          "name": "",
          "type": "address"
        }
      ],
      "stateMutability": "view",
      "type": "function"
    },
    {
      "inputs": [
        {
          "internalType": "uint256",
          "name": "fid",
          "type": "uint256"
        },
        {
          "internalType": "address",
          "name": "buyer",
          "type": "address"
        },
        {
          "internalType": "uint256",
          "name": "deadline",
          "type": "uint256"
        },
        {
          "internalType": "bytes",
          "name": "ownerSig",
          "type": "bytes"
        }
      ],
      "name": "approveOffer",
      "outputs": [],
      "stateMutability": "nonpayable",
      "type": "function"
    },
    {
      "inputs": [
        {
          "internalType": "uint256",
          "name": "fid",
          "type": "uint256"
        },
        {
          "internalType": "address",
          "name": "to",
          "type": "address"
        },
        {
          "internalType": "uint256",
          "name": "toDeadline",
          "type": "uint256"
        },
        {
          "internalType": "bytes",
          "name": "toSig",
          "type": "bytes"
        }
      ],
      "name": "buy",
      "outputs": [],
      "stateMutability": "payable",
      "type": "function"
    },
    {
      "inputs": [
        {
          "internalType": "uint256",
          "name": "fid",
          "type": "uint256"
        }
      ],
      "name": "cancelListing",
      "outputs": [],
      "stateMutability": "nonpayable",
      "type": "function"
    },
    {
      "inputs": [
        {
          "internalType": "uint256",
          "name": "fid",
          "type": "uint256"
        }
      ],
      "name": "cancelOffer",
      "outputs": [],
      "stateMutability": "nonpayable",
      "type": "function"
    },
    {
      "inputs": [
        {
          "internalType": "uint256",
          "name": "_commissionPercentage",
          "type": "uint256"
        }
      ],
      "name": "changeCommission",
      "outputs": [],
      "stateMutability": "nonpayable",
      "type": "function"
    },
    {
      "inputs": [
        {
          "internalType": "address",
          "name": "_idRegistry",
          "type": "address"
        }
      ],
      "name": "changeIdRegistry",
      "outputs": [],
      "stateMutability": "nonpayable",
      "type": "function"
    },
    {
      "inputs": [
        {
          "internalType": "address",
          "name": "anOwner",
          "type": "address"
        }
      ],
      "name": "changeOwnership",
      "outputs": [],
      "stateMutability": "nonpayable",
      "type": "function"
    },
    {
      "inputs": [],
      "name": "commissionPercentage",
      "outputs": [
        {
          "internalType": "uint256",
          "name": "",
          "type": "uint256"
        }
      ],
      "stateMutability": "view",
      "type": "function"
    },
    {
      "inputs": [
        {
          "internalType": "address",
          "name": "owner",
          "type": "address"
        },
        {
          "internalType": "uint256",
          "name": "salt",
          "type": "uint256"
        }
      ],
      "name": "getAddress",
      "outputs": [
        {
          "internalType": "address",
          "name": "",
          "type": "address"
        }
      ],
      "stateMutability": "view",
      "type": "function"
    },
    {
      "inputs": [
        {
          "internalType": "uint256",
          "name": "fid",
          "type": "uint256"
        },
        {
          "internalType": "address",
          "name": "buyer",
          "type": "address"
        }
      ],
      "name": "getOffer",
      "outputs": [
        {
          "components": [
            {
              "internalType": "uint256",
              "name": "amount",
              "type": "uint256"
            },
            {
              "internalType": "bytes",
              "name": "signature",
              "type": "bytes"
            },
            {
              "internalType": "uint256",
              "name": "deadline",
              "type": "uint256"
            }
          ],
          "internalType": "struct FidMarketplaceV3.Offer",
          "name": "",
          "type": "tuple"
        }
      ],
      "stateMutability": "view",
      "type": "function"
    },
    {
      "inputs": [],
      "name": "idRegistry",
      "outputs": [
        {
          "internalType": "contract IIdRegistry",
          "name": "",
          "type": "address"
        }
      ],
      "stateMutability": "view",
      "type": "function"
    },
    {
      "inputs": [
        {
          "internalType": "address",
          "name": "anOwner",
          "type": "address"
        },
        {
          "internalType": "uint256",
          "name": "_commissionPercentage",
          "type": "uint256"
        },
        {
          "internalType": "address",
          "name": "_wethAddress",
          "type": "address"
        },
        {
          "internalType": "address",
          "name": "_idRegistry",
          "type": "address"
        }
      ],
      "name": "initialize",
      "outputs": [],
      "stateMutability": "nonpayable",
      "type": "function"
    },
    {
      "inputs": [
        {
          "internalType": "bytes32",
          "name": "hash",
          "type": "bytes32"
        },
        {
          "internalType": "bytes",
          "name": "signature",
          "type": "bytes"
        }
      ],
      "name": "isValidSignature",
      "outputs": [
        {
          "internalType": "bytes4",
          "name": "magicValue",
          "type": "bytes4"
        }
      ],
      "stateMutability": "view",
      "type": "function"
    },
    {
      "inputs": [
        {
          "internalType": "address",
          "name": "owner",
          "type": "address"
        },
        {
          "internalType": "uint256",
          "name": "salt",
          "type": "uint256"
        },
        {
          "internalType": "bytes",
          "name": "ownerSignature",
          "type": "bytes"
        },
        {
          "internalType": "uint256",
          "name": "minFee",
          "type": "uint256"
        },
        {
          "internalType": "uint256",
          "name": "deadline",
          "type": "uint256"
        }
      ],
      "name": "list",
      "outputs": [
        {
          "internalType": "contract FidMarketplaceV1Proxy",
          "name": "ret",
          "type": "address"
        }
      ],
      "stateMutability": "nonpayable",
      "type": "function"
    },
    {
      "inputs": [
        {
          "internalType": "bytes",
          "name": "ownerSignature",
          "type": "bytes"
        },
        {
          "internalType": "uint256",
          "name": "minFee",
          "type": "uint256"
        },
        {
          "internalType": "uint256",
          "name": "deadline",
          "type": "uint256"
        }
      ],
      "name": "listWithoutProxy",
      "outputs": [],
      "stateMutability": "nonpayable",
      "type": "function"
    },
    {
      "inputs": [
        {
          "internalType": "uint256",
          "name": "",
          "type": "uint256"
        }
      ],
      "name": "listings",
      "outputs": [
        {
          "internalType": "uint256",
          "name": "minFee",
          "type": "uint256"
        },
        {
          "internalType": "bytes",
          "name": "ownerSignature",
          "type": "bytes"
        },
        {
          "internalType": "uint256",
          "name": "deadline",
          "type": "uint256"
        },
        {
          "internalType": "address",
          "name": "owner",
          "type": "address"
        }
      ],
      "stateMutability": "view",
      "type": "function"
    },
    {
      "inputs": [
        {
          "internalType": "uint256",
          "name": "fid",
          "type": "uint256"
        },
        {
          "internalType": "uint256",
          "name": "amount",
          "type": "uint256"
        },
        {
          "internalType": "uint256",
          "name": "deadline",
          "type": "uint256"
        },
        {
          "internalType": "bytes",
          "name": "signature",
          "type": "bytes"
        }
      ],
      "name": "offer",
      "outputs": [],
      "stateMutability": "nonpayable",
      "type": "function"
    },
    {
      "inputs": [
        {
          "internalType": "uint256",
          "name": "",
          "type": "uint256"
        },
        {
          "internalType": "address",
          "name": "",
          "type": "address"
        }
      ],
      "name": "offers",
      "outputs": [
        {
          "internalType": "uint256",
          "name": "amount",
          "type": "uint256"
        },
        {
          "internalType": "bytes",
          "name": "signature",
          "type": "bytes"
        },
        {
          "internalType": "uint256",
          "name": "deadline",
          "type": "uint256"
        }
      ],
      "stateMutability": "view",
      "type": "function"
    },
    {
      "inputs": [],
      "name": "owner",
      "outputs": [
        {
          "internalType": "address",
          "name": "",
          "type": "address"
        }
      ],
      "stateMutability": "view",
      "type": "function"
    },
    {
      "inputs": [],
      "name": "proxiableUUID",
      "outputs": [
        {
          "internalType": "bytes32",
          "name": "",
          "type": "bytes32"
        }
      ],
      "stateMutability": "view",
      "type": "function"
    },
    {
      "inputs": [
        {
          "internalType": "address",
          "name": "newImplementation",
          "type": "address"
        }
      ],
      "name": "upgradeTo",
      "outputs": [],
      "stateMutability": "nonpayable",
      "type": "function"
    },
    {
      "inputs": [
        {
          "internalType": "address",
          "name": "newImplementation",
          "type": "address"
        },
        {
          "internalType": "bytes",
          "name": "data",
          "type": "bytes"
        }
      ],
      "name": "upgradeToAndCall",
      "outputs": [],
      "stateMutability": "payable",
      "type": "function"
    },
    {
      "inputs": [
        {
          "internalType": "uint256",
          "name": "fid",
          "type": "uint256"
        },
        {
          "internalType": "address",
          "name": "signer",
          "type": "address"
        },
        {
          "internalType": "address",
          "name": "to",
          "type": "address"
        },
        {
          "internalType": "uint256",
          "name": "deadline",
          "type": "uint256"
        },
        {
          "internalType": "bytes",
          "name": "sig",
          "type": "bytes"
        }
      ],
      "name": "verifyListSig",
      "outputs": [
        {
          "internalType": "bool",
          "name": "isValid",
          "type": "bool"
        }
      ],
      "stateMutability": "view",
      "type": "function"
    },
    {
      "inputs": [],
      "name": "weth",
      "outputs": [
        {
          "internalType": "contract IERC20",
          "name": "",
          "type": "address"
        }
      ],
      "stateMutability": "view",
      "type": "function"
    },
    {
      "inputs": [],
      "name": "withdraw",
      "outputs": [],
      "stateMutability": "nonpayable",
      "type": "function"
    },
    {
      "stateMutability": "payable",
      "type": "receive"
    }
  ],
  "bytecode": "0x60a0604052306080523480156200001557600080fd5b5060405162004e0e38038062004e0e833981016040819052620000389162000114565b60018111156200004c576200004c62000053565b506200012e565b600054610100900460ff1615620000c05760405162461bcd60e51b815260206004820152602760248201527f496e697469616c697a61626c653a20636f6e747261637420697320696e697469604482015266616c697a696e6760c81b606482015260840160405180910390fd5b60005460ff9081161462000112576000805460ff191660ff9081179091556040519081527f7f26b83ff96e1f2b6a682f133852f6798a09c465da95921460cefb38474024989060200160405180910390a15b565b6000602082840312156200012757600080fd5b5051919050565b608051614ca862000166600039600081816108b6015281816108f901528181610dbe01528181610e010152610e9d0152614ca86000f3fe608060405260043610620001a55760003560e01c8063560a285211620000e2578063b8fd9e651162000095578063de74e57b116200006c578063de74e57b1462000505578063df922f3a146200053c578063ebdfbce51462000561578063ef706adf146200059757600080fd5b8063b8fd9e651462000494578063b9520ce414620004b9578063d575fe6414620004ed57600080fd5b8063560a285214620003be5780638cb84e1814620003d55780638da5cb5b14620003fa57806390c7c0ec1462000421578063a8d5fc501462000446578063b2bdfa7b146200046b57600080fd5b80633659cfe611620001585780633fc8cef3116200012f5780633fc8cef31462000328578063468a1235146200034a5780634f1ef286146200038057806352d1902d146200039757600080fd5b80633659cfe614620002c657806338c2bab314620002eb5780633ccfd60b146200031057600080fd5b80630aa13b8c14620001b25780631626ba7e14620001f157806320a57b4814620002305780632af4c31e1462000257578063305a67a8146200027c578063358394d814620002a157600080fd5b36620001ad57005b600080fd5b348015620001bf57600080fd5b50600554620001d4906001600160a01b031681565b6040516001600160a01b0390911681526020015b60405180910390f35b348015620001fe57600080fd5b50620002166200021036600462002704565b620005bc565b6040516001600160e01b03199091168152602001620001e8565b3480156200023d57600080fd5b50620002556200024f3660046200276c565b62000629565b005b3480156200026457600080fd5b5062000255620002763660046200276c565b62000655565b3480156200028957600080fd5b50620002556200029b3660046200278a565b6200068b565b348015620002ae57600080fd5b5062000255620002c0366004620027a4565b62000741565b348015620002d357600080fd5b5062000255620002e53660046200276c565b620008ac565b348015620002f857600080fd5b50620002556200030a3660046200283d565b62000997565b3480156200031d57600080fd5b506200025562000b4e565b3480156200033557600080fd5b50600454620001d4906001600160a01b031681565b3480156200035757600080fd5b506200036f6200036936600462002892565b62000b92565b6040519015158152602001620001e8565b620002556200039136600462002912565b62000db4565b348015620003a457600080fd5b50620003af62000e90565b604051908152602001620001e8565b62000255620003cf3660046200294e565b62000f46565b348015620003e257600080fd5b50620001d4620003f4366004620029b5565b620011a6565b3480156200040757600080fd5b50600054630100000090046001600160a01b0316620001d4565b3480156200042e57600080fd5b506200025562000440366004620029e2565b62001249565b3480156200045357600080fd5b50620001d46200046536600462002a50565b6200163e565b3480156200047857600080fd5b50600054620001d490630100000090046001600160a01b031681565b348015620004a157600080fd5b5062000255620004b336600462002ac2565b6200184c565b348015620004c657600080fd5b50620004de620004d836600462002b08565b6200196c565b604051620001e8919062002b8b565b348015620004fa57600080fd5b50620003af60035481565b3480156200051257600080fd5b506200052a620005243660046200278a565b62001a6f565b604051620001e8949392919062002bc9565b3480156200054957600080fd5b50620002556200055b3660046200278a565b62001b32565b3480156200056e57600080fd5b50620005866200058036600462002b08565b62001b41565b604051620001e89392919062002c05565b348015620005a457600080fd5b5062000255620005b63660046200278a565b62001bfb565b600080548190620005df90630100000090046001600160a01b0316858562001c9f565b60005490915062010000900460ff1615156001148180620005fd5750805b15620006165750630b135d3f60e11b9150620006239050565b5060009150620006239050565b92915050565b6200063362001d09565b600580546001600160a01b0319166001600160a01b0392909216919091179055565b6200065f62001d09565b600080546001600160a01b039092166301000000026301000000600160b81b0319909216919091179055565b6000818152600260205260409020600301546001600160a01b03163314620007085760405162461bcd60e51b815260206004820152602560248201527f4f6e6c7920746865206f776e65722063616e2063616e63656c20746865206c696044820152647374696e6760d81b60648201526084015b60405180910390fd5b620007138162001d66565b60405181907f829a8683c544ad289ce92d3ce06e9ebad69b18a6916e60ec766c2c217461d8e990600090a250565b600054610100900460ff1615808015620007625750600054600160ff909116105b806200077e5750303b1580156200077e575060005460ff166001145b620007e35760405162461bcd60e51b815260206004820152602e60248201527f496e697469616c697a61626c653a20636f6e747261637420697320616c72656160448201526d191e481a5b9a5d1a585b1a5e995960921b6064820152608401620006ff565b6000805460ff19166001179055801562000807576000805461ff0019166101001790555b600080546003869055600480546001600160a01b038781166001600160a01b03199283161790925560058054878416921691909117905562ff0000199088166301000000021662010000600160b81b03199091161790558015620008a5576000805461ff0019169055604051600181527f7f26b83ff96e1f2b6a682f133852f6798a09c465da95921460cefb38474024989060200160405180910390a15b5050505050565b6001600160a01b037f0000000000000000000000000000000000000000000000000000000000000000163003620008f75760405162461bcd60e51b8152600401620006ff9062002c30565b7f00000000000000000000000000000000000000000000000000000000000000006001600160a01b03166200094260008051602062004c2c833981519152546001600160a01b031690565b6001600160a01b0316146200096b5760405162461bcd60e51b8152600401620006ff9062002c7c565b620009768162001da3565b60408051600080825260208201909252620009949183919062001dad565b50565b600554604051636ca7f41960e11b81523360048201526000916001600160a01b03169063d94fe83290602401602060405180830381865afa158015620009e1573d6000803e3d6000fd5b505050506040513d601f19601f8201168201806040525081019062000a07919062002cc8565b905062000a1981333085898962000b92565b62000a5b5760405162461bcd60e51b8152602060048201526011602482015270496e76616c6964207369676e617475726560781b6044820152606401620006ff565b604051806080016040528084815260200186868080601f0160208091040260200160405190810160405280939291908181526020018383808284376000920182905250938552505050602080830186905233604093840152848252600281529190208251815590820151600182019062000ad6908262002d70565b506040828101516002830155606090920151600390910180546001600160a01b0319166001600160a01b039092169190911790558051848152602081018490523091339184917f723f73331eaee88eec7fc68ef60ab6ed15e4b90d0472b55eb92fa43910bab6dd910160405180910390a45050505050565b600080546040516001600160a01b03630100000090920491909116914780156108fc02929091818181858888f1935050505015801562000994573d6000803e3d6000fd5b60055460408051622fc9bd60e21b8152905160009283926001600160a01b0390911691634980f28891839162bf26f4916004808201926020929091908290030181865afa15801562000be8573d6000803e3d6000fd5b505050506040513d601f19601f8201168201806040525081019062000c0e919062002cc8565b600554604051623f675f60e91b81526001600160a01b038c811660048301528d928c92911690637ecebe0090602401602060405180830381865afa15801562000c5b573d6000803e3d6000fd5b505050506040513d601f19601f8201168201806040525081019062000c81919062002cc8565b6040805160208101959095528401929092526001600160a01b03166060830152608082015260a0810188905260c001604051602081830303815290604052805190602001206040518263ffffffff1660e01b815260040162000ce591815260200190565b602060405180830381865afa15801562000d03573d6000803e3d6000fd5b505050506040513d601f19601f8201168201806040525081019062000d29919062002cc8565b60055460405163032faac760e41b81529192506001600160a01b0316906332faac709062000d64908a908c9086908a908a9060040162002e66565b602060405180830381865afa15801562000d82573d6000803e3d6000fd5b505050506040513d601f19601f8201168201806040525081019062000da8919062002ea1565b98975050505050505050565b6001600160a01b037f000000000000000000000000000000000000000000000000000000000000000016300362000dff5760405162461bcd60e51b8152600401620006ff9062002c30565b7f00000000000000000000000000000000000000000000000000000000000000006001600160a01b031662000e4a60008051602062004c2c833981519152546001600160a01b031690565b6001600160a01b03161462000e735760405162461bcd60e51b8152600401620006ff9062002c7c565b62000e7e8262001da3565b62000e8c8282600162001dad565b5050565b6000306001600160a01b037f0000000000000000000000000000000000000000000000000000000000000000161462000f325760405162461bcd60e51b815260206004820152603860248201527f555550535570677261646561626c653a206d757374206e6f742062652063616c60448201527f6c6564207468726f7567682064656c656761746563616c6c00000000000000006064820152608401620006ff565b5060008051602062004c2c83398151915290565b60008481526002602052604090205462000f8f5760405162461bcd60e51b8152602060048201526009602482015268139bdd131a5cdd195960ba1b6044820152606401620006ff565b60005462010000900460ff161562000fde5760405162461bcd60e51b8152602060048201526011602482015270416c726561647950726f63657373696e6760781b6044820152606401620006ff565b60008481526002602052604090206003810154905462001008916001600160a01b03169062001f2a565b600084815260026020819052604090912060038101549181015460019091018054620010d0936001600160a01b0316929190620010459062002ce2565b80601f0160208091040260200160405190810160405280929190818152602001828054620010739062002ce2565b8015620010c45780601f106200109857610100808354040283529160200191620010c4565b820191906000526020600020905b815481529060010190602001808311620010a657829003601f168201915b50505050508662002044565b600554604051635f22feb160e11b81526001600160a01b039091169063be45fd6290620011069086908690869060040162002ec5565b600060405180830381600087803b1580156200112157600080fd5b505af115801562001136573d6000803e3d6000fd5b50505050620011458462001d66565b826001600160a01b0316336001600160a01b0316857f7895bd4ff6323b874827e7c09827afb49db435ec423c8487977702687b53fc49346040516200118c91815260200190565b60405180910390a450506000805462ff0000191690555050565b600554604080516001600160a01b038086166020830152309282019290925291166060820152600090819060800160408051601f19818403018152908290529150839062001240908290620011fe60208201620025f7565b601f1982820381018352601f909101166040819052620012249190869060200162002eee565b604051602081830303815290604052805190602001206200211b565b95945050505050565b60008581526001602090815260408083206001600160a01b038816845290915290208054620012b15760405162461bcd60e51b81526020600482015260136024820152724e6f206f6666657220746f20617070726f766560681b6044820152606401620006ff565b60005462010000900460ff1615620013005760405162461bcd60e51b8152602060048201526011602482015270416c726561647950726f63657373696e6760781b6044820152606401620006ff565b600554604051636ca7f41960e11b815233600482015287916001600160a01b03169063d94fe83290602401602060405180830381865afa15801562001349573d6000803e3d6000fd5b505050506040513d601f19601f820116820180604052508101906200136f919062002cc8565b14620013ca5760405162461bcd60e51b8152602060048201526024808201527f4f6e6c7920746865206f776e65722063616e20617070726f766520746865206f604482015263333332b960e11b6064820152608401620006ff565b6000805462ff00001916620100001781556003548254606491620013ee9162002f37565b620013fa919062002f51565b600480546040516323b872dd60e01b81526001600160a01b038a8116938201939093523060248201526044810184905292935016906323b872dd906064016020604051808303816000875af115801562001458573d6000803e3d6000fd5b505050506040513d601f19601f820116820180604052508101906200147e919062002ea1565b5060045482546001600160a01b03909116906323b872dd9088903390620014a790869062002f74565b6040516001600160e01b031960e086901b1681526001600160a01b03938416600482015292909116602483015260448201526064016020604051808303816000875af1158015620014fc573d6000803e3d6000fd5b505050506040513d601f19601f8201168201806040525081019062001522919062002ea1565b5062001568338686868080601f0160208091040260200160405190810160405280939291908181526020018383808284376000920191909152508c925062002044915050565b6005546002830154604051635f22feb160e11b81526001600160a01b039092169163be45fd6291620015a5918a9190600188019060040162002f8a565b600060405180830381600087803b158015620015c057600080fd5b505af1158015620015d5573d6000803e3d6000fd5b50505050620015e5878762002131565b81546040519081526001600160a01b03871690889033907f7ed5731d9f2375d2bfbb722591b0b1c4bedf36d9a09d575bef96069a13ea737f9060200160405180910390a450506000805462ff0000191690555050505050565b600085816200164e8983620011a6565b600554604051636ca7f41960e11b81526001600160a01b038c811660048301529293506000929091169063d94fe83290602401602060405180830381865afa1580156200169f573d6000803e3d6000fd5b505050506040513d601f19601f82011682018060405250810190620016c5919062002cc8565b9050620016d7818b84888c8c62000b92565b620017195760405162461bcd60e51b8152602060048201526011602482015270496e76616c6964207369676e617475726560781b6044820152606401620006ff565b60055460405184918c9130916001600160a01b0316906200173a90620025f7565b6001600160a01b039384168152918316602083015290911660408201526060018190604051809103906000f59050801580156200177b573d6000803e3d6000fd5b5060405163722a5fc160e01b81529094506001600160a01b0385169063722a5fc190620017b3908b908b908a908c9060040162003034565b600060405180830381600087803b158015620017ce57600080fd5b505af1158015620017e3573d6000803e3d6000fd5b50505050836001600160a01b03168a6001600160a01b0316827f723f73331eaee88eec7fc68ef60ab6ed15e4b90d0472b55eb92fa43910bab6dd898960405162001837929190918252602082015260400190565b60405180910390a45050509695505050505050565b600084116200189e5760405162461bcd60e51b815260206004820181905260248201527f416d6f756e74206d7573742062652067726561746572207468616e207a65726f6044820152606401620006ff565b604051806060016040528085815260200183838080601f016020809104026020016040519081016040528093929190818152602001838380828437600092018290525093855250505060209182018690528781526001808352604080832033845284529091208351815591830151908201906200191c908262002d70565b5060409182015160029190910155805185815260208101859052339187917fd7df0c72641d362ea57ecc9cab99c77f936e36bb826f096258c3404196b26d6a910160405180910390a35050505050565b6200199160405180606001604052806000815260200160608152602001600081525090565b60008381526001602081815260408084206001600160a01b038716855282529283902083516060810190945280548452918201805491840191620019d59062002ce2565b80601f016020809104026020016040519081016040528092919081815260200182805462001a039062002ce2565b801562001a545780601f1062001a285761010080835404028352916020019162001a54565b820191906000526020600020905b81548152906001019060200180831162001a3657829003601f168201915b50505050508152602001600282015481525050905092915050565b6002602052600090815260409020805460018201805491929162001a939062002ce2565b80601f016020809104026020016040519081016040528092919081815260200182805462001ac19062002ce2565b801562001b125780601f1062001ae65761010080835404028352916020019162001b12565b820191906000526020600020905b81548152906001019060200180831162001af457829003601f168201915b5050505060028301546003909301549192916001600160a01b0316905084565b62001b3c62001d09565b600355565b600160208181526000938452604080852090915291835291208054918101805462001b6c9062002ce2565b80601f016020809104026020016040519081016040528092919081815260200182805462001b9a9062002ce2565b801562001beb5780601f1062001bbf5761010080835404028352916020019162001beb565b820191906000526020600020905b81548152906001019060200180831162001bcd57829003601f168201915b5050505050908060020154905083565b600081815260016020908152604080832033845290915290205462001c635760405162461bcd60e51b815260206004820181905260248201527f416d6f756e74206d7573742062652067726561746572207468616e207a65726f6044820152606401620006ff565b62001c6f813362002131565b604051339082907f9a4dfa8787b349e9b45b60504f991c5c9f9cda8dadabdc8e4a3f4cb8608220a390600090a350565b600080600062001cb0858562002174565b9092509050600081600481111562001ccc5762001ccc6200305d565b14801562001ceb5750856001600160a01b0316826001600160a01b0316145b8062001cff575062001cff868686620021bd565b9695505050505050565b600054630100000090046001600160a01b031633148062001d2957503330145b62001d645760405162461bcd60e51b815260206004820152600a60248201526937b7363c9037bbb732b960b11b6044820152606401620006ff565b565b60008181526002602052604081208181559062001d87600183018262002605565b506000600282015560030180546001600160a01b031916905550565b6200099462001d09565b7f4910fdfa16fed3260ed0e7147f7cc6da11a60208b5b9406d12a635614ffd91435460ff161562001de85762001de383620022b3565b505050565b826001600160a01b03166352d1902d6040518163ffffffff1660e01b8152600401602060405180830381865afa92505050801562001e45575060408051601f3d908101601f1916820190925262001e429181019062002cc8565b60015b62001eaa5760405162461bcd60e51b815260206004820152602e60248201527f45524331393637557067726164653a206e657720696d706c656d656e7461746960448201526d6f6e206973206e6f74205555505360901b6064820152608401620006ff565b60008051602062004c2c833981519152811462001f1c5760405162461bcd60e51b815260206004820152602960248201527f45524331393637557067726164653a20756e737570706f727465642070726f786044820152681a58589b195555525160ba1b6064820152608401620006ff565b5062001de383838362002352565b8034101562001f7c5760405162461bcd60e51b815260206004820152601760248201527f496e73756666696369656e742066756e64732073656e740000000000000000006044820152606401620006ff565b6000805462ff000019166201000017815560035460649062001f9f903462002f37565b62001fab919062002f51565b90506001600160a01b0383166108fc62001fc6838562002f74565b6040518115909202916000818181858888f1935050505015801562001fef573d6000803e3d6000fd5b50600062001ffe833462002f74565b111562001de357336108fc62002015843462002f74565b6040518115909202916000818181858888f193505050501580156200203e573d6000803e3d6000fd5b50505050565b600554604051630b7b942160e11b81526001600160a01b03909116906316f7284290620020809087903090889088908290829060040162003073565b600060405180830381600087803b1580156200209b57600080fd5b505af1158015620020b0573d6000803e3d6000fd5b5050600554604051633c7c2c8960e21b81526001600160a01b038581166004830152909116925063f1f0b2249150602401600060405180830381600087803b158015620020fc57600080fd5b505af115801562002111573d6000803e3d6000fd5b5050505050505050565b60006200212a8383306200237d565b9392505050565b60008281526001602081815260408084206001600160a01b038616855290915282208281559190620021669083018262002605565b600282016000905550505050565b6000808251604103620021ae5760208301516040840151606085015160001a620021a187828585620023a7565b94509450505050620021b6565b506000905060025b9250929050565b6000806000856001600160a01b0316631626ba7e60e01b8686604051602401620021e9929190620030cf565b60408051601f198184030181529181526020820180516001600160e01b03166001600160e01b0319909416939093179092529051620022299190620030ea565b600060405180830381855afa9150503d806000811462002266576040519150601f19603f3d011682016040523d82523d6000602084013e6200226b565b606091505b50915091508180156200228057506020815110155b801562001cff57508051630b135d3f60e11b90620022a8908301602090810190840162002cc8565b149695505050505050565b6001600160a01b0381163b620023225760405162461bcd60e51b815260206004820152602d60248201527f455243313936373a206e657720696d706c656d656e746174696f6e206973206e60448201526c1bdd08184818dbdb9d1c9858dd609a1b6064820152608401620006ff565b60008051602062004c2c83398151915280546001600160a01b0319166001600160a01b0392909216919091179055565b6200235d8362002470565b6000825111806200236b5750805b1562001de3576200203e8383620024b2565b6000604051836040820152846020820152828152600b8101905060ff815360559020949350505050565b6000807f7fffffffffffffffffffffffffffffff5d576e7357a4501ddfe92f46681b20a0831115620023e0575060009050600362002467565b6040805160008082526020820180845289905260ff881692820192909252606081018690526080810185905260019060a0016020604051602081039080840390855afa15801562002435573d6000803e3d6000fd5b5050604051601f1901519150506001600160a01b038116620024605760006001925092505062002467565b9150600090505b94509492505050565b6200247b81620022b3565b6040516001600160a01b038216907fbc7cd75a20ee27fd9adebab32041f755214dbc6bffa90cc0225b39da2e5c2d3b90600090a250565b60606200212a838360405180606001604052806027815260200162004c4c602791396060600080856001600160a01b031685604051620024f39190620030ea565b600060405180830381855af49150503d806000811462002530576040519150601f19603f3d011682016040523d82523d6000602084013e62002535565b606091505b509150915062001cff8683838760608315620025b6578251600003620025ae576001600160a01b0385163b620025ae5760405162461bcd60e51b815260206004820152601d60248201527f416464726573733a2063616c6c20746f206e6f6e2d636f6e74726163740000006044820152606401620006ff565b5081620025c2565b620025c28383620025ca565b949350505050565b815115620025db5781518083602001fd5b8060405162461bcd60e51b8152600401620006ff919062003108565b611b0e806200311e83390190565b508054620026139062002ce2565b6000825580601f1062002624575050565b601f0160209004906000526020600020908101906200099491905b808211156200265557600081556001016200263f565b5090565b634e487b7160e01b600052604160045260246000fd5b600082601f8301126200268157600080fd5b813567ffffffffffffffff808211156200269f576200269f62002659565b604051601f8301601f19908116603f01168101908282118183101715620026ca57620026ca62002659565b81604052838152866020858801011115620026e457600080fd5b836020870160208301376000602085830101528094505050505092915050565b600080604083850312156200271857600080fd5b82359150602083013567ffffffffffffffff8111156200273757600080fd5b62002745858286016200266f565b9150509250929050565b80356001600160a01b03811681146200276757600080fd5b919050565b6000602082840312156200277f57600080fd5b6200212a826200274f565b6000602082840312156200279d57600080fd5b5035919050565b60008060008060808587031215620027bb57600080fd5b620027c6856200274f565b935060208501359250620027dd604086016200274f565b9150620027ed606086016200274f565b905092959194509250565b60008083601f8401126200280b57600080fd5b50813567ffffffffffffffff8111156200282457600080fd5b602083019150836020828501011115620021b657600080fd5b600080600080606085870312156200285457600080fd5b843567ffffffffffffffff8111156200286c57600080fd5b6200287a87828801620027f8565b90989097506020870135966040013595509350505050565b60008060008060008060a08789031215620028ac57600080fd5b86359550620028be602088016200274f565b9450620028ce604088016200274f565b935060608701359250608087013567ffffffffffffffff811115620028f257600080fd5b6200290089828a01620027f8565b979a9699509497509295939492505050565b600080604083850312156200292657600080fd5b62002931836200274f565b9150602083013567ffffffffffffffff8111156200273757600080fd5b600080600080608085870312156200296557600080fd5b8435935062002977602086016200274f565b925060408501359150606085013567ffffffffffffffff8111156200299b57600080fd5b620029a9878288016200266f565b91505092959194509250565b60008060408385031215620029c957600080fd5b620029d4836200274f565b946020939093013593505050565b600080600080600060808688031215620029fb57600080fd5b8535945062002a0d602087016200274f565b935060408601359250606086013567ffffffffffffffff81111562002a3157600080fd5b62002a3f88828901620027f8565b969995985093965092949392505050565b60008060008060008060a0878903121562002a6a57600080fd5b62002a75876200274f565b955060208701359450604087013567ffffffffffffffff81111562002a9957600080fd5b62002aa789828a01620027f8565b979a9699509760608101359660809091013595509350505050565b60008060008060006080868803121562002adb57600080fd5b853594506020860135935060408601359250606086013567ffffffffffffffff81111562002a3157600080fd5b6000806040838503121562002b1c57600080fd5b8235915062002b2e602084016200274f565b90509250929050565b60005b8381101562002b5457818101518382015260200162002b3a565b50506000910152565b6000815180845262002b7781602086016020860162002b37565b601f01601f19169290920160200192915050565b6020815281516020820152600060208301516060604084015262002bb3608084018262002b5d565b9050604084015160608401528091505092915050565b84815260806020820152600062002be4608083018662002b5d565b6040830194909452506001600160a01b039190911660609091015292915050565b83815260606020820152600062002c20606083018562002b5d565b9050826040830152949350505050565b6020808252602c908201527f46756e6374696f6e206d7573742062652063616c6c6564207468726f7567682060408201526b19195b1959d85d1958d85b1b60a21b606082015260800190565b6020808252602c908201527f46756e6374696f6e206d7573742062652063616c6c6564207468726f7567682060408201526b6163746976652070726f787960a01b606082015260800190565b60006020828403121562002cdb57600080fd5b5051919050565b600181811c9082168062002cf757607f821691505b60208210810362002d1857634e487b7160e01b600052602260045260246000fd5b50919050565b601f82111562001de357600081815260208120601f850160051c8101602086101562002d475750805b601f850160051c820191505b8181101562002d685782815560010162002d53565b505050505050565b815167ffffffffffffffff81111562002d8d5762002d8d62002659565b62002da58162002d9e845462002ce2565b8462002d1e565b602080601f83116001811462002ddd576000841562002dc45750858301515b600019600386901b1c1916600185901b17855562002d68565b600085815260208120601f198616915b8281101562002e0e5788860151825594840194600190910190840162002ded565b508582101562002e2d5787850151600019600388901b60f8161c191681555b5050505050600190811b01905550565b81835281816020850137506000828201602090810191909152601f909101601f19169091010190565b60018060a01b038616815284602082015283604082015260806060820152600062002e9660808301848662002e3d565b979650505050505050565b60006020828403121562002eb457600080fd5b815180151581146200212a57600080fd5b60018060a01b038416815282602082015260606040820152600062001240606083018462002b5d565b6000835162002f0281846020880162002b37565b83519083019062002f1881836020880162002b37565b01949350505050565b634e487b7160e01b600052601160045260246000fd5b808202811582820484141762000623576200062362002f21565b60008262002f6f57634e487b7160e01b600052601260045260246000fd5b500490565b8181038181111562000623576200062362002f21565b60018060a01b0384168152600060208481840152606060408401526000845462002fb48162002ce2565b806060870152608060018084166000811462002fd9576001811462002ff45762003024565b60ff1985168984015283151560051b89018301955062003024565b896000528660002060005b858110156200301c5781548b820186015290830190880162002fff565b8a0184019650505b50939a9950505050505050505050565b6060815260006200304a60608301868862002e3d565b6020830194909452506040015292915050565b634e487b7160e01b600052602160045260246000fd5b6001600160a01b038781168252861660208201526040810185905260c060608201819052600090620030a89083018662002b5d565b84608084015282810360a0840152620030c2818562002b5d565b9998505050505050505050565b828152604060208201526000620025c2604083018462002b5d565b60008251620030fe81846020870162002b37565b9190910192915050565b6020815260006200212a602083018462002b5d56fe60e0604052600560a0526004805460ff191690553480156200002057600080fd5b5060405162001b0e38038062001b0e833981016040819052620000439162000269565b6200004e3362000072565b6200005983620000c2565b6001600160a01b039182166080521660c05250620002b3565b600080546001600160a01b038381166001600160a01b0319831681178455604051919092169283917f8be0079c531659141344cd1fd0a4f28419497f9722a3daafe3b4186f6b6457e09190a35050565b620000cc62000145565b6001600160a01b038116620001375760405162461bcd60e51b815260206004820152602660248201527f4f776e61626c653a206e6577206f776e657220697320746865207a65726f206160448201526564647265737360d01b60648201526084015b60405180910390fd5b620001428162000072565b50565b6000546001600160a01b03163314620001f0576001546005541015620001ae5760405162461bcd60e51b815260206004820152601760248201527f496e73756666696369656e742066756e64732073656e7400000000000000000060448201526064016200012e565b60045460ff16620001ee5760405162461bcd60e51b8152602060048201526009602482015268139bdd131a5cdd195960ba1b60448201526064016200012e565b565b6000546001600160a01b03163314620001ee5760405162461bcd60e51b815260206004820181905260248201527f4f776e61626c653a2063616c6c6572206973206e6f7420746865206f776e657260448201526064016200012e565b80516001600160a01b03811681146200026457600080fd5b919050565b6000806000606084860312156200027f57600080fd5b6200028a846200024c565b92506200029a602085016200024c565b9150620002aa604085016200024c565b90509250925092565b60805160a05160c0516117d7620003376000396000818161012001528181610458015281816104d40152818161059601528181610827015281816108aa01528181610c1d01528181610c990152610d570152600081816103140152610ada0152600081816102e00152818161061d015281816106ee0152610b1e01526117d76000f3fe6080604052600436106101095760003560e01c8063722a5fc111610095578063a4b42b3311610064578063a4b42b33146102ac578063c45a0155146102ce578063d575fe6414610302578063d910b05a14610336578063f2fde38b1461036057600080fd5b8063722a5fc11461023b57806381568eb81461025b5780638cdf6bff1461026e5780638da5cb5b1461028e57600080fd5b806329dcb0cf116100dc57806329dcb0cf146101d15780633257b4f3146101e75780633ccfd60b146101fc5780635cacd0d214610211578063715018a61461022657600080fd5b80630aa13b8c1461010e57806314d627d21461015f5780631626ba7e1461017457806324ec7590146101ad575b600080fd5b34801561011a57600080fd5b506101427f000000000000000000000000000000000000000000000000000000000000000081565b6040516001600160a01b0390911681526020015b60405180910390f35b61017261016d36600461121c565b610380565b005b34801561018057600080fd5b5061019461018f36600461126a565b6103e4565b6040516001600160e01b03199091168152602001610156565b3480156101b957600080fd5b506101c360015481565b604051908152602001610156565b3480156101dd57600080fd5b506101c360035481565b3480156101f357600080fd5b506101c3610440565b34801561020857600080fd5b506101726105cd565b34801561021d57600080fd5b50610172610612565b34801561023257600080fd5b506101726106d1565b34801561024757600080fd5b506101726102563660046112b1565b6106e3565b6101726102693660046112ff565b6107b8565b34801561027a57600080fd5b5061017261028936600461137d565b6108a0565b34801561029a57600080fd5b506000546001600160a01b0316610142565b3480156102b857600080fd5b506102c161093f565b6040516101569190611412565b3480156102da57600080fd5b506101427f000000000000000000000000000000000000000000000000000000000000000081565b34801561030e57600080fd5b506101c37f000000000000000000000000000000000000000000000000000000000000000081565b34801561034257600080fd5b506004546103509060ff1681565b6040519015158152602001610156565b34801561036c57600080fd5b5061017261037b36600461142c565b6109cd565b610388610a43565b6103928282610c08565b303361039c610440565b6040513481527f7895bd4ff6323b874827e7c09827afb49db435ec423c8487977702687b53fc499060200160405180910390a46103d8816109cd565b6103e0610d86565b5050565b6000806104036103fc6000546001600160a01b031690565b8585610dbf565b600154600554919250111581806104175750805b1561042e5750630b135d3f60e11b915061043a9050565b506000915061043a9050565b92915050565b604051636ca7f41960e11b81523060048201526000907f00000000000000000000000000000000000000000000000000000000000000006001600160a01b03169063d94fe83290602401602060405180830381865afa1580156104a7573d6000803e3d6000fd5b505050506040513d601f19601f820116820180604052508101906104cb9190611447565b600003610581577f00000000000000000000000000000000000000000000000000000000000000006001600160a01b031663d94fe8326105136000546001600160a01b031690565b6040516001600160e01b031960e084901b1681526001600160a01b0390911660048201526024015b602060405180830381865afa158015610558573d6000803e3d6000fd5b505050506040513d601f19601f8201168201806040525081019061057c9190611447565b905090565b604051636ca7f41960e11b81523060048201527f00000000000000000000000000000000000000000000000000000000000000006001600160a01b03169063d94fe8329060240161053b565b6105d5610e20565b600080546040516001600160a01b03909116914780156108fc02929091818181858888f1935050505015801561060f573d6000803e3d6000fd5b50565b336001600160a01b037f000000000000000000000000000000000000000000000000000000000000000016148061065357506000546001600160a01b031633145b6106785760405162461bcd60e51b815260040161066f90611460565b60405180910390fd5b33610681610440565b7f9e3387d71092fe1d8940a8bd35f19f9ac4261afe1a21988b5cc6d2c67772dfc06001546003546040516106bf929190918252602082015260400190565b60405180910390a36106cf610d86565b565b6106d9610e20565b6106cf6000610f18565b336001600160a01b037f000000000000000000000000000000000000000000000000000000000000000016148061072457506000546001600160a01b031633145b6107405760405162461bcd60e51b815260040161066f90611460565b600261074c8482611531565b50600382905560018181556004805460ff191690911790553361076d610440565b7f98868c46d49b200d82c273c9f28d73265826ca6567690262736450563dfff64c6001546003546040516107ab929190918252602082015260400190565b60405180910390a3505050565b6107c0610a43565b6107ca8484610c08565b6001600160a01b038316336107dd610440565b6040513481527f7895bd4ff6323b874827e7c09827afb49db435ec423c8487977702687b53fc499060200160405180910390a4604051635f22feb160e11b81526001600160a01b037f0000000000000000000000000000000000000000000000000000000000000000169063be45fd6290610860908690869086906004016115f1565b600060405180830381600087803b15801561087a57600080fd5b505af115801561088e573d6000803e3d6000fd5b5050505061089a610d86565b50505050565b6108a8610e20565b7f00000000000000000000000000000000000000000000000000000000000000006001600160a01b031663be45fd626108e96000546001600160a01b031690565b83856040518463ffffffff1660e01b8152600401610909939291906115f1565b600060405180830381600087803b15801561092357600080fd5b505af1158015610937573d6000803e3d6000fd5b505050505050565b6002805461094c906114ac565b80601f0160208091040260200160405190810160405280929190818152602001828054610978906114ac565b80156109c55780601f1061099a576101008083540402835291602001916109c5565b820191906000526020600020905b8154815290600101906020018083116109a857829003601f168201915b505050505081565b6109d5610e20565b6001600160a01b038116610a3a5760405162461bcd60e51b815260206004820152602660248201527f4f776e61626c653a206e6577206f776e657220697320746865207a65726f206160448201526564647265737360d01b606482015260840161066f565b61060f81610f18565b600154341015610a8f5760405162461bcd60e51b8152602060048201526017602482015276125b9cdd59999a58da595b9d08199d5b991cc81cd95b9d604a1b604482015260640161066f565b60045460ff16610acd5760405162461bcd60e51b8152602060048201526009602482015268139bdd131a5cdd195960ba1b604482015260640161066f565b34600581905550600060647f000000000000000000000000000000000000000000000000000000000000000034610b049190611637565b610b0e919061164e565b6040519091506001600160a01b037f0000000000000000000000000000000000000000000000000000000000000000169082156108fc029083906000818181858888f19350505050158015610b67573d6000803e3d6000fd5b506000546001600160a01b03166001600160a01b03166108fc82600154610b8e9190611670565b6040518115909202916000818181858888f19350505050158015610bb6573d6000803e3d6000fd5b50600060015434610bc79190611670565b111561060f5760015433906108fc90610be09034611670565b6040518115909202916000818181858888f193505050501580156103e0573d6000803e3d6000fd5b604051636ca7f41960e11b81523060048201527f00000000000000000000000000000000000000000000000000000000000000006001600160a01b03169063d94fe83290602401602060405180830381865afa158015610c6c573d6000803e3d6000fd5b505050506040513d601f19601f82011682018060405250810190610c909190611447565b600003610d38577f00000000000000000000000000000000000000000000000000000000000000006001600160a01b03166316f72842610cd86000546001600160a01b031690565b6003546040516001600160e01b031960e085901b168152610d059291309160029082908a90600401611683565b600060405180830381600087803b158015610d1f57600080fd5b505af1158015610d33573d6000803e3d6000fd5b505050505b604051633c7c2c8960e21b81526001600160a01b0382811660048301527f0000000000000000000000000000000000000000000000000000000000000000169063f1f0b22490602401610909565b600060058190556040805160208101909152908152600290610da89082611531565b50600060038190556001556004805460ff19169055565b6000806000610dce8585610f68565b90925090506000816004811115610de757610de761174e565b148015610e055750856001600160a01b0316826001600160a01b0316145b80610e165750610e16868686610fad565b9695505050505050565b6000546001600160a01b03163314610ebe576001546005541015610e805760405162461bcd60e51b8152602060048201526017602482015276125b9cdd59999a58da595b9d08199d5b991cc81cd95b9d604a1b604482015260640161066f565b60045460ff166106cf5760405162461bcd60e51b8152602060048201526009602482015268139bdd131a5cdd195960ba1b604482015260640161066f565b6000546001600160a01b031633146106cf5760405162461bcd60e51b815260206004820181905260248201527f4f776e61626c653a2063616c6c6572206973206e6f7420746865206f776e6572604482015260640161066f565b600080546001600160a01b038381166001600160a01b0319831681178455604051919092169283917f8be0079c531659141344cd1fd0a4f28419497f9722a3daafe3b4186f6b6457e09190a35050565b6000808251604103610f9e5760208301516040840151606085015160001a610f9287828585611099565b94509450505050610fa6565b506000905060025b9250929050565b6000806000856001600160a01b0316631626ba7e60e01b8686604051602401610fd7929190611764565b60408051601f198184030181529181526020820180516001600160e01b03166001600160e01b03199094169390931790925290516110159190611785565b600060405180830381855afa9150503d8060008114611050576040519150601f19603f3d011682016040523d82523d6000602084013e611055565b606091505b509150915081801561106957506020815110155b8015610e1657508051630b135d3f60e11b9061108e9083016020908101908401611447565b149695505050505050565b6000807f7fffffffffffffffffffffffffffffff5d576e7357a4501ddfe92f46681b20a08311156110d05750600090506003611154565b6040805160008082526020820180845289905260ff881692820192909252606081018690526080810185905260019060a0016020604051602081039080840390855afa158015611124573d6000803e3d6000fd5b5050604051601f1901519150506001600160a01b03811661114d57600060019250925050611154565b9150600090505b94509492505050565b634e487b7160e01b600052604160045260246000fd5b600082601f83011261118457600080fd5b813567ffffffffffffffff8082111561119f5761119f61115d565b604051601f8301601f19908116603f011681019082821181831017156111c7576111c761115d565b816040528381528660208588010111156111e057600080fd5b836020870160208301376000602085830101528094505050505092915050565b80356001600160a01b038116811461121757600080fd5b919050565b6000806040838503121561122f57600080fd5b823567ffffffffffffffff81111561124657600080fd5b61125285828601611173565b92505061126160208401611200565b90509250929050565b6000806040838503121561127d57600080fd5b82359150602083013567ffffffffffffffff81111561129b57600080fd5b6112a785828601611173565b9150509250929050565b6000806000606084860312156112c657600080fd5b833567ffffffffffffffff8111156112dd57600080fd5b6112e986828701611173565b9660208601359650604090950135949350505050565b6000806000806080858703121561131557600080fd5b843567ffffffffffffffff8082111561132d57600080fd5b61133988838901611173565b955061134760208801611200565b945060408701359350606087013591508082111561136457600080fd5b5061137187828801611173565b91505092959194509250565b6000806040838503121561139057600080fd5b823567ffffffffffffffff8111156113a757600080fd5b6113b385828601611173565b95602094909401359450505050565b60005b838110156113dd5781810151838201526020016113c5565b50506000910152565b600081518084526113fe8160208601602086016113c2565b601f01601f19169290920160200192915050565b60208152600061142560208301846113e6565b9392505050565b60006020828403121561143e57600080fd5b61142582611200565b60006020828403121561145957600080fd5b5051919050565b6020808252602c908201527f4f6e6c7920666163746f7279206f72206f776e65722063616e2063616c6c207460408201526b3434b990333ab731ba34b7b760a11b606082015260800190565b600181811c908216806114c057607f821691505b6020821081036114e057634e487b7160e01b600052602260045260246000fd5b50919050565b601f82111561152c57600081815260208120601f850160051c8101602086101561150d5750805b601f850160051c820191505b8181101561093757828155600101611519565b505050565b815167ffffffffffffffff81111561154b5761154b61115d565b61155f8161155984546114ac565b846114e6565b602080601f831160018114611594576000841561157c5750858301515b600019600386901b1c1916600185901b178555610937565b600085815260208120601f198616915b828110156115c3578886015182559484019460019091019084016115a4565b50858210156115e15787850151600019600388901b60f8161c191681555b5050505050600190811b01905550565b60018060a01b038416815282602082015260606040820152600061161860608301846113e6565b95945050505050565b634e487b7160e01b600052601160045260246000fd5b808202811582820484141761043a5761043a611621565b60008261166b57634e487b7160e01b600052601260045260246000fd5b500490565b8181038181111561043a5761043a611621565b6001600160a01b03878116825286166020808301919091526040820186905260c06060830152845460009182916116b9816114ac565b8060c087015260e06001808416600081146116db57600181146116f557611723565b60ff1985168984015283151560051b890183019650611723565b8b6000528560002060005b8581101561171b5781548b8201860152908301908701611700565b8a0184019750505b50505050505084608084015282810360a084015261174181856113e6565b9998505050505050505050565b634e487b7160e01b600052602160045260246000fd5b82815260406020820152600061177d60408301846113e6565b949350505050565b600082516117978184602087016113c2565b919091019291505056fea264697066735822122039134f4433e230e64aacc6c419b2554b4360b8877bce3bc67c04e5bd62b0b54264736f6c63430008150033360894a13ba1a3210667c828492db98dca3e2076cc3735a920a3ca505d382bbc416464726573733a206c6f772d6c6576656c2064656c65676174652063616c6c206661696c6564a26469706673582212200c26ba5d49f6896f57a3150e7499958f989cc1c259af21b2bad83624f0465de064736f6c63430008150033",
  "linkReferences": {},
  "deployedLinkReferences": {}
}