{
  "_format": "hh-sol-artifact-1",
  "contractName": "FidMarketplaceV4",
  "sourceName": "contracts/FidMarketplace.sol",
  "abi": [
    {
      "inputs": [
        {
          "internalType": "uint256",
          "name": "version",
          "type": "uint256"
        }
      ],
      "stateMutability": "nonpayable",
      "type": "constructor"
    },
    {
      "anonymous": false,
      "inputs": [
        {
          "indexed": false,
          "internalType": "address",
          "name": "previousAdmin",
          "type": "address"
        },
        {
          "indexed": false,
          "internalType": "address",
          "name": "newAdmin",
          "type": "address"
        }
      ],
      "name": "AdminChanged",
      "type": "event"
    },
    {
      "anonymous": false,
      "inputs": [
        {
          "indexed": true,
          "internalType": "address",
          "name": "beacon",
          "type": "address"
        }
      ],
      "name": "BeaconUpgraded",
      "type": "event"
    },
    {
      "anonymous": false,
      "inputs": [
        {
          "indexed": true,
          "internalType": "uint256",
          "name": "fid",
          "type": "uint256"
        },
        {
          "indexed": true,
          "internalType": "address",
          "name": "buyer",
          "type": "address"
        },
        {
          "indexed": false,
          "internalType": "uint256",
          "name": "amount",
          "type": "uint256"
        },
        {
          "indexed": true,
          "internalType": "address",
          "name": "owner",
          "type": "address"
        }
      ],
      "name": "Bought",
      "type": "event"
    },
    {
      "anonymous": false,
      "inputs": [
        {
          "indexed": true,
          "internalType": "uint256",
          "name": "fid",
          "type": "uint256"
        }
      ],
      "name": "Canceled",
      "type": "event"
    },
    {
      "anonymous": false,
      "inputs": [
        {
          "indexed": false,
          "internalType": "uint8",
          "name": "version",
          "type": "uint8"
        }
      ],
      "name": "Initialized",
      "type": "event"
    },
    {
      "anonymous": false,
      "inputs": [
        {
          "indexed": true,
          "internalType": "uint256",
          "name": "fid",
          "type": "uint256"
        },
        {
          "indexed": true,
          "internalType": "address",
          "name": "owner",
          "type": "address"
        },
        {
          "indexed": true,
          "internalType": "address",
          "name": "proxyContract",
          "type": "address"
        },
        {
          "indexed": false,
          "internalType": "uint256",
          "name": "amount",
          "type": "uint256"
        },
        {
          "indexed": false,
          "internalType": "uint256",
          "name": "deadline",
          "type": "uint256"
        }
      ],
      "name": "Listed",
      "type": "event"
    },
    {
      "anonymous": false,
      "inputs": [
        {
          "indexed": true,
          "internalType": "address",
          "name": "owner",
          "type": "address"
        },
        {
          "indexed": true,
          "internalType": "uint256",
          "name": "fid",
          "type": "uint256"
        },
        {
          "indexed": true,
          "internalType": "address",
          "name": "buyer",
          "type": "address"
        },
        {
          "indexed": false,
          "internalType": "uint256",
          "name": "amount",
          "type": "uint256"
        }
      ],
      "name": "OfferApproved",
      "type": "event"
    },
    {
      "anonymous": false,
      "inputs": [
        {
          "indexed": true,
          "internalType": "uint256",
          "name": "fid",
          "type": "uint256"
        },
        {
          "indexed": true,
          "internalType": "address",
          "name": "buyer",
          "type": "address"
        }
      ],
      "name": "OfferCanceled",
      "type": "event"
    },
    {
      "anonymous": false,
      "inputs": [
        {
          "indexed": true,
          "internalType": "uint256",
          "name": "fid",
          "type": "uint256"
        },
        {
          "indexed": true,
          "internalType": "address",
          "name": "buyer",
          "type": "address"
        },
        {
          "indexed": false,
          "internalType": "uint256",
          "name": "amount",
          "type": "uint256"
        },
        {
          "indexed": false,
          "internalType": "uint256",
          "name": "deadline",
          "type": "uint256"
        }
      ],
      "name": "OfferMade",
      "type": "event"
    },
    {
      "anonymous": false,
      "inputs": [
        {
          "indexed": true,
          "internalType": "uint256",
          "name": "fid",
          "type": "uint256"
        },
        {
          "indexed": true,
          "internalType": "address",
          "name": "referrer",
          "type": "address"
        }
      ],
      "name": "Referred",
      "type": "event"
    },
    {
      "anonymous": false,
      "inputs": [
        {
          "indexed": true,
          "internalType": "address",
          "name": "implementation",
          "type": "address"
        }
      ],
      "name": "Upgraded",
      "type": "event"
    },
    {
      "inputs": [],
      "name": "_owner",
      "outputs": [
        {
          "internalType": "address",
          "name": "",
          "type": "address"
        }
      ],
      "stateMutability": "view",
      "type": "function"
    },
    {
      "inputs": [
        {
          "internalType": "uint256",
          "name": "fid",
          "type": "uint256"
        },
        {
          "internalType": "address",
          "name": "buyer",
          "type": "address"
        },
        {
          "internalType": "uint256",
          "name": "deadline",
          "type": "uint256"
        },
        {
          "internalType": "bytes",
          "name": "ownerSig",
          "type": "bytes"
        }
      ],
      "name": "approveOffer",
      "outputs": [],
      "stateMutability": "nonpayable",
      "type": "function"
    },
    {
      "inputs": [
        {
          "internalType": "uint256",
          "name": "fid",
          "type": "uint256"
        },
        {
          "internalType": "address",
          "name": "to",
          "type": "address"
        },
        {
          "internalType": "uint256",
          "name": "toDeadline",
          "type": "uint256"
        },
        {
          "internalType": "bytes",
          "name": "toSig",
          "type": "bytes"
        }
      ],
      "name": "buy",
      "outputs": [],
      "stateMutability": "payable",
      "type": "function"
    },
    {
      "inputs": [
        {
          "internalType": "uint256",
          "name": "fid",
          "type": "uint256"
        },
        {
          "internalType": "address",
          "name": "to",
          "type": "address"
        },
        {
          "internalType": "uint256",
          "name": "toDeadline",
          "type": "uint256"
        },
        {
          "internalType": "bytes",
          "name": "toSig",
          "type": "bytes"
        },
        {
          "internalType": "address",
          "name": "referrer",
          "type": "address"
        }
      ],
      "name": "buyWithReferral",
      "outputs": [],
      "stateMutability": "payable",
      "type": "function"
    },
    {
      "inputs": [
        {
          "internalType": "uint256",
          "name": "fid",
          "type": "uint256"
        }
      ],
      "name": "cancelListing",
      "outputs": [],
      "stateMutability": "nonpayable",
      "type": "function"
    },
    {
      "inputs": [
        {
          "internalType": "uint256",
          "name": "fid",
          "type": "uint256"
        }
      ],
      "name": "cancelOffer",
      "outputs": [],
      "stateMutability": "nonpayable",
      "type": "function"
    },
    {
      "inputs": [
        {
          "internalType": "uint256",
          "name": "_commissionPercentage",
          "type": "uint256"
        }
      ],
      "name": "changeCommission",
      "outputs": [],
      "stateMutability": "nonpayable",
      "type": "function"
    },
    {
      "inputs": [
        {
          "internalType": "address",
          "name": "_idRegistry",
          "type": "address"
        }
      ],
      "name": "changeIdRegistry",
      "outputs": [],
      "stateMutability": "nonpayable",
      "type": "function"
    },
    {
      "inputs": [
        {
          "internalType": "address",
          "name": "anOwner",
          "type": "address"
        }
      ],
      "name": "changeOwnership",
      "outputs": [],
      "stateMutability": "nonpayable",
      "type": "function"
    },
    {
      "inputs": [
        {
          "internalType": "uint256",
          "name": "_referralPercentage",
          "type": "uint256"
        }
      ],
      "name": "changeReferralPercentage",
      "outputs": [],
      "stateMutability": "nonpayable",
      "type": "function"
    },
    {
      "inputs": [],
      "name": "commissionPercentage",
      "outputs": [
        {
          "internalType": "uint256",
          "name": "",
          "type": "uint256"
        }
      ],
      "stateMutability": "view",
      "type": "function"
    },
    {
      "inputs": [
        {
          "internalType": "address",
          "name": "owner",
          "type": "address"
        },
        {
          "internalType": "uint256",
          "name": "salt",
          "type": "uint256"
        }
      ],
      "name": "getAddress",
      "outputs": [
        {
          "internalType": "address",
          "name": "",
          "type": "address"
        }
      ],
      "stateMutability": "view",
      "type": "function"
    },
    {
      "inputs": [
        {
          "internalType": "uint256",
          "name": "fid",
          "type": "uint256"
        },
        {
          "internalType": "address",
          "name": "buyer",
          "type": "address"
        }
      ],
      "name": "getOffer",
      "outputs": [
        {
          "components": [
            {
              "internalType": "uint256",
              "name": "amount",
              "type": "uint256"
            },
            {
              "internalType": "bytes",
              "name": "signature",
              "type": "bytes"
            },
            {
              "internalType": "uint256",
              "name": "deadline",
              "type": "uint256"
            }
          ],
          "internalType": "struct FidMarketplaceV4.Offer",
          "name": "",
          "type": "tuple"
        }
      ],
      "stateMutability": "view",
      "type": "function"
    },
    {
      "inputs": [],
      "name": "idRegistry",
      "outputs": [
        {
          "internalType": "contract IIdRegistry",
          "name": "",
          "type": "address"
        }
      ],
      "stateMutability": "view",
      "type": "function"
    },
    {
      "inputs": [
        {
          "internalType": "address",
          "name": "anOwner",
          "type": "address"
        },
        {
          "internalType": "uint256",
          "name": "_commissionPercentage",
          "type": "uint256"
        },
        {
          "internalType": "address",
          "name": "_wethAddress",
          "type": "address"
        },
        {
          "internalType": "address",
          "name": "_idRegistry",
          "type": "address"
        }
      ],
      "name": "initialize",
      "outputs": [],
      "stateMutability": "nonpayable",
      "type": "function"
    },
    {
      "inputs": [
        {
          "internalType": "bytes32",
          "name": "hash",
          "type": "bytes32"
        },
        {
          "internalType": "bytes",
          "name": "signature",
          "type": "bytes"
        }
      ],
      "name": "isValidSignature",
      "outputs": [
        {
          "internalType": "bytes4",
          "name": "magicValue",
          "type": "bytes4"
        }
      ],
      "stateMutability": "view",
      "type": "function"
    },
    {
      "inputs": [
        {
          "internalType": "address",
          "name": "owner",
          "type": "address"
        },
        {
          "internalType": "uint256",
          "name": "salt",
          "type": "uint256"
        },
        {
          "internalType": "bytes",
          "name": "ownerSignature",
          "type": "bytes"
        },
        {
          "internalType": "uint256",
          "name": "minFee",
          "type": "uint256"
        },
        {
          "internalType": "uint256",
          "name": "deadline",
          "type": "uint256"
        }
      ],
      "name": "list",
      "outputs": [
        {
          "internalType": "contract FidMarketplaceV1Proxy",
          "name": "ret",
          "type": "address"
        }
      ],
      "stateMutability": "nonpayable",
      "type": "function"
    },
    {
      "inputs": [
        {
          "internalType": "bytes",
          "name": "ownerSignature",
          "type": "bytes"
        },
        {
          "internalType": "uint256",
          "name": "minFee",
          "type": "uint256"
        },
        {
          "internalType": "uint256",
          "name": "deadline",
          "type": "uint256"
        }
      ],
      "name": "listWithoutProxy",
      "outputs": [],
      "stateMutability": "nonpayable",
      "type": "function"
    },
    {
      "inputs": [
        {
          "internalType": "uint256",
          "name": "",
          "type": "uint256"
        }
      ],
      "name": "listings",
      "outputs": [
        {
          "internalType": "uint256",
          "name": "minFee",
          "type": "uint256"
        },
        {
          "internalType": "bytes",
          "name": "ownerSignature",
          "type": "bytes"
        },
        {
          "internalType": "uint256",
          "name": "deadline",
          "type": "uint256"
        },
        {
          "internalType": "address",
          "name": "owner",
          "type": "address"
        }
      ],
      "stateMutability": "view",
      "type": "function"
    },
    {
      "inputs": [
        {
          "internalType": "uint256",
          "name": "fid",
          "type": "uint256"
        },
        {
          "internalType": "uint256",
          "name": "amount",
          "type": "uint256"
        },
        {
          "internalType": "uint256",
          "name": "deadline",
          "type": "uint256"
        },
        {
          "internalType": "bytes",
          "name": "signature",
          "type": "bytes"
        }
      ],
      "name": "offer",
      "outputs": [],
      "stateMutability": "nonpayable",
      "type": "function"
    },
    {
      "inputs": [
        {
          "internalType": "uint256",
          "name": "",
          "type": "uint256"
        },
        {
          "internalType": "address",
          "name": "",
          "type": "address"
        }
      ],
      "name": "offers",
      "outputs": [
        {
          "internalType": "uint256",
          "name": "amount",
          "type": "uint256"
        },
        {
          "internalType": "bytes",
          "name": "signature",
          "type": "bytes"
        },
        {
          "internalType": "uint256",
          "name": "deadline",
          "type": "uint256"
        }
      ],
      "stateMutability": "view",
      "type": "function"
    },
    {
      "inputs": [],
      "name": "owner",
      "outputs": [
        {
          "internalType": "address",
          "name": "",
          "type": "address"
        }
      ],
      "stateMutability": "view",
      "type": "function"
    },
    {
      "inputs": [],
      "name": "proxiableUUID",
      "outputs": [
        {
          "internalType": "bytes32",
          "name": "",
          "type": "bytes32"
        }
      ],
      "stateMutability": "view",
      "type": "function"
    },
    {
      "inputs": [],
      "name": "referralPercentage",
      "outputs": [
        {
          "internalType": "uint256",
          "name": "",
          "type": "uint256"
        }
      ],
      "stateMutability": "view",
      "type": "function"
    },
    {
      "inputs": [
        {
          "internalType": "address",
          "name": "newImplementation",
          "type": "address"
        }
      ],
      "name": "upgradeTo",
      "outputs": [],
      "stateMutability": "nonpayable",
      "type": "function"
    },
    {
      "inputs": [
        {
          "internalType": "address",
          "name": "newImplementation",
          "type": "address"
        },
        {
          "internalType": "bytes",
          "name": "data",
          "type": "bytes"
        }
      ],
      "name": "upgradeToAndCall",
      "outputs": [],
      "stateMutability": "payable",
      "type": "function"
    },
    {
      "inputs": [
        {
          "internalType": "uint256",
          "name": "fid",
          "type": "uint256"
        },
        {
          "internalType": "address",
          "name": "signer",
          "type": "address"
        },
        {
          "internalType": "address",
          "name": "to",
          "type": "address"
        },
        {
          "internalType": "uint256",
          "name": "deadline",
          "type": "uint256"
        },
        {
          "internalType": "bytes",
          "name": "sig",
          "type": "bytes"
        }
      ],
      "name": "verifyListSig",
      "outputs": [
        {
          "internalType": "bool",
          "name": "isValid",
          "type": "bool"
        }
      ],
      "stateMutability": "view",
      "type": "function"
    },
    {
      "inputs": [],
      "name": "weth",
      "outputs": [
        {
          "internalType": "contract IERC20",
          "name": "",
          "type": "address"
        }
      ],
      "stateMutability": "view",
      "type": "function"
    },
    {
      "inputs": [],
      "name": "withdraw",
      "outputs": [],
      "stateMutability": "nonpayable",
      "type": "function"
    },
    {
      "stateMutability": "payable",
      "type": "receive"
    }
  ],
  "bytecode": "0x60a0604052306080523480156200001557600080fd5b506040516200511538038062005115833981016040819052620000389162000114565b60018111156200004c576200004c62000053565b506200012e565b600054610100900460ff1615620000c05760405162461bcd60e51b815260206004820152602760248201527f496e697469616c697a61626c653a20636f6e747261637420697320696e697469604482015266616c697a696e6760c81b606482015260840160405180910390fd5b60005460ff9081161462000112576000805460ff191660ff9081179091556040519081527f7f26b83ff96e1f2b6a682f133852f6798a09c465da95921460cefb38474024989060200160405180910390a15b565b6000602082840312156200012757600080fd5b5051919050565b608051614faf62000166600039600081816109500152818161099301528181610e5801528181610e9b0152610f370152614faf6000f3fe608060405260043610620001eb5760003560e01c80636eaa3bdc116200010b578063b8fd9e6511620000a1578063de74e57b116200006c578063de74e57b146200059f578063df922f3a14620005d6578063ebdfbce514620005fb578063ef706adf146200063157600080fd5b8063b8fd9e651462000517578063b9520ce4146200053c578063d50f0f2b1462000570578063d575fe64146200058757600080fd5b806390c7c0ec11620000e257806390c7c0ec146200048c57806396ea8b9c14620004b1578063a8d5fc5014620004c9578063b2bdfa7b14620004ee57600080fd5b80636eaa3bdc146200041b5780638cb84e1814620004405780638da5cb5b146200046557600080fd5b806338c2bab31162000181578063468a12351162000158578063468a123514620003905780634f1ef28614620003c657806352d1902d14620003dd578063560a2852146200040457600080fd5b806338c2bab314620003315780633ccfd60b14620003565780633fc8cef3146200036e57600080fd5b80632af4c31e11620001c25780632af4c31e146200029d578063305a67a814620002c2578063358394d814620002e75780633659cfe6146200030c57600080fd5b80630aa13b8c14620001f85780631626ba7e146200023757806320a57b48146200027657600080fd5b36620001f357005b600080fd5b3480156200020557600080fd5b506005546200021a906001600160a01b031681565b6040516001600160a01b0390911681526020015b60405180910390f35b3480156200024457600080fd5b506200025c6200025636600462002991565b62000656565b6040516001600160e01b031990911681526020016200022e565b3480156200028357600080fd5b506200029b62000295366004620029f9565b620006c3565b005b348015620002aa57600080fd5b506200029b620002bc366004620029f9565b620006ef565b348015620002cf57600080fd5b506200029b620002e136600462002a17565b62000725565b348015620002f457600080fd5b506200029b6200030636600462002a31565b620007db565b3480156200031957600080fd5b506200029b6200032b366004620029f9565b62000946565b3480156200033e57600080fd5b506200029b6200035036600462002aca565b62000a31565b3480156200036357600080fd5b506200029b62000be8565b3480156200037b57600080fd5b506004546200021a906001600160a01b031681565b3480156200039d57600080fd5b50620003b5620003af36600462002b1f565b62000c2c565b60405190151581526020016200022e565b6200029b620003d736600462002b9f565b62000e4e565b348015620003ea57600080fd5b50620003f562000f2a565b6040519081526020016200022e565b6200029b6200041536600462002bdb565b62000fe0565b3480156200042857600080fd5b506200029b6200043a36600462002a17565b62001240565b3480156200044d57600080fd5b506200021a6200045f36600462002c42565b6200124f565b3480156200047257600080fd5b50600054630100000090046001600160a01b03166200021a565b3480156200049957600080fd5b506200029b620004ab36600462002c6f565b620012f2565b348015620004be57600080fd5b50620003f560065481565b348015620004d657600080fd5b506200021a620004e836600462002cdd565b620016e7565b348015620004fb57600080fd5b506000546200021a90630100000090046001600160a01b031681565b3480156200052457600080fd5b506200029b6200053636600462002d4f565b620018f5565b3480156200054957600080fd5b50620005616200055b36600462002d95565b62001a15565b6040516200022e919062002e18565b6200029b6200058136600462002e56565b62001b18565b3480156200059457600080fd5b50620003f560035481565b348015620005ac57600080fd5b50620005c4620005be36600462002a17565b62001cfc565b6040516200022e949392919062002ed0565b348015620005e357600080fd5b506200029b620005f536600462002a17565b62001dbf565b3480156200060857600080fd5b50620006206200061a36600462002d95565b62001dce565b6040516200022e9392919062002f0c565b3480156200063e57600080fd5b506200029b6200065036600462002a17565b62001e88565b6000805481906200067990630100000090046001600160a01b0316858562001f2c565b60005490915062010000900460ff1615156001148180620006975750805b15620006b05750630b135d3f60e11b9150620006bd9050565b5060009150620006bd9050565b92915050565b620006cd62001f96565b600580546001600160a01b0319166001600160a01b0392909216919091179055565b620006f962001f96565b600080546001600160a01b039092166301000000026301000000600160b81b0319909216919091179055565b6000818152600260205260409020600301546001600160a01b03163314620007a25760405162461bcd60e51b815260206004820152602560248201527f4f6e6c7920746865206f776e65722063616e2063616e63656c20746865206c696044820152647374696e6760d81b60648201526084015b60405180910390fd5b620007ad8162001ff3565b60405181907f829a8683c544ad289ce92d3ce06e9ebad69b18a6916e60ec766c2c217461d8e990600090a250565b600054610100900460ff1615808015620007fc5750600054600160ff909116105b80620008185750303b15801562000818575060005460ff166001145b6200087d5760405162461bcd60e51b815260206004820152602e60248201527f496e697469616c697a61626c653a20636f6e747261637420697320616c72656160448201526d191e481a5b9a5d1a585b1a5e995960921b606482015260840162000799565b6000805460ff191660011790558015620008a1576000805461ff0019166101001790555b600080546003869055600480546001600160a01b038781166001600160a01b03199283161790925560058054878416921691909117905562ff0000199088166301000000021662010000600160b81b031990911617905580156200093f576000805461ff0019169055604051600181527f7f26b83ff96e1f2b6a682f133852f6798a09c465da95921460cefb38474024989060200160405180910390a15b5050505050565b6001600160a01b037f0000000000000000000000000000000000000000000000000000000000000000163003620009915760405162461bcd60e51b8152600401620007999062002f37565b7f00000000000000000000000000000000000000000000000000000000000000006001600160a01b0316620009dc60008051602062004f33833981519152546001600160a01b031690565b6001600160a01b03161462000a055760405162461bcd60e51b8152600401620007999062002f83565b62000a108162002030565b6040805160008082526020820190925262000a2e918391906200203a565b50565b600554604051636ca7f41960e11b81523360048201526000916001600160a01b03169063d94fe83290602401602060405180830381865afa15801562000a7b573d6000803e3d6000fd5b505050506040513d601f19601f8201168201806040525081019062000aa1919062002fcf565b905062000ab381333085898962000c2c565b62000af55760405162461bcd60e51b8152602060048201526011602482015270496e76616c6964207369676e617475726560781b604482015260640162000799565b604051806080016040528084815260200186868080601f0160208091040260200160405190810160405280939291908181526020018383808284376000920182905250938552505050602080830186905233604093840152848252600281529190208251815590820151600182019062000b70908262003077565b506040828101516002830155606090920151600390910180546001600160a01b0319166001600160a01b039092169190911790558051848152602081018490523091339184917f723f73331eaee88eec7fc68ef60ab6ed15e4b90d0472b55eb92fa43910bab6dd910160405180910390a45050505050565b600080546040516001600160a01b03630100000090920491909116914780156108fc02929091818181858888f1935050505015801562000a2e573d6000803e3d6000fd5b60055460408051622fc9bd60e21b8152905160009283926001600160a01b0390911691634980f28891839162bf26f4916004808201926020929091908290030181865afa15801562000c82573d6000803e3d6000fd5b505050506040513d601f19601f8201168201806040525081019062000ca8919062002fcf565b600554604051623f675f60e91b81526001600160a01b038c811660048301528d928c92911690637ecebe0090602401602060405180830381865afa15801562000cf5573d6000803e3d6000fd5b505050506040513d601f19601f8201168201806040525081019062000d1b919062002fcf565b6040805160208101959095528401929092526001600160a01b03166060830152608082015260a0810188905260c001604051602081830303815290604052805190602001206040518263ffffffff1660e01b815260040162000d7f91815260200190565b602060405180830381865afa15801562000d9d573d6000803e3d6000fd5b505050506040513d601f19601f8201168201806040525081019062000dc3919062002fcf565b60055460405163032faac760e41b81529192506001600160a01b0316906332faac709062000dfe908a908c9086908a908a906004016200316d565b602060405180830381865afa15801562000e1c573d6000803e3d6000fd5b505050506040513d601f19601f8201168201806040525081019062000e429190620031a8565b98975050505050505050565b6001600160a01b037f000000000000000000000000000000000000000000000000000000000000000016300362000e995760405162461bcd60e51b8152600401620007999062002f37565b7f00000000000000000000000000000000000000000000000000000000000000006001600160a01b031662000ee460008051602062004f33833981519152546001600160a01b031690565b6001600160a01b03161462000f0d5760405162461bcd60e51b8152600401620007999062002f83565b62000f188262002030565b62000f26828260016200203a565b5050565b6000306001600160a01b037f0000000000000000000000000000000000000000000000000000000000000000161462000fcc5760405162461bcd60e51b815260206004820152603860248201527f555550535570677261646561626c653a206d757374206e6f742062652063616c60448201527f6c6564207468726f7567682064656c656761746563616c6c0000000000000000606482015260840162000799565b5060008051602062004f3383398151915290565b600084815260026020526040902054620010295760405162461bcd60e51b8152602060048201526009602482015268139bdd131a5cdd195960ba1b604482015260640162000799565b60005462010000900460ff1615620010785760405162461bcd60e51b8152602060048201526011602482015270416c726561647950726f63657373696e6760781b604482015260640162000799565b600084815260026020526040902060038101549054620010a2916001600160a01b031690620021b7565b6000848152600260208190526040909120600381015491810154600190910180546200116a936001600160a01b0316929190620010df9062002fe9565b80601f01602080910402602001604051908101604052809291908181526020018280546200110d9062002fe9565b80156200115e5780601f1062001132576101008083540402835291602001916200115e565b820191906000526020600020905b8154815290600101906020018083116200114057829003601f168201915b505050505086620022d1565b600554604051635f22feb160e11b81526001600160a01b039091169063be45fd6290620011a090869086908690600401620031cc565b600060405180830381600087803b158015620011bb57600080fd5b505af1158015620011d0573d6000803e3d6000fd5b50505050620011df8462001ff3565b826001600160a01b0316336001600160a01b0316857f7895bd4ff6323b874827e7c09827afb49db435ec423c8487977702687b53fc49346040516200122691815260200190565b60405180910390a450506000805462ff0000191690555050565b6200124a62001f96565b600655565b600554604080516001600160a01b038086166020830152309282019290925291166060820152600090819060800160408051601f198184030181529082905291508390620012e9908290620012a76020820162002884565b601f1982820381018352601f909101166040819052620012cd91908690602001620031f5565b60405160208183030381529060405280519060200120620023a8565b95945050505050565b60008581526001602090815260408083206001600160a01b0388168452909152902080546200135a5760405162461bcd60e51b81526020600482015260136024820152724e6f206f6666657220746f20617070726f766560681b604482015260640162000799565b60005462010000900460ff1615620013a95760405162461bcd60e51b8152602060048201526011602482015270416c726561647950726f63657373696e6760781b604482015260640162000799565b600554604051636ca7f41960e11b815233600482015287916001600160a01b03169063d94fe83290602401602060405180830381865afa158015620013f2573d6000803e3d6000fd5b505050506040513d601f19601f8201168201806040525081019062001418919062002fcf565b14620014735760405162461bcd60e51b8152602060048201526024808201527f4f6e6c7920746865206f776e65722063616e20617070726f766520746865206f604482015263333332b960e11b606482015260840162000799565b6000805462ff0000191662010000178155600354825460649162001497916200323e565b620014a3919062003258565b600480546040516323b872dd60e01b81526001600160a01b038a8116938201939093523060248201526044810184905292935016906323b872dd906064016020604051808303816000875af115801562001501573d6000803e3d6000fd5b505050506040513d601f19601f82011682018060405250810190620015279190620031a8565b5060045482546001600160a01b03909116906323b872dd9088903390620015509086906200327b565b6040516001600160e01b031960e086901b1681526001600160a01b03938416600482015292909116602483015260448201526064016020604051808303816000875af1158015620015a5573d6000803e3d6000fd5b505050506040513d601f19601f82011682018060405250810190620015cb9190620031a8565b5062001611338686868080601f0160208091040260200160405190810160405280939291908181526020018383808284376000920191909152508c9250620022d1915050565b6005546002830154604051635f22feb160e11b81526001600160a01b039092169163be45fd62916200164e918a9190600188019060040162003291565b600060405180830381600087803b1580156200166957600080fd5b505af11580156200167e573d6000803e3d6000fd5b505050506200168e8787620023be565b81546040519081526001600160a01b03871690889033907f7ed5731d9f2375d2bfbb722591b0b1c4bedf36d9a09d575bef96069a13ea737f9060200160405180910390a450506000805462ff0000191690555050505050565b60008581620016f789836200124f565b600554604051636ca7f41960e11b81526001600160a01b038c811660048301529293506000929091169063d94fe83290602401602060405180830381865afa15801562001748573d6000803e3d6000fd5b505050506040513d601f19601f820116820180604052508101906200176e919062002fcf565b905062001780818b84888c8c62000c2c565b620017c25760405162461bcd60e51b8152602060048201526011602482015270496e76616c6964207369676e617475726560781b604482015260640162000799565b60055460405184918c9130916001600160a01b031690620017e39062002884565b6001600160a01b039384168152918316602083015290911660408201526060018190604051809103906000f590508015801562001824573d6000803e3d6000fd5b5060405163722a5fc160e01b81529094506001600160a01b0385169063722a5fc1906200185c908b908b908a908c906004016200333b565b600060405180830381600087803b1580156200187757600080fd5b505af11580156200188c573d6000803e3d6000fd5b50505050836001600160a01b03168a6001600160a01b0316827f723f73331eaee88eec7fc68ef60ab6ed15e4b90d0472b55eb92fa43910bab6dd8989604051620018e0929190918252602082015260400190565b60405180910390a45050509695505050505050565b60008411620019475760405162461bcd60e51b815260206004820181905260248201527f416d6f756e74206d7573742062652067726561746572207468616e207a65726f604482015260640162000799565b604051806060016040528085815260200183838080601f01602080910402602001604051908101604052809392919081815260200183838082843760009201829052509385525050506020918201869052878152600180835260408083203384528452909120835181559183015190820190620019c5908262003077565b5060409182015160029190910155805185815260208101859052339187917fd7df0c72641d362ea57ecc9cab99c77f936e36bb826f096258c3404196b26d6a910160405180910390a35050505050565b62001a3a60405180606001604052806000815260200160608152602001600081525090565b60008381526001602081815260408084206001600160a01b03871685528252928390208351606081019094528054845291820180549184019162001a7e9062002fe9565b80601f016020809104026020016040519081016040528092919081815260200182805462001aac9062002fe9565b801562001afd5780601f1062001ad15761010080835404028352916020019162001afd565b820191906000526020600020905b81548152906001019060200180831162001adf57829003601f168201915b50505050508152602001600282015481525050905092915050565b836001600160a01b0316816001600160a01b03160362001b8c5760405162461bcd60e51b815260206004820152602860248201527f52656665727265722063616e6e6f74206265207468652073616d652061732074604482015267343290313abcb2b960c11b606482015260840162000799565b6001600160a01b03811662001bf05760405162461bcd60e51b815260206004820152602360248201527f52656665727265722063616e6e6f7420626520746865207a65726f206164647260448201526265737360e81b606482015260840162000799565b306001600160a01b0382160362001c555760405162461bcd60e51b815260206004820152602260248201527f52656665727265722063616e6e6f7420626520746865206d61726b6574706c61604482015261636560f01b606482015260840162000799565b62001c638585858562000fe0565b600060646006543462001c7791906200323e565b62001c83919062003258565b6040519091506001600160a01b0383169082156108fc029083906000818181858888f1935050505015801562001cbd573d6000803e3d6000fd5b506040516001600160a01b0383169087907fdd00276df09eaee9c75cd01b9ae896a08ab3df0de7205e97bd8b526169fe781090600090a3505050505050565b6002602052600090815260409020805460018201805491929162001d209062002fe9565b80601f016020809104026020016040519081016040528092919081815260200182805462001d4e9062002fe9565b801562001d9f5780601f1062001d735761010080835404028352916020019162001d9f565b820191906000526020600020905b81548152906001019060200180831162001d8157829003601f168201915b5050505060028301546003909301549192916001600160a01b0316905084565b62001dc962001f96565b600355565b600160208181526000938452604080852090915291835291208054918101805462001df99062002fe9565b80601f016020809104026020016040519081016040528092919081815260200182805462001e279062002fe9565b801562001e785780601f1062001e4c5761010080835404028352916020019162001e78565b820191906000526020600020905b81548152906001019060200180831162001e5a57829003601f168201915b5050505050908060020154905083565b600081815260016020908152604080832033845290915290205462001ef05760405162461bcd60e51b815260206004820181905260248201527f416d6f756e74206d7573742062652067726561746572207468616e207a65726f604482015260640162000799565b62001efc8133620023be565b604051339082907f9a4dfa8787b349e9b45b60504f991c5c9f9cda8dadabdc8e4a3f4cb8608220a390600090a350565b600080600062001f3d858562002401565b9092509050600081600481111562001f595762001f5962003364565b14801562001f785750856001600160a01b0316826001600160a01b0316145b8062001f8c575062001f8c8686866200244a565b9695505050505050565b600054630100000090046001600160a01b031633148062001fb657503330145b62001ff15760405162461bcd60e51b815260206004820152600a60248201526937b7363c9037bbb732b960b11b604482015260640162000799565b565b60008181526002602052604081208181559062002014600183018262002892565b506000600282015560030180546001600160a01b031916905550565b62000a2e62001f96565b7f4910fdfa16fed3260ed0e7147f7cc6da11a60208b5b9406d12a635614ffd91435460ff16156200207557620020708362002540565b505050565b826001600160a01b03166352d1902d6040518163ffffffff1660e01b8152600401602060405180830381865afa925050508015620020d2575060408051601f3d908101601f19168201909252620020cf9181019062002fcf565b60015b620021375760405162461bcd60e51b815260206004820152602e60248201527f45524331393637557067726164653a206e657720696d706c656d656e7461746960448201526d6f6e206973206e6f74205555505360901b606482015260840162000799565b60008051602062004f338339815191528114620021a95760405162461bcd60e51b815260206004820152602960248201527f45524331393637557067726164653a20756e737570706f727465642070726f786044820152681a58589b195555525160ba1b606482015260840162000799565b5062002070838383620025df565b80341015620022095760405162461bcd60e51b815260206004820152601760248201527f496e73756666696369656e742066756e64732073656e74000000000000000000604482015260640162000799565b6000805462ff00001916620100001781556003546064906200222c90346200323e565b62002238919062003258565b90506001600160a01b0383166108fc6200225383856200327b565b6040518115909202916000818181858888f193505050501580156200227c573d6000803e3d6000fd5b5060006200228b83346200327b565b11156200207057336108fc620022a284346200327b565b6040518115909202916000818181858888f19350505050158015620022cb573d6000803e3d6000fd5b50505050565b600554604051630b7b942160e11b81526001600160a01b03909116906316f72842906200230d908790309088908890829082906004016200337a565b600060405180830381600087803b1580156200232857600080fd5b505af11580156200233d573d6000803e3d6000fd5b5050600554604051633c7c2c8960e21b81526001600160a01b038581166004830152909116925063f1f0b2249150602401600060405180830381600087803b1580156200238957600080fd5b505af11580156200239e573d6000803e3d6000fd5b5050505050505050565b6000620023b78383306200260a565b9392505050565b60008281526001602081815260408084206001600160a01b038616855290915282208281559190620023f39083018262002892565b600282016000905550505050565b60008082516041036200243b5760208301516040840151606085015160001a6200242e8782858562002634565b9450945050505062002443565b506000905060025b9250929050565b6000806000856001600160a01b0316631626ba7e60e01b868660405160240162002476929190620033d6565b60408051601f198184030181529181526020820180516001600160e01b03166001600160e01b0319909416939093179092529051620024b69190620033f1565b600060405180830381855afa9150503d8060008114620024f3576040519150601f19603f3d011682016040523d82523d6000602084013e620024f8565b606091505b50915091508180156200250d57506020815110155b801562001f8c57508051630b135d3f60e11b9062002535908301602090810190840162002fcf565b149695505050505050565b6001600160a01b0381163b620025af5760405162461bcd60e51b815260206004820152602d60248201527f455243313936373a206e657720696d706c656d656e746174696f6e206973206e60448201526c1bdd08184818dbdb9d1c9858dd609a1b606482015260840162000799565b60008051602062004f3383398151915280546001600160a01b0319166001600160a01b0392909216919091179055565b620025ea83620026fd565b600082511180620025f85750805b156200207057620022cb83836200273f565b6000604051836040820152846020820152828152600b8101905060ff815360559020949350505050565b6000807f7fffffffffffffffffffffffffffffff5d576e7357a4501ddfe92f46681b20a08311156200266d5750600090506003620026f4565b6040805160008082526020820180845289905260ff881692820192909252606081018690526080810185905260019060a0016020604051602081039080840390855afa158015620026c2573d6000803e3d6000fd5b5050604051601f1901519150506001600160a01b038116620026ed57600060019250925050620026f4565b9150600090505b94509492505050565b620027088162002540565b6040516001600160a01b038216907fbc7cd75a20ee27fd9adebab32041f755214dbc6bffa90cc0225b39da2e5c2d3b90600090a250565b6060620023b7838360405180606001604052806027815260200162004f53602791396060600080856001600160a01b031685604051620027809190620033f1565b600060405180830381855af49150503d8060008114620027bd576040519150601f19603f3d011682016040523d82523d6000602084013e620027c2565b606091505b509150915062001f8c8683838760608315620028435782516000036200283b576001600160a01b0385163b6200283b5760405162461bcd60e51b815260206004820152601d60248201527f416464726573733a2063616c6c20746f206e6f6e2d636f6e7472616374000000604482015260640162000799565b50816200284f565b6200284f838362002857565b949350505050565b815115620028685781518083602001fd5b8060405162461bcd60e51b81526004016200079991906200340f565b611b0e806200342583390190565b508054620028a09062002fe9565b6000825580601f10620028b1575050565b601f01602090049060005260206000209081019062000a2e91905b80821115620028e25760008155600101620028cc565b5090565b634e487b7160e01b600052604160045260246000fd5b600082601f8301126200290e57600080fd5b813567ffffffffffffffff808211156200292c576200292c620028e6565b604051601f8301601f19908116603f01168101908282118183101715620029575762002957620028e6565b816040528381528660208588010111156200297157600080fd5b836020870160208301376000602085830101528094505050505092915050565b60008060408385031215620029a557600080fd5b82359150602083013567ffffffffffffffff811115620029c457600080fd5b620029d285828601620028fc565b9150509250929050565b80356001600160a01b0381168114620029f457600080fd5b919050565b60006020828403121562002a0c57600080fd5b620023b782620029dc565b60006020828403121562002a2a57600080fd5b5035919050565b6000806000806080858703121562002a4857600080fd5b62002a5385620029dc565b93506020850135925062002a6a60408601620029dc565b915062002a7a60608601620029dc565b905092959194509250565b60008083601f84011262002a9857600080fd5b50813567ffffffffffffffff81111562002ab157600080fd5b6020830191508360208285010111156200244357600080fd5b6000806000806060858703121562002ae157600080fd5b843567ffffffffffffffff81111562002af957600080fd5b62002b078782880162002a85565b90989097506020870135966040013595509350505050565b60008060008060008060a0878903121562002b3957600080fd5b8635955062002b4b60208801620029dc565b945062002b5b60408801620029dc565b935060608701359250608087013567ffffffffffffffff81111562002b7f57600080fd5b62002b8d89828a0162002a85565b979a9699509497509295939492505050565b6000806040838503121562002bb357600080fd5b62002bbe83620029dc565b9150602083013567ffffffffffffffff811115620029c457600080fd5b6000806000806080858703121562002bf257600080fd5b8435935062002c0460208601620029dc565b925060408501359150606085013567ffffffffffffffff81111562002c2857600080fd5b62002c3687828801620028fc565b91505092959194509250565b6000806040838503121562002c5657600080fd5b62002c6183620029dc565b946020939093013593505050565b60008060008060006080868803121562002c8857600080fd5b8535945062002c9a60208701620029dc565b935060408601359250606086013567ffffffffffffffff81111562002cbe57600080fd5b62002ccc8882890162002a85565b969995985093965092949392505050565b60008060008060008060a0878903121562002cf757600080fd5b62002d0287620029dc565b955060208701359450604087013567ffffffffffffffff81111562002d2657600080fd5b62002d3489828a0162002a85565b979a9699509760608101359660809091013595509350505050565b60008060008060006080868803121562002d6857600080fd5b853594506020860135935060408601359250606086013567ffffffffffffffff81111562002cbe57600080fd5b6000806040838503121562002da957600080fd5b8235915062002dbb60208401620029dc565b90509250929050565b60005b8381101562002de157818101518382015260200162002dc7565b50506000910152565b6000815180845262002e0481602086016020860162002dc4565b601f01601f19169290920160200192915050565b6020815281516020820152600060208301516060604084015262002e40608084018262002dea565b9050604084015160608401528091505092915050565b600080600080600060a0868803121562002e6f57600080fd5b8535945062002e8160208701620029dc565b935060408601359250606086013567ffffffffffffffff81111562002ea557600080fd5b62002eb388828901620028fc565b92505062002ec460808701620029dc565b90509295509295909350565b84815260806020820152600062002eeb608083018662002dea565b6040830194909452506001600160a01b039190911660609091015292915050565b83815260606020820152600062002f27606083018562002dea565b9050826040830152949350505050565b6020808252602c908201527f46756e6374696f6e206d7573742062652063616c6c6564207468726f7567682060408201526b19195b1959d85d1958d85b1b60a21b606082015260800190565b6020808252602c908201527f46756e6374696f6e206d7573742062652063616c6c6564207468726f7567682060408201526b6163746976652070726f787960a01b606082015260800190565b60006020828403121562002fe257600080fd5b5051919050565b600181811c9082168062002ffe57607f821691505b6020821081036200301f57634e487b7160e01b600052602260045260246000fd5b50919050565b601f8211156200207057600081815260208120601f850160051c810160208610156200304e5750805b601f850160051c820191505b818110156200306f578281556001016200305a565b505050505050565b815167ffffffffffffffff811115620030945762003094620028e6565b620030ac81620030a5845462002fe9565b8462003025565b602080601f831160018114620030e45760008415620030cb5750858301515b600019600386901b1c1916600185901b1785556200306f565b600085815260208120601f198616915b828110156200311557888601518255948401946001909101908401620030f4565b5085821015620031345787850151600019600388901b60f8161c191681555b5050505050600190811b01905550565b81835281816020850137506000828201602090810191909152601f909101601f19169091010190565b60018060a01b03861681528460208201528360408201526080606082015260006200319d60808301848662003144565b979650505050505050565b600060208284031215620031bb57600080fd5b81518015158114620023b757600080fd5b60018060a01b0384168152826020820152606060408201526000620012e9606083018462002dea565b600083516200320981846020880162002dc4565b8351908301906200321f81836020880162002dc4565b01949350505050565b634e487b7160e01b600052601160045260246000fd5b8082028115828204841417620006bd57620006bd62003228565b6000826200327657634e487b7160e01b600052601260045260246000fd5b500490565b81810381811115620006bd57620006bd62003228565b60018060a01b03841681526000602084818401526060604084015260008454620032bb8162002fe9565b8060608701526080600180841660008114620032e05760018114620032fb576200332b565b60ff1985168984015283151560051b8901830195506200332b565b896000528660002060005b85811015620033235781548b820186015290830190880162003306565b8a0184019650505b50939a9950505050505050505050565b6060815260006200335160608301868862003144565b6020830194909452506040015292915050565b634e487b7160e01b600052602160045260246000fd5b6001600160a01b038781168252861660208201526040810185905260c060608201819052600090620033af9083018662002dea565b84608084015282810360a0840152620033c9818562002dea565b9998505050505050505050565b8281526040602082015260006200284f604083018462002dea565b600082516200340581846020870162002dc4565b9190910192915050565b602081526000620023b7602083018462002dea56fe60e0604052600560a0526004805460ff191690553480156200002057600080fd5b5060405162001b0e38038062001b0e833981016040819052620000439162000269565b6200004e3362000072565b6200005983620000c2565b6001600160a01b039182166080521660c05250620002b3565b600080546001600160a01b038381166001600160a01b0319831681178455604051919092169283917f8be0079c531659141344cd1fd0a4f28419497f9722a3daafe3b4186f6b6457e09190a35050565b620000cc62000145565b6001600160a01b038116620001375760405162461bcd60e51b815260206004820152602660248201527f4f776e61626c653a206e6577206f776e657220697320746865207a65726f206160448201526564647265737360d01b60648201526084015b60405180910390fd5b620001428162000072565b50565b6000546001600160a01b03163314620001f0576001546005541015620001ae5760405162461bcd60e51b815260206004820152601760248201527f496e73756666696369656e742066756e64732073656e7400000000000000000060448201526064016200012e565b60045460ff16620001ee5760405162461bcd60e51b8152602060048201526009602482015268139bdd131a5cdd195960ba1b60448201526064016200012e565b565b6000546001600160a01b03163314620001ee5760405162461bcd60e51b815260206004820181905260248201527f4f776e61626c653a2063616c6c6572206973206e6f7420746865206f776e657260448201526064016200012e565b80516001600160a01b03811681146200026457600080fd5b919050565b6000806000606084860312156200027f57600080fd5b6200028a846200024c565b92506200029a602085016200024c565b9150620002aa604085016200024c565b90509250925092565b60805160a05160c0516117d7620003376000396000818161012001528181610458015281816104d40152818161059601528181610827015281816108aa01528181610c1d01528181610c990152610d570152600081816103140152610ada0152600081816102e00152818161061d015281816106ee0152610b1e01526117d76000f3fe6080604052600436106101095760003560e01c8063722a5fc111610095578063a4b42b3311610064578063a4b42b33146102ac578063c45a0155146102ce578063d575fe6414610302578063d910b05a14610336578063f2fde38b1461036057600080fd5b8063722a5fc11461023b57806381568eb81461025b5780638cdf6bff1461026e5780638da5cb5b1461028e57600080fd5b806329dcb0cf116100dc57806329dcb0cf146101d15780633257b4f3146101e75780633ccfd60b146101fc5780635cacd0d214610211578063715018a61461022657600080fd5b80630aa13b8c1461010e57806314d627d21461015f5780631626ba7e1461017457806324ec7590146101ad575b600080fd5b34801561011a57600080fd5b506101427f000000000000000000000000000000000000000000000000000000000000000081565b6040516001600160a01b0390911681526020015b60405180910390f35b61017261016d36600461121c565b610380565b005b34801561018057600080fd5b5061019461018f36600461126a565b6103e4565b6040516001600160e01b03199091168152602001610156565b3480156101b957600080fd5b506101c360015481565b604051908152602001610156565b3480156101dd57600080fd5b506101c360035481565b3480156101f357600080fd5b506101c3610440565b34801561020857600080fd5b506101726105cd565b34801561021d57600080fd5b50610172610612565b34801561023257600080fd5b506101726106d1565b34801561024757600080fd5b506101726102563660046112b1565b6106e3565b6101726102693660046112ff565b6107b8565b34801561027a57600080fd5b5061017261028936600461137d565b6108a0565b34801561029a57600080fd5b506000546001600160a01b0316610142565b3480156102b857600080fd5b506102c161093f565b6040516101569190611412565b3480156102da57600080fd5b506101427f000000000000000000000000000000000000000000000000000000000000000081565b34801561030e57600080fd5b506101c37f000000000000000000000000000000000000000000000000000000000000000081565b34801561034257600080fd5b506004546103509060ff1681565b6040519015158152602001610156565b34801561036c57600080fd5b5061017261037b36600461142c565b6109cd565b610388610a43565b6103928282610c08565b303361039c610440565b6040513481527f7895bd4ff6323b874827e7c09827afb49db435ec423c8487977702687b53fc499060200160405180910390a46103d8816109cd565b6103e0610d86565b5050565b6000806104036103fc6000546001600160a01b031690565b8585610dbf565b600154600554919250111581806104175750805b1561042e5750630b135d3f60e11b915061043a9050565b506000915061043a9050565b92915050565b604051636ca7f41960e11b81523060048201526000907f00000000000000000000000000000000000000000000000000000000000000006001600160a01b03169063d94fe83290602401602060405180830381865afa1580156104a7573d6000803e3d6000fd5b505050506040513d601f19601f820116820180604052508101906104cb9190611447565b600003610581577f00000000000000000000000000000000000000000000000000000000000000006001600160a01b031663d94fe8326105136000546001600160a01b031690565b6040516001600160e01b031960e084901b1681526001600160a01b0390911660048201526024015b602060405180830381865afa158015610558573d6000803e3d6000fd5b505050506040513d601f19601f8201168201806040525081019061057c9190611447565b905090565b604051636ca7f41960e11b81523060048201527f00000000000000000000000000000000000000000000000000000000000000006001600160a01b03169063d94fe8329060240161053b565b6105d5610e20565b600080546040516001600160a01b03909116914780156108fc02929091818181858888f1935050505015801561060f573d6000803e3d6000fd5b50565b336001600160a01b037f000000000000000000000000000000000000000000000000000000000000000016148061065357506000546001600160a01b031633145b6106785760405162461bcd60e51b815260040161066f90611460565b60405180910390fd5b33610681610440565b7f9e3387d71092fe1d8940a8bd35f19f9ac4261afe1a21988b5cc6d2c67772dfc06001546003546040516106bf929190918252602082015260400190565b60405180910390a36106cf610d86565b565b6106d9610e20565b6106cf6000610f18565b336001600160a01b037f000000000000000000000000000000000000000000000000000000000000000016148061072457506000546001600160a01b031633145b6107405760405162461bcd60e51b815260040161066f90611460565b600261074c8482611531565b50600382905560018181556004805460ff191690911790553361076d610440565b7f98868c46d49b200d82c273c9f28d73265826ca6567690262736450563dfff64c6001546003546040516107ab929190918252602082015260400190565b60405180910390a3505050565b6107c0610a43565b6107ca8484610c08565b6001600160a01b038316336107dd610440565b6040513481527f7895bd4ff6323b874827e7c09827afb49db435ec423c8487977702687b53fc499060200160405180910390a4604051635f22feb160e11b81526001600160a01b037f0000000000000000000000000000000000000000000000000000000000000000169063be45fd6290610860908690869086906004016115f1565b600060405180830381600087803b15801561087a57600080fd5b505af115801561088e573d6000803e3d6000fd5b5050505061089a610d86565b50505050565b6108a8610e20565b7f00000000000000000000000000000000000000000000000000000000000000006001600160a01b031663be45fd626108e96000546001600160a01b031690565b83856040518463ffffffff1660e01b8152600401610909939291906115f1565b600060405180830381600087803b15801561092357600080fd5b505af1158015610937573d6000803e3d6000fd5b505050505050565b6002805461094c906114ac565b80601f0160208091040260200160405190810160405280929190818152602001828054610978906114ac565b80156109c55780601f1061099a576101008083540402835291602001916109c5565b820191906000526020600020905b8154815290600101906020018083116109a857829003601f168201915b505050505081565b6109d5610e20565b6001600160a01b038116610a3a5760405162461bcd60e51b815260206004820152602660248201527f4f776e61626c653a206e6577206f776e657220697320746865207a65726f206160448201526564647265737360d01b606482015260840161066f565b61060f81610f18565b600154341015610a8f5760405162461bcd60e51b8152602060048201526017602482015276125b9cdd59999a58da595b9d08199d5b991cc81cd95b9d604a1b604482015260640161066f565b60045460ff16610acd5760405162461bcd60e51b8152602060048201526009602482015268139bdd131a5cdd195960ba1b604482015260640161066f565b34600581905550600060647f000000000000000000000000000000000000000000000000000000000000000034610b049190611637565b610b0e919061164e565b6040519091506001600160a01b037f0000000000000000000000000000000000000000000000000000000000000000169082156108fc029083906000818181858888f19350505050158015610b67573d6000803e3d6000fd5b506000546001600160a01b03166001600160a01b03166108fc82600154610b8e9190611670565b6040518115909202916000818181858888f19350505050158015610bb6573d6000803e3d6000fd5b50600060015434610bc79190611670565b111561060f5760015433906108fc90610be09034611670565b6040518115909202916000818181858888f193505050501580156103e0573d6000803e3d6000fd5b604051636ca7f41960e11b81523060048201527f00000000000000000000000000000000000000000000000000000000000000006001600160a01b03169063d94fe83290602401602060405180830381865afa158015610c6c573d6000803e3d6000fd5b505050506040513d601f19601f82011682018060405250810190610c909190611447565b600003610d38577f00000000000000000000000000000000000000000000000000000000000000006001600160a01b03166316f72842610cd86000546001600160a01b031690565b6003546040516001600160e01b031960e085901b168152610d059291309160029082908a90600401611683565b600060405180830381600087803b158015610d1f57600080fd5b505af1158015610d33573d6000803e3d6000fd5b505050505b604051633c7c2c8960e21b81526001600160a01b0382811660048301527f0000000000000000000000000000000000000000000000000000000000000000169063f1f0b22490602401610909565b600060058190556040805160208101909152908152600290610da89082611531565b50600060038190556001556004805460ff19169055565b6000806000610dce8585610f68565b90925090506000816004811115610de757610de761174e565b148015610e055750856001600160a01b0316826001600160a01b0316145b80610e165750610e16868686610fad565b9695505050505050565b6000546001600160a01b03163314610ebe576001546005541015610e805760405162461bcd60e51b8152602060048201526017602482015276125b9cdd59999a58da595b9d08199d5b991cc81cd95b9d604a1b604482015260640161066f565b60045460ff166106cf5760405162461bcd60e51b8152602060048201526009602482015268139bdd131a5cdd195960ba1b604482015260640161066f565b6000546001600160a01b031633146106cf5760405162461bcd60e51b815260206004820181905260248201527f4f776e61626c653a2063616c6c6572206973206e6f7420746865206f776e6572604482015260640161066f565b600080546001600160a01b038381166001600160a01b0319831681178455604051919092169283917f8be0079c531659141344cd1fd0a4f28419497f9722a3daafe3b4186f6b6457e09190a35050565b6000808251604103610f9e5760208301516040840151606085015160001a610f9287828585611099565b94509450505050610fa6565b506000905060025b9250929050565b6000806000856001600160a01b0316631626ba7e60e01b8686604051602401610fd7929190611764565b60408051601f198184030181529181526020820180516001600160e01b03166001600160e01b03199094169390931790925290516110159190611785565b600060405180830381855afa9150503d8060008114611050576040519150601f19603f3d011682016040523d82523d6000602084013e611055565b606091505b509150915081801561106957506020815110155b8015610e1657508051630b135d3f60e11b9061108e9083016020908101908401611447565b149695505050505050565b6000807f7fffffffffffffffffffffffffffffff5d576e7357a4501ddfe92f46681b20a08311156110d05750600090506003611154565b6040805160008082526020820180845289905260ff881692820192909252606081018690526080810185905260019060a0016020604051602081039080840390855afa158015611124573d6000803e3d6000fd5b5050604051601f1901519150506001600160a01b03811661114d57600060019250925050611154565b9150600090505b94509492505050565b634e487b7160e01b600052604160045260246000fd5b600082601f83011261118457600080fd5b813567ffffffffffffffff8082111561119f5761119f61115d565b604051601f8301601f19908116603f011681019082821181831017156111c7576111c761115d565b816040528381528660208588010111156111e057600080fd5b836020870160208301376000602085830101528094505050505092915050565b80356001600160a01b038116811461121757600080fd5b919050565b6000806040838503121561122f57600080fd5b823567ffffffffffffffff81111561124657600080fd5b61125285828601611173565b92505061126160208401611200565b90509250929050565b6000806040838503121561127d57600080fd5b82359150602083013567ffffffffffffffff81111561129b57600080fd5b6112a785828601611173565b9150509250929050565b6000806000606084860312156112c657600080fd5b833567ffffffffffffffff8111156112dd57600080fd5b6112e986828701611173565b9660208601359650604090950135949350505050565b6000806000806080858703121561131557600080fd5b843567ffffffffffffffff8082111561132d57600080fd5b61133988838901611173565b955061134760208801611200565b945060408701359350606087013591508082111561136457600080fd5b5061137187828801611173565b91505092959194509250565b6000806040838503121561139057600080fd5b823567ffffffffffffffff8111156113a757600080fd5b6113b385828601611173565b95602094909401359450505050565b60005b838110156113dd5781810151838201526020016113c5565b50506000910152565b600081518084526113fe8160208601602086016113c2565b601f01601f19169290920160200192915050565b60208152600061142560208301846113e6565b9392505050565b60006020828403121561143e57600080fd5b61142582611200565b60006020828403121561145957600080fd5b5051919050565b6020808252602c908201527f4f6e6c7920666163746f7279206f72206f776e65722063616e2063616c6c207460408201526b3434b990333ab731ba34b7b760a11b606082015260800190565b600181811c908216806114c057607f821691505b6020821081036114e057634e487b7160e01b600052602260045260246000fd5b50919050565b601f82111561152c57600081815260208120601f850160051c8101602086101561150d5750805b601f850160051c820191505b8181101561093757828155600101611519565b505050565b815167ffffffffffffffff81111561154b5761154b61115d565b61155f8161155984546114ac565b846114e6565b602080601f831160018114611594576000841561157c5750858301515b600019600386901b1c1916600185901b178555610937565b600085815260208120601f198616915b828110156115c3578886015182559484019460019091019084016115a4565b50858210156115e15787850151600019600388901b60f8161c191681555b5050505050600190811b01905550565b60018060a01b038416815282602082015260606040820152600061161860608301846113e6565b95945050505050565b634e487b7160e01b600052601160045260246000fd5b808202811582820484141761043a5761043a611621565b60008261166b57634e487b7160e01b600052601260045260246000fd5b500490565b8181038181111561043a5761043a611621565b6001600160a01b03878116825286166020808301919091526040820186905260c06060830152845460009182916116b9816114ac565b8060c087015260e06001808416600081146116db57600181146116f557611723565b60ff1985168984015283151560051b890183019650611723565b8b6000528560002060005b8581101561171b5781548b8201860152908301908701611700565b8a0184019750505b50505050505084608084015282810360a084015261174181856113e6565b9998505050505050505050565b634e487b7160e01b600052602160045260246000fd5b82815260406020820152600061177d60408301846113e6565b949350505050565b600082516117978184602087016113c2565b919091019291505056fea2646970667358221220c45bba7ebb51d6243bf6effd4664d72995071801b5a2862770f1f18e78a8f92d64736f6c63430008150033360894a13ba1a3210667c828492db98dca3e2076cc3735a920a3ca505d382bbc416464726573733a206c6f772d6c6576656c2064656c65676174652063616c6c206661696c6564a26469706673582212208fe3e006ed14c381aff91bf21340a6faf6212665a3dea342f90e8e763e68620264736f6c63430008150033",
  "linkReferences": {},
  "deployedLinkReferences": {}
}