{
  "_format": "hh-sol-artifact-1",
  "contractName": "NFTMarketplace",
  "sourceName": "contracts/NFTMarketplace.sol",
  "abi": [
    {
      "inputs": [
        {
          "internalType": "uint256",
          "name": "version",
          "type": "uint256"
        }
      ],
      "stateMutability": "nonpayable",
      "type": "constructor"
    },
    {
      "anonymous": false,
      "inputs": [
        {
          "indexed": false,
          "internalType": "address",
          "name": "previousAdmin",
          "type": "address"
        },
        {
          "indexed": false,
          "internalType": "address",
          "name": "newAdmin",
          "type": "address"
        }
      ],
      "name": "AdminChanged",
      "type": "event"
    },
    {
      "anonymous": false,
      "inputs": [
        {
          "indexed": true,
          "internalType": "address",
          "name": "beacon",
          "type": "address"
        }
      ],
      "name": "BeaconUpgraded",
      "type": "event"
    },
    {
      "anonymous": false,
      "inputs": [
        {
          "indexed": true,
          "internalType": "address",
          "name": "nftContract",
          "type": "address"
        },
        {
          "indexed": true,
          "internalType": "uint256",
          "name": "tokenId",
          "type": "uint256"
        },
        {
          "indexed": true,
          "internalType": "address",
          "name": "buyer",
          "type": "address"
        },
        {
          "indexed": false,
          "internalType": "uint256",
          "name": "amount",
          "type": "uint256"
        }
      ],
      "name": "Bought",
      "type": "event"
    },
    {
      "anonymous": false,
      "inputs": [
        {
          "indexed": true,
          "internalType": "address",
          "name": "nftContract",
          "type": "address"
        },
        {
          "indexed": true,
          "internalType": "uint256",
          "name": "tokenId",
          "type": "uint256"
        }
      ],
      "name": "Canceled",
      "type": "event"
    },
    {
      "anonymous": false,
      "inputs": [
        {
          "indexed": false,
          "internalType": "uint8",
          "name": "version",
          "type": "uint8"
        }
      ],
      "name": "Initialized",
      "type": "event"
    },
    {
      "anonymous": false,
      "inputs": [
        {
          "indexed": true,
          "internalType": "address",
          "name": "nftContract",
          "type": "address"
        },
        {
          "indexed": true,
          "internalType": "uint256",
          "name": "tokenId",
          "type": "uint256"
        },
        {
          "indexed": true,
          "internalType": "address",
          "name": "owner",
          "type": "address"
        },
        {
          "indexed": false,
          "internalType": "uint256",
          "name": "price",
          "type": "uint256"
        },
        {
          "indexed": false,
          "internalType": "uint256",
          "name": "deadline",
          "type": "uint256"
        }
      ],
      "name": "Listed",
      "type": "event"
    },
    {
      "anonymous": false,
      "inputs": [
        {
          "indexed": true,
          "internalType": "address",
          "name": "nftContract",
          "type": "address"
        },
        {
          "indexed": false,
          "internalType": "bool",
          "name": "isWhitelisted",
          "type": "bool"
        }
      ],
      "name": "NFTWhitelisted",
      "type": "event"
    },
    {
      "anonymous": false,
      "inputs": [
        {
          "indexed": true,
          "internalType": "address",
          "name": "nftContract",
          "type": "address"
        },
        {
          "indexed": true,
          "internalType": "uint256",
          "name": "tokenId",
          "type": "uint256"
        },
        {
          "indexed": true,
          "internalType": "address",
          "name": "buyer",
          "type": "address"
        },
        {
          "indexed": false,
          "internalType": "uint256",
          "name": "amount",
          "type": "uint256"
        }
      ],
      "name": "OfferApproved",
      "type": "event"
    },
    {
      "anonymous": false,
      "inputs": [
        {
          "indexed": true,
          "internalType": "address",
          "name": "nftContract",
          "type": "address"
        },
        {
          "indexed": true,
          "internalType": "uint256",
          "name": "tokenId",
          "type": "uint256"
        },
        {
          "indexed": true,
          "internalType": "address",
          "name": "buyer",
          "type": "address"
        }
      ],
      "name": "OfferCanceled",
      "type": "event"
    },
    {
      "anonymous": false,
      "inputs": [
        {
          "indexed": true,
          "internalType": "address",
          "name": "nftContract",
          "type": "address"
        },
        {
          "indexed": true,
          "internalType": "uint256",
          "name": "tokenId",
          "type": "uint256"
        },
        {
          "indexed": true,
          "internalType": "address",
          "name": "buyer",
          "type": "address"
        },
        {
          "indexed": false,
          "internalType": "uint256",
          "name": "amount",
          "type": "uint256"
        },
        {
          "indexed": false,
          "internalType": "uint256",
          "name": "deadline",
          "type": "uint256"
        }
      ],
      "name": "OfferMade",
      "type": "event"
    },
    {
      "anonymous": false,
      "inputs": [
        {
          "indexed": true,
          "internalType": "address",
          "name": "previousOwner",
          "type": "address"
        },
        {
          "indexed": true,
          "internalType": "address",
          "name": "newOwner",
          "type": "address"
        }
      ],
      "name": "OwnershipTransferred",
      "type": "event"
    },
    {
      "anonymous": false,
      "inputs": [
        {
          "indexed": false,
          "internalType": "address",
          "name": "account",
          "type": "address"
        }
      ],
      "name": "Paused",
      "type": "event"
    },
    {
      "anonymous": false,
      "inputs": [
        {
          "indexed": true,
          "internalType": "address",
          "name": "nftContract",
          "type": "address"
        },
        {
          "indexed": true,
          "internalType": "uint256",
          "name": "tokenId",
          "type": "uint256"
        },
        {
          "indexed": true,
          "internalType": "address",
          "name": "referrer",
          "type": "address"
        }
      ],
      "name": "Referred",
      "type": "event"
    },
    {
      "anonymous": false,
      "inputs": [
        {
          "indexed": false,
          "internalType": "address",
          "name": "account",
          "type": "address"
        }
      ],
      "name": "Unpaused",
      "type": "event"
    },
    {
      "anonymous": false,
      "inputs": [
        {
          "indexed": true,
          "internalType": "address",
          "name": "implementation",
          "type": "address"
        }
      ],
      "name": "Upgraded",
      "type": "event"
    },
    {
      "inputs": [],
      "name": "MAX_PRICE",
      "outputs": [
        {
          "internalType": "uint256",
          "name": "",
          "type": "uint256"
        }
      ],
      "stateMutability": "view",
      "type": "function"
    },
    {
      "inputs": [
        {
          "internalType": "address",
          "name": "nftContract",
          "type": "address"
        },
        {
          "internalType": "uint256",
          "name": "tokenId",
          "type": "uint256"
        },
        {
          "internalType": "address",
          "name": "buyer",
          "type": "address"
        }
      ],
      "name": "approveOffer",
      "outputs": [],
      "stateMutability": "nonpayable",
      "type": "function"
    },
    {
      "inputs": [
        {
          "internalType": "address",
          "name": "nftContract",
          "type": "address"
        },
        {
          "internalType": "uint256",
          "name": "tokenId",
          "type": "uint256"
        }
      ],
      "name": "buy",
      "outputs": [],
      "stateMutability": "payable",
      "type": "function"
    },
    {
      "inputs": [
        {
          "internalType": "address",
          "name": "nftContract",
          "type": "address"
        },
        {
          "internalType": "uint256",
          "name": "tokenId",
          "type": "uint256"
        },
        {
          "internalType": "address",
          "name": "referrer",
          "type": "address"
        }
      ],
      "name": "buyWithReferral",
      "outputs": [],
      "stateMutability": "payable",
      "type": "function"
    },
    {
      "inputs": [
        {
          "internalType": "address",
          "name": "nftContract",
          "type": "address"
        },
        {
          "internalType": "uint256",
          "name": "tokenId",
          "type": "uint256"
        }
      ],
      "name": "cancelListing",
      "outputs": [],
      "stateMutability": "nonpayable",
      "type": "function"
    },
    {
      "inputs": [
        {
          "internalType": "address",
          "name": "nftContract",
          "type": "address"
        },
        {
          "internalType": "uint256",
          "name": "tokenId",
          "type": "uint256"
        }
      ],
      "name": "cancelOffer",
      "outputs": [],
      "stateMutability": "nonpayable",
      "type": "function"
    },
    {
      "inputs": [],
      "name": "commissionPercentage",
      "outputs": [
        {
          "internalType": "uint256",
          "name": "",
          "type": "uint256"
        }
      ],
      "stateMutability": "view",
      "type": "function"
    },
    {
      "inputs": [
        {
          "internalType": "address",
          "name": "anOwner",
          "type": "address"
        },
        {
          "internalType": "uint256",
          "name": "_commissionPercentage",
          "type": "uint256"
        },
        {
          "internalType": "address",
          "name": "_wethAddress",
          "type": "address"
        }
      ],
      "name": "initialize",
      "outputs": [],
      "stateMutability": "nonpayable",
      "type": "function"
    },
    {
      "inputs": [
        {
          "internalType": "address",
          "name": "nftContract",
          "type": "address"
        },
        {
          "internalType": "uint256",
          "name": "tokenId",
          "type": "uint256"
        },
        {
          "internalType": "uint256",
          "name": "minPrice",
          "type": "uint256"
        },
        {
          "internalType": "uint256",
          "name": "deadline",
          "type": "uint256"
        }
      ],
      "name": "list",
      "outputs": [],
      "stateMutability": "nonpayable",
      "type": "function"
    },
    {
      "inputs": [
        {
          "internalType": "address",
          "name": "",
          "type": "address"
        },
        {
          "internalType": "uint256",
          "name": "",
          "type": "uint256"
        }
      ],
      "name": "listings",
      "outputs": [
        {
          "internalType": "uint256",
          "name": "minPrice",
          "type": "uint256"
        },
        {
          "internalType": "uint256",
          "name": "deadline",
          "type": "uint256"
        },
        {
          "internalType": "address",
          "name": "owner",
          "type": "address"
        }
      ],
      "stateMutability": "view",
      "type": "function"
    },
    {
      "inputs": [
        {
          "internalType": "address",
          "name": "nftContract",
          "type": "address"
        },
        {
          "internalType": "uint256",
          "name": "tokenId",
          "type": "uint256"
        },
        {
          "internalType": "uint256",
          "name": "amount",
          "type": "uint256"
        },
        {
          "internalType": "uint256",
          "name": "deadline",
          "type": "uint256"
        }
      ],
      "name": "makeOffer",
      "outputs": [],
      "stateMutability": "nonpayable",
      "type": "function"
    },
    {
      "inputs": [
        {
          "internalType": "address",
          "name": "",
          "type": "address"
        },
        {
          "internalType": "uint256",
          "name": "",
          "type": "uint256"
        },
        {
          "internalType": "address",
          "name": "",
          "type": "address"
        }
      ],
      "name": "offers",
      "outputs": [
        {
          "internalType": "uint256",
          "name": "amount",
          "type": "uint256"
        },
        {
          "internalType": "uint256",
          "name": "deadline",
          "type": "uint256"
        }
      ],
      "stateMutability": "view",
      "type": "function"
    },
    {
      "inputs": [],
      "name": "owner",
      "outputs": [
        {
          "internalType": "address",
          "name": "",
          "type": "address"
        }
      ],
      "stateMutability": "view",
      "type": "function"
    },
    {
      "inputs": [],
      "name": "pause",
      "outputs": [],
      "stateMutability": "nonpayable",
      "type": "function"
    },
    {
      "inputs": [],
      "name": "paused",
      "outputs": [
        {
          "internalType": "bool",
          "name": "",
          "type": "bool"
        }
      ],
      "stateMutability": "view",
      "type": "function"
    },
    {
      "inputs": [],
      "name": "proxiableUUID",
      "outputs": [
        {
          "internalType": "bytes32",
          "name": "",
          "type": "bytes32"
        }
      ],
      "stateMutability": "view",
      "type": "function"
    },
    {
      "inputs": [],
      "name": "referralPercentage",
      "outputs": [
        {
          "internalType": "uint256",
          "name": "",
          "type": "uint256"
        }
      ],
      "stateMutability": "view",
      "type": "function"
    },
    {
      "inputs": [],
      "name": "renounceOwnership",
      "outputs": [],
      "stateMutability": "nonpayable",
      "type": "function"
    },
    {
      "inputs": [
        {
          "internalType": "uint256",
          "name": "_commissionPercentage",
          "type": "uint256"
        }
      ],
      "name": "setCommissionPercentage",
      "outputs": [],
      "stateMutability": "nonpayable",
      "type": "function"
    },
    {
      "inputs": [
        {
          "internalType": "address",
          "name": "nftContract",
          "type": "address"
        },
        {
          "internalType": "bool",
          "name": "isWhitelisted",
          "type": "bool"
        }
      ],
      "name": "setNFTWhitelist",
      "outputs": [],
      "stateMutability": "nonpayable",
      "type": "function"
    },
    {
      "inputs": [
        {
          "internalType": "uint256",
          "name": "_referralPercentage",
          "type": "uint256"
        }
      ],
      "name": "setReferralPercentage",
      "outputs": [],
      "stateMutability": "nonpayable",
      "type": "function"
    },
    {
      "inputs": [
        {
          "internalType": "address",
          "name": "_wethAddress",
          "type": "address"
        }
      ],
      "name": "setWETH",
      "outputs": [],
      "stateMutability": "nonpayable",
      "type": "function"
    },
    {
      "inputs": [
        {
          "internalType": "address",
          "name": "newOwner",
          "type": "address"
        }
      ],
      "name": "transferOwnership",
      "outputs": [],
      "stateMutability": "nonpayable",
      "type": "function"
    },
    {
      "inputs": [],
      "name": "unpause",
      "outputs": [],
      "stateMutability": "nonpayable",
      "type": "function"
    },
    {
      "inputs": [
        {
          "internalType": "address",
          "name": "newImplementation",
          "type": "address"
        }
      ],
      "name": "upgradeTo",
      "outputs": [],
      "stateMutability": "nonpayable",
      "type": "function"
    },
    {
      "inputs": [
        {
          "internalType": "address",
          "name": "newImplementation",
          "type": "address"
        },
        {
          "internalType": "bytes",
          "name": "data",
          "type": "bytes"
        }
      ],
      "name": "upgradeToAndCall",
      "outputs": [],
      "stateMutability": "payable",
      "type": "function"
    },
    {
      "inputs": [],
      "name": "weth",
      "outputs": [
        {
          "internalType": "contract IERC20",
          "name": "",
          "type": "address"
        }
      ],
      "stateMutability": "view",
      "type": "function"
    },
    {
      "inputs": [
        {
          "internalType": "address",
          "name": "",
          "type": "address"
        }
      ],
      "name": "whitelistedNFTs",
      "outputs": [
        {
          "internalType": "bool",
          "name": "",
          "type": "bool"
        }
      ],
      "stateMutability": "view",
      "type": "function"
    },
    {
      "inputs": [],
      "name": "withdraw",
      "outputs": [],
      "stateMutability": "nonpayable",
      "type": "function"
    },
    {
      "stateMutability": "payable",
      "type": "receive"
    }
  ],
  "bytecode": "0x60a0604052306080523480156200001557600080fd5b506040516200266d3803806200266d833981016040819052620000389162000182565b62000043336200006b565b60018080556002805460ff19169055811115620000645762000064620000bb565b506200019c565b600080546001600160a01b038381166001600160a01b0319831681178455604051919092169283917f8be0079c531659141344cd1fd0a4f28419497f9722a3daafe3b4186f6b6457e09190a35050565b60025462010000900460ff1615620001295760405162461bcd60e51b815260206004820152602760248201527f496e697469616c697a61626c653a20636f6e747261637420697320696e697469604482015266616c697a696e6760c81b606482015260840160405180910390fd5b600254610100900460ff9081161462000180576002805461ff00191661ff0017905560405160ff81527f7f26b83ff96e1f2b6a682f133852f6798a09c465da95921460cefb38474024989060200160405180910390a15b565b6000602082840312156200019557600080fd5b5051919050565b608051612499620001d460003960008181610691015281816106d101528181610a0401528181610a440152610ad701526124996000f3fe6080604052600436106101c55760003560e01c80635b769f3c116100f7578063b2ddee0611610095578063d3f494cc11610064578063d3f494cc14610516578063d575fe6414610570578063eb4aa83014610586578063f2fde38b146105a657600080fd5b8063b2ddee06146104a3578063bb74a1c2146104c3578063c350a1b5146104e3578063cce7ec131461050357600080fd5b80638456cb59116100d15780638456cb591461043a5780638da5cb5b1461044f57806396ea8b9c1461046d578063a0311bd41461048357600080fd5b80635b769f3c146103ed5780635c975abb1461040d578063715018a61461042557600080fd5b80633f0c188f116101645780634636af111161013e5780634636af11146103855780634f1ef286146103a557806352d1902d146103b8578063557a2e01146103cd57600080fd5b80633f0c188f146102f85780633f4ba83a146103385780633fc8cef31461034d57600080fd5b80633659cfe6116101a05780633659cfe61461029057806336606af2146102b057806339b87c8f146102c35780633ccfd60b146102e357600080fd5b806207df30146101d157806301c11d961461024a578063058a56ac1461026e57600080fd5b366101cc57005b600080fd5b3480156101dd57600080fd5b506102216101ec366004611fd3565b60046020908152600092835260408084209091529082529020805460018201546002909201549091906001600160a01b031683565b6040805193845260208401929092526001600160a01b0316908201526060015b60405180910390f35b34801561025657600080fd5b5061026060001981565b604051908152602001610241565b34801561027a57600080fd5b5061028e610289366004611fd3565b6105c6565b005b34801561029c57600080fd5b5061028e6102ab366004611fff565b610687565b61028e6102be366004612023565b610766565b3480156102cf57600080fd5b5061028e6102de366004612065565b610932565b3480156102ef57600080fd5b5061028e61093f565b34801561030457600080fd5b50610328610313366004611fff565b60086020526000908152604090205460ff1681565b6040519015158152602001610241565b34801561034457600080fd5b5061028e610981565b34801561035957600080fd5b5060075461036d906001600160a01b031681565b6040516001600160a01b039091168152602001610241565b34801561039157600080fd5b5061028e6103a036600461208c565b610993565b61028e6103b33660046120db565b6109fa565b3480156103c457600080fd5b50610260610aca565b3480156103d957600080fd5b5061028e6103e8366004612023565b610b7d565b3480156103f957600080fd5b5061028e610408366004611fff565b610fbb565b34801561041957600080fd5b5060025460ff16610328565b34801561043157600080fd5b5061028e610fe5565b34801561044657600080fd5b5061028e610ff7565b34801561045b57600080fd5b506000546001600160a01b031661036d565b34801561047957600080fd5b5061026060065481565b34801561048f57600080fd5b5061028e61049e366004612065565b611007565b3480156104af57600080fd5b5061028e6104be366004611fd3565b611014565b3480156104cf57600080fd5b5061028e6104de36600461219f565b6110a7565b3480156104ef57600080fd5b5061028e6104fe366004612023565b611327565b61028e610511366004611fd3565b61146c565b34801561052257600080fd5b5061055b610531366004612023565b60036020908152600093845260408085208252928452828420905282529020805460019091015482565b60408051928352602083019190915201610241565b34801561057c57600080fd5b5061026060055481565b34801561059257600080fd5b5061028e6105a136600461219f565b611786565b3480156105b257600080fd5b5061028e6105c1366004611fff565b6118e7565b6105ce61195d565b6001600160a01b038216600090815260036020908152604080832084845282528083203384529091529020546106405760405162461bcd60e51b8152602060048201526012602482015271139bc81bd999995c881d1bc818d85b98d95b60721b60448201526064015b60405180910390fd5b61064b8282336119a3565b604051339082906001600160a01b038516907f2067c3c1b93d59a0414fb205a0e71a832980282ff4ebd1e51cf3ac0a3c6c34d090600090a45050565b6001600160a01b037f00000000000000000000000000000000000000000000000000000000000000001630036106cf5760405162461bcd60e51b8152600401610637906121da565b7f00000000000000000000000000000000000000000000000000000000000000006001600160a01b031661071860008051602061241d833981519152546001600160a01b031690565b6001600160a01b03161461073e5760405162461bcd60e51b815260040161063790612226565b610747816119db565b60408051600080825260208201909252610763918391906119e3565b50565b61076e61195d565b336001600160a01b038216036107c65760405162461bcd60e51b815260206004820152601c60248201527f52656665727265722063616e6e6f7420626520746865206275796572000000006044820152606401610637565b6001600160a01b0381166108285760405162461bcd60e51b815260206004820152602360248201527f52656665727265722063616e6e6f7420626520746865207a65726f206164647260448201526265737360e81b6064820152608401610637565b306001600160a01b0382160361088b5760405162461bcd60e51b815260206004820152602260248201527f52656665727265722063616e6e6f7420626520746865206d61726b6574706c61604482015261636560f01b6064820152608401610637565b610895838361146c565b60006064600654346108a79190612288565b6108b1919061229f565b6040519091506001600160a01b0383169082156108fc029083906000818181858888f193505050501580156108ea573d6000803e3d6000fd5b50816001600160a01b031683856001600160a01b03167f58b54a9812cb503b1a70f52e2331a597549ff0f61fd7dc549eb502659cf3aaf460405160405180910390a450505050565b61093a611b4e565b600555565b610947611b4e565b600080546040516001600160a01b03909116914780156108fc02929091818181858888f19350505050158015610763573d6000803e3d6000fd5b610989611b4e565b610991611ba8565b565b61099b611b4e565b6001600160a01b038216600081815260086020908152604091829020805460ff191685151590811790915591519182527f2c10bc6cefab6fd0600dcb515a58acd082099f239822a057da90233e9c4f48c5910160405180910390a25050565b6001600160a01b037f0000000000000000000000000000000000000000000000000000000000000000163003610a425760405162461bcd60e51b8152600401610637906121da565b7f00000000000000000000000000000000000000000000000000000000000000006001600160a01b0316610a8b60008051602061241d833981519152546001600160a01b031690565b6001600160a01b031614610ab15760405162461bcd60e51b815260040161063790612226565b610aba826119db565b610ac6828260016119e3565b5050565b6000306001600160a01b037f00000000000000000000000000000000000000000000000000000000000000001614610b6a5760405162461bcd60e51b815260206004820152603860248201527f555550535570677261646561626c653a206d757374206e6f742062652063616c60448201527f6c6564207468726f7567682064656c656761746563616c6c00000000000000006064820152608401610637565b5060008051602061241d83398151915290565b610b85611bfa565b610b8d61195d565b6001600160a01b03831660009081526008602052604090205460ff16610bc55760405162461bcd60e51b8152600401610637906122c1565b6040516331a9108f60e11b81526004810183905233906001600160a01b03851690636352211e90602401602060405180830381865afa158015610c0c573d6000803e3d6000fd5b505050506040513d601f19601f82011682018060405250810190610c3091906122f8565b6001600160a01b031614610c565760405162461bcd60e51b815260040161063790612315565b60405163e985e9c560e01b81523360048201523060248201526001600160a01b0384169063e985e9c590604401602060405180830381865afa158015610ca0573d6000803e3d6000fd5b505050506040513d601f19601f82011682018060405250810190610cc4919061233c565b610d105760405162461bcd60e51b815260206004820152601c60248201527f4e6f7420617070726f76656420666f72206d61726b6574706c616365000000006044820152606401610637565b6001600160a01b03808416600090815260036020908152604080832086845282528083209385168352929052208054610d815760405162461bcd60e51b81526020600482015260136024820152724e6f206f6666657220746f20617070726f766560681b6044820152606401610637565b8060010154421115610dc55760405162461bcd60e51b815260206004820152600d60248201526c13d999995c88195e1c1a5c9959609a1b6044820152606401610637565b600060646005548360000154610ddb9190612288565b610de5919061229f565b90506000818360000154610df99190612359565b9050610e068686866119a3565b6007546040516323b872dd60e01b81526001600160a01b03909116906323b872dd90610e3a9087903090879060040161236c565b6020604051808303816000875af1158015610e59573d6000803e3d6000fd5b505050506040513d601f19601f82011682018060405250810190610e7d919061233c565b506007546040516323b872dd60e01b81526001600160a01b03909116906323b872dd90610eb29087903390869060040161236c565b6020604051808303816000875af1158015610ed1573d6000803e3d6000fd5b505050506040513d601f19601f82011682018060405250810190610ef5919061233c565b50604051632142170760e11b81526001600160a01b038716906342842e0e90610f2690339088908a9060040161236c565b600060405180830381600087803b158015610f4057600080fd5b505af1158015610f54573d6000803e3d6000fd5b50505050836001600160a01b031685876001600160a01b03167f7ed5731d9f2375d2bfbb722591b0b1c4bedf36d9a09d575bef96069a13ea737f8660000154604051610fa291815260200190565b60405180910390a4505050610fb660018055565b505050565b610fc3611b4e565b600780546001600160a01b0319166001600160a01b0392909216919091179055565b610fed611b4e565b6109916000611c53565b610fff611b4e565b610991611ca3565b61100f611b4e565b600655565b61101c61195d565b6001600160a01b0382811660009081526004602090815260408083208584529091529020600201541633146110635760405162461bcd60e51b815260040161063790612315565b61106d8282611ce0565b60405181906001600160a01b038416907ff3a6ef5718c05d9183af076f5753197b68b04552a763c34796637d6134bdd0f290600090a35050565b6110af61195d565b6001600160a01b03841660009081526008602052604090205460ff166110e75760405162461bcd60e51b8152600401610637906122c1565b6040516331a9108f60e11b81526004810184905233906001600160a01b03861690636352211e90602401602060405180830381865afa15801561112e573d6000803e3d6000fd5b505050506040513d601f19601f8201168201806040525081019061115291906122f8565b6001600160a01b0316146111785760405162461bcd60e51b815260040161063790612315565b60405163e985e9c560e01b81523360048201523060248201526001600160a01b0385169063e985e9c590604401602060405180830381865afa1580156111c2573d6000803e3d6000fd5b505050506040513d601f19601f820116820180604052508101906111e6919061233c565b6112325760405162461bcd60e51b815260206004820152601c60248201527f4e6f7420617070726f76656420666f72206d61726b6574706c616365000000006044820152606401610637565b4281116112815760405162461bcd60e51b815260206004820152601e60248201527f446561646c696e65206d75737420626520696e207468652066757475726500006044820152606401610637565b604080516060810182528381526020808201848152338385018181526001600160a01b038a81166000818152600487528881208c8252875288902096518755935160018701559051600290950180546001600160a01b0319169590911694909417909355835186815291820185905291928692917f99b65374346383a040940ed61a2170abf4249c41caf3dee629abfb1d23c477be91015b60405180910390a450505050565b60025462010000900460ff161580801561134c5750600254600161010090910460ff16105b8061136c5750303b15801561136c575060025460ff610100909104166001145b6113cf5760405162461bcd60e51b815260206004820152602e60248201527f496e697469616c697a61626c653a20636f6e747261637420697320616c72656160448201526d191e481a5b9a5d1a585b1a5e995960921b6064820152608401610637565b6002805461ff00191661010017905580156113f6576002805462ff00001916620100001790555b6113ff84611c53565b6005839055600780546001600160a01b0319166001600160a01b0384161790558015611466576002805462ff000019169055604051600181527f7f26b83ff96e1f2b6a682f133852f6798a09c465da95921460cefb38474024989060200160405180910390a15b50505050565b611474611bfa565b61147c61195d565b6001600160a01b03821660009081526008602052604090205460ff166114b45760405162461bcd60e51b8152600401610637906122c1565b6001600160a01b03821660009081526004602090815260408083208484529091529020546115115760405162461bcd60e51b815260206004820152600a602482015269139bdd081b1a5cdd195960b21b6044820152606401610637565b6001600160a01b03821660009081526004602090815260408083208484529091529020543410156115845760405162461bcd60e51b815260206004820152601760248201527f496e73756666696369656e742066756e64732073656e740000000000000000006044820152606401610637565b6001600160a01b03821660009081526004602090815260408083208484529091529020600101544211156115ec5760405162461bcd60e51b815260206004820152600f60248201526e131a5cdd1a5b99c8195e1c1a5c9959608a1b6044820152606401610637565b6001600160a01b0382811660009081526004602090815260408083208584529091528120600281015490546005549190931692919060649061162e9084612288565b611638919061229f565b905060006116468284612359565b90506116528686611ce0565b604051632142170760e11b81526001600160a01b038716906342842e0e9061168290879033908a9060040161236c565b600060405180830381600087803b15801561169c57600080fd5b505af11580156116b0573d6000803e3d6000fd5b50506040516001600160a01b038716925083156108fc02915083906000818181858888f193505050501580156116ea573d6000803e3d6000fd5b508234111561172b57336108fc6117018534612359565b6040518115909202916000818181858888f19350505050158015611729573d6000803e3d6000fd5b505b336001600160a01b031685876001600160a01b03167fbe39bcb4b5645ce3e99dc49d095db856201db6af874a4d39b96cd1ed4a06a11d8660405161177191815260200190565b60405180910390a450505050610ac660018055565b61178e61195d565b6001600160a01b03841660009081526008602052604090205460ff166117c65760405162461bcd60e51b8152600401610637906122c1565b600082116118165760405162461bcd60e51b815260206004820181905260248201527f416d6f756e74206d7573742062652067726561746572207468616e207a65726f6044820152606401610637565b4281116118655760405162461bcd60e51b815260206004820152601e60248201527f446561646c696e65206d75737420626520696e207468652066757475726500006044820152606401610637565b60408051808201825283815260208082018481526001600160a01b038816600081815260038452858120898252845285812033808352908552908690209451855591516001909401939093558351868152918201859052928692917ece0a712e4e277ac7b34942865f0de7a5629dffe0539b70423ad5ff1ed6ab429101611319565b6118ef611b4e565b6001600160a01b0381166119545760405162461bcd60e51b815260206004820152602660248201527f4f776e61626c653a206e6577206f776e657220697320746865207a65726f206160448201526564647265737360d01b6064820152608401610637565b61076381611c53565b60025460ff16156109915760405162461bcd60e51b815260206004820152601060248201526f14185d5cd8589b194e881c185d5cd95960821b6044820152606401610637565b6001600160a01b0392831660009081526003602090815260408083209483529381528382209290941681529252812081815560010155565b610763611b4e565b7f4910fdfa16fed3260ed0e7147f7cc6da11a60208b5b9406d12a635614ffd91435460ff1615611a1657610fb683611d23565b826001600160a01b03166352d1902d6040518163ffffffff1660e01b8152600401602060405180830381865afa925050508015611a70575060408051601f3d908101601f19168201909252611a6d91810190612390565b60015b611ad35760405162461bcd60e51b815260206004820152602e60248201527f45524331393637557067726164653a206e657720696d706c656d656e7461746960448201526d6f6e206973206e6f74205555505360901b6064820152608401610637565b60008051602061241d8339815191528114611b425760405162461bcd60e51b815260206004820152602960248201527f45524331393637557067726164653a20756e737570706f727465642070726f786044820152681a58589b195555525160ba1b6064820152608401610637565b50610fb6838383611dbf565b6000546001600160a01b031633146109915760405162461bcd60e51b815260206004820181905260248201527f4f776e61626c653a2063616c6c6572206973206e6f7420746865206f776e65726044820152606401610637565b611bb0611de4565b6002805460ff191690557f5db9ee0a495bf2e6ff9c91a7834c1ba4fdd244a5e8aa4e537bd38aeae4b073aa335b6040516001600160a01b03909116815260200160405180910390a1565b600260015403611c4c5760405162461bcd60e51b815260206004820152601f60248201527f5265656e7472616e637947756172643a207265656e7472616e742063616c6c006044820152606401610637565b6002600155565b600080546001600160a01b038381166001600160a01b0319831681178455604051919092169283917f8be0079c531659141344cd1fd0a4f28419497f9722a3daafe3b4186f6b6457e09190a35050565b611cab61195d565b6002805460ff191660011790557f62e78cea01bee320cd4e420270b5ea74000d11b0c9f74754ebdbfc544b05a258611bdd3390565b6001600160a01b039091166000908152600460209081526040808320938352929052908120818155600181019190915560020180546001600160a01b0319169055565b6001600160a01b0381163b611d905760405162461bcd60e51b815260206004820152602d60248201527f455243313936373a206e657720696d706c656d656e746174696f6e206973206e60448201526c1bdd08184818dbdb9d1c9858dd609a1b6064820152608401610637565b60008051602061241d83398151915280546001600160a01b0319166001600160a01b0392909216919091179055565b611dc883611e2d565b600082511180611dd55750805b15610fb6576114668383611e6d565b60025460ff166109915760405162461bcd60e51b815260206004820152601460248201527314185d5cd8589b194e881b9bdd081c185d5cd95960621b6044820152606401610637565b611e3681611d23565b6040516001600160a01b038216907fbc7cd75a20ee27fd9adebab32041f755214dbc6bffa90cc0225b39da2e5c2d3b90600090a250565b6060611e92838360405180606001604052806027815260200161243d60279139611e9b565b90505b92915050565b6060600080856001600160a01b031685604051611eb891906123cd565b600060405180830381855af49150503d8060008114611ef3576040519150601f19603f3d011682016040523d82523d6000602084013e611ef8565b606091505b5091509150611f0986838387611f13565b9695505050505050565b60608315611f82578251600003611f7b576001600160a01b0385163b611f7b5760405162461bcd60e51b815260206004820152601d60248201527f416464726573733a2063616c6c20746f206e6f6e2d636f6e74726163740000006044820152606401610637565b5081611f8c565b611f8c8383611f94565b949350505050565b815115611fa45781518083602001fd5b8060405162461bcd60e51b815260040161063791906123e9565b6001600160a01b038116811461076357600080fd5b60008060408385031215611fe657600080fd5b8235611ff181611fbe565b946020939093013593505050565b60006020828403121561201157600080fd5b813561201c81611fbe565b9392505050565b60008060006060848603121561203857600080fd5b833561204381611fbe565b925060208401359150604084013561205a81611fbe565b809150509250925092565b60006020828403121561207757600080fd5b5035919050565b801515811461076357600080fd5b6000806040838503121561209f57600080fd5b82356120aa81611fbe565b915060208301356120ba8161207e565b809150509250929050565b634e487b7160e01b600052604160045260246000fd5b600080604083850312156120ee57600080fd5b82356120f981611fbe565b9150602083013567ffffffffffffffff8082111561211657600080fd5b818501915085601f83011261212a57600080fd5b81358181111561213c5761213c6120c5565b604051601f8201601f19908116603f01168101908382118183101715612164576121646120c5565b8160405282815288602084870101111561217d57600080fd5b8260208601602083013760006020848301015280955050505050509250929050565b600080600080608085870312156121b557600080fd5b84356121c081611fbe565b966020860135965060408601359560600135945092505050565b6020808252602c908201527f46756e6374696f6e206d7573742062652063616c6c6564207468726f7567682060408201526b19195b1959d85d1958d85b1b60a21b606082015260800190565b6020808252602c908201527f46756e6374696f6e206d7573742062652063616c6c6564207468726f7567682060408201526b6163746976652070726f787960a01b606082015260800190565b634e487b7160e01b600052601160045260246000fd5b8082028115828204841417611e9557611e95612272565b6000826122bc57634e487b7160e01b600052601260045260246000fd5b500490565b6020808252601c908201527f4e465420636f6e7472616374206e6f742077686974656c697374656400000000604082015260600190565b60006020828403121561230a57600080fd5b815161201c81611fbe565b6020808252600d908201526c2737ba103a34329037bbb732b960991b604082015260600190565b60006020828403121561234e57600080fd5b815161201c8161207e565b81810381811115611e9557611e95612272565b6001600160a01b039384168152919092166020820152604081019190915260600190565b6000602082840312156123a257600080fd5b5051919050565b60005b838110156123c45781810151838201526020016123ac565b50506000910152565b600082516123df8184602087016123a9565b9190910192915050565b60208152600082518060208401526124088160408501602087016123a9565b601f01601f1916919091016040019291505056fe360894a13ba1a3210667c828492db98dca3e2076cc3735a920a3ca505d382bbc416464726573733a206c6f772d6c6576656c2064656c65676174652063616c6c206661696c6564a2646970667358221220727460f6f3063b06a95d894a857345934f6a1f83967d3007bf9189d911f84cad64736f6c63430008150033",
  "linkReferences": {},
  "deployedLinkReferences": {}
}