{
  "_format": "hh-sol-artifact-1",
  "contractName": "OPBebRegistryOneStepController",
  "sourceName": "contracts/OPBebRegistryOneStepController.sol",
  "abi": [
    {
      "inputs": [
        {
          "internalType": "contract BaseRegistrar",
          "name": "_base",
          "type": "address"
        },
        {
          "internalType": "contract IPriceOracle",
          "name": "_prices",
          "type": "address"
        }
      ],
      "stateMutability": "nonpayable",
      "type": "constructor"
    },
    {
      "anonymous": false,
      "inputs": [
        {
          "indexed": false,
          "internalType": "string",
          "name": "name",
          "type": "string"
        },
        {
          "indexed": true,
          "internalType": "bytes32",
          "name": "label",
          "type": "bytes32"
        },
        {
          "indexed": true,
          "internalType": "address",
          "name": "owner",
          "type": "address"
        },
        {
          "indexed": false,
          "internalType": "uint256",
          "name": "duration",
          "type": "uint256"
        },
        {
          "indexed": false,
          "internalType": "uint256",
          "name": "baseCost",
          "type": "uint256"
        },
        {
          "indexed": false,
          "internalType": "uint256",
          "name": "premium",
          "type": "uint256"
        },
        {
          "indexed": false,
          "internalType": "uint256",
          "name": "expires",
          "type": "uint256"
        }
      ],
      "name": "NameRegistered",
      "type": "event"
    },
    {
      "anonymous": false,
      "inputs": [
        {
          "indexed": false,
          "internalType": "string",
          "name": "name",
          "type": "string"
        },
        {
          "indexed": true,
          "internalType": "bytes32",
          "name": "label",
          "type": "bytes32"
        },
        {
          "indexed": false,
          "internalType": "uint256",
          "name": "cost",
          "type": "uint256"
        },
        {
          "indexed": false,
          "internalType": "uint256",
          "name": "expires",
          "type": "uint256"
        }
      ],
      "name": "NameRenewed",
      "type": "event"
    },
    {
      "anonymous": false,
      "inputs": [
        {
          "indexed": true,
          "internalType": "address",
          "name": "previousOwner",
          "type": "address"
        },
        {
          "indexed": true,
          "internalType": "address",
          "name": "newOwner",
          "type": "address"
        }
      ],
      "name": "OwnershipTransferred",
      "type": "event"
    },
    {
      "inputs": [],
      "name": "MIN_REGISTRATION_DURATION",
      "outputs": [
        {
          "internalType": "uint256",
          "name": "",
          "type": "uint256"
        }
      ],
      "stateMutability": "view",
      "type": "function"
    },
    {
      "inputs": [
        {
          "internalType": "string",
          "name": "name",
          "type": "string"
        }
      ],
      "name": "available",
      "outputs": [
        {
          "internalType": "bool",
          "name": "",
          "type": "bool"
        }
      ],
      "stateMutability": "view",
      "type": "function"
    },
    {
      "inputs": [],
      "name": "owner",
      "outputs": [
        {
          "internalType": "address",
          "name": "",
          "type": "address"
        }
      ],
      "stateMutability": "view",
      "type": "function"
    },
    {
      "inputs": [],
      "name": "prices",
      "outputs": [
        {
          "internalType": "contract IPriceOracle",
          "name": "",
          "type": "address"
        }
      ],
      "stateMutability": "view",
      "type": "function"
    },
    {
      "inputs": [
        {
          "internalType": "string",
          "name": "name",
          "type": "string"
        },
        {
          "internalType": "address",
          "name": "owner",
          "type": "address"
        },
        {
          "internalType": "uint256",
          "name": "duration",
          "type": "uint256"
        }
      ],
      "name": "register",
      "outputs": [],
      "stateMutability": "payable",
      "type": "function"
    },
    {
      "inputs": [
        {
          "internalType": "string",
          "name": "name",
          "type": "string"
        },
        {
          "internalType": "uint256",
          "name": "duration",
          "type": "uint256"
        }
      ],
      "name": "renew",
      "outputs": [],
      "stateMutability": "payable",
      "type": "function"
    },
    {
      "inputs": [],
      "name": "renounceOwnership",
      "outputs": [],
      "stateMutability": "nonpayable",
      "type": "function"
    },
    {
      "inputs": [
        {
          "internalType": "string",
          "name": "name",
          "type": "string"
        },
        {
          "internalType": "uint256",
          "name": "duration",
          "type": "uint256"
        }
      ],
      "name": "rentPrice",
      "outputs": [
        {
          "components": [
            {
              "internalType": "uint256",
              "name": "base",
              "type": "uint256"
            },
            {
              "internalType": "uint256",
              "name": "premium",
              "type": "uint256"
            }
          ],
          "internalType": "struct IPriceOracle.Price",
          "name": "price",
          "type": "tuple"
        }
      ],
      "stateMutability": "view",
      "type": "function"
    },
    {
      "inputs": [
        {
          "internalType": "address",
          "name": "newOwner",
          "type": "address"
        }
      ],
      "name": "transferOwnership",
      "outputs": [],
      "stateMutability": "nonpayable",
      "type": "function"
    },
    {
      "inputs": [
        {
          "internalType": "string",
          "name": "name",
          "type": "string"
        }
      ],
      "name": "valid",
      "outputs": [
        {
          "internalType": "bool",
          "name": "",
          "type": "bool"
        }
      ],
      "stateMutability": "pure",
      "type": "function"
    },
    {
      "inputs": [],
      "name": "withdraw",
      "outputs": [],
      "stateMutability": "nonpayable",
      "type": "function"
    }
  ],
  "bytecode": "0x60c060405234801561001057600080fd5b506040516112f93803806112f983398101604081905261002f916100b7565b6100383361004f565b6001600160a01b039182166080521660a0526100f1565b600080546001600160a01b038381166001600160a01b0319831681178455604051919092169283917f8be0079c531659141344cd1fd0a4f28419497f9722a3daafe3b4186f6b6457e09190a35050565b6001600160a01b03811681146100b457600080fd5b50565b600080604083850312156100ca57600080fd5b82516100d58161009f565b60208401519092506100e68161009f565b809150509250929050565b60805160a0516111c7610132600039600081816101d901526102b00152600081816102e50152818161051c0152818161067f01526108c301526111c76000f3fe60806040526004361061009c5760003560e01c80639791c097116100645780639791c09714610164578063acf1a84114610194578063aeb8ce9b146101a7578063d3419bf3146101c7578063d393c871146101fb578063f2fde38b1461020e57600080fd5b80633ccfd60b146100a1578063715018a6146100b857806383e7f6ff146100cd5780638a95b09f1461010d5780638da5cb5b14610132575b600080fd5b3480156100ad57600080fd5b506100b661022e565b005b3480156100c457600080fd5b506100b661026b565b3480156100d957600080fd5b506100ed6100e8366004610ddf565b61027f565b604080518251815260209283015192810192909252015b60405180910390f35b34801561011957600080fd5b506101246224ea0081565b604051908152602001610104565b34801561013e57600080fd5b506000546001600160a01b03165b6040516001600160a01b039091168152602001610104565b34801561017057600080fd5b5061018461017f366004610e24565b6103bb565b6040519015158152602001610104565b6100b66101a2366004610ea2565b610402565b3480156101b357600080fd5b506101846101c2366004610e24565b61064f565b3480156101d357600080fd5b5061014c7f000000000000000000000000000000000000000000000000000000000000000081565b6100b6610209366004610f0a565b6106f9565b34801561021a57600080fd5b506100b6610229366004610f66565b6109f3565b600080546040516001600160a01b03909116914780156108fc02929091818181858888f19350505050158015610268573d6000803e3d6000fd5b50565b610273610a69565b61027d6000610ac3565b565b604080518082019091526000808252602082015282516020840120604051636b727d4360e11b8152600481018290527f00000000000000000000000000000000000000000000000000000000000000006001600160a01b03908116916350e9a7159187917f00000000000000000000000000000000000000000000000000000000000000009091169063d6e4fa8690602401602060405180830381865afa15801561032e573d6000803e3d6000fd5b505050506040513d601f19601f820116820180604052508101906103529190610f81565b866040518463ffffffff1660e01b815260040161037193929190610fbe565b6040805180830381865afa15801561038d573d6000803e3d6000fd5b505050506040513d601f19601f820116820180604052508101906103b19190611000565b9150505b92915050565b6000600a6103c883610b13565b101580156103b557506103b56103e18360006003610c16565b604051806040016040528060038152602001626f705f60e81b815250610ce3565b6000838360405161041492919061104f565b60405180910390209050600061046185858080601f01602080910402602001604051908101604052809392919081815260200183838082843760009201919091525087925061027f915050565b6020810151815191925061047491611075565b3410156104fc5760405162461bcd60e51b815260206004820152604560248201527f4f5042656252656769737472794f6e6553746570436f6e74726f6c6c65723a2060448201527f4e6f7420656e6f7567682045746865722070726f766964656420666f722072656064820152641b995dd85b60da1b608482015260a4015b60405180910390fd5b60405163c475abff60e01b815260048101839052602481018490526000907f00000000000000000000000000000000000000000000000000000000000000006001600160a01b03169063c475abff906044016020604051808303816000875af115801561056d573d6000803e3d6000fd5b505050506040513d601f19601f820116820180604052508101906105919190610f81565b602083015183519192506105a491611075565b3411156105f6576020820151825133916108fc916105c29190611075565b6105cc9034611088565b6040518115909202916000818181858888f193505050501580156105f4573d6000803e3d6000fd5b505b827f3da24c024582931cfaf8267d8ed24d13a82a8068d5bd337d30ec45cea4e506ae87878560200151866000015161062e9190611075565b8560405161063f94939291906110c4565b60405180910390a2505050505050565b80516020820120600090610662836103bb565b80156106f257506040516312dc929d60e31b8152600481018290527f00000000000000000000000000000000000000000000000000000000000000006001600160a01b0316906396e494e890602401602060405180830381865afa1580156106ce573d6000803e3d6000fd5b505050506040513d601f19601f820116820180604052508101906106f291906110eb565b9392505050565b61073884848080601f0160208091040260200160405190810160405280939291908181526020018383808284376000920191909152506103bb92505050565b61079a5760405162461bcd60e51b815260206004820152602d60248201527f4f5042656252656769737472794f6e6553746570436f6e74726f6c6c65723a2060448201526c496e76616c6964206e616d652160981b60648201526084016104f3565b600084846040516107ac92919061104f565b6040518091039020905060006107f986868080601f01602080910402602001604051908101604052809392919081815260200183838082843760009201919091525087925061027f915050565b6020810151815191925061080c91611075565b3410156108815760405162461bcd60e51b815260206004820152603960248201527f4f5042656252656769737472794f6e6553746570436f6e74726f6c6c65723a2060448201527f4e6f7420656e6f7567682065746865722070726f76696465640000000000000060648201526084016104f3565b6224ea0083101561089157600080fd5b604051633f2891eb60e21b8152600481018390526001600160a01b0385811660248301526044820185905283916000917f0000000000000000000000000000000000000000000000000000000000000000169063fca247ac906064016020604051808303816000875af115801561090c573d6000803e3d6000fd5b505050506040513d601f19601f820116820180604052508101906109309190610f81565b9050856001600160a01b0316847f3f20a2f68d2f1fc31915768c6a23ee9a37aea4bc54fd9698fd61546843bb22598a8a89886000015189602001518860405161097e9695949392919061110d565b60405180910390a3602083015183516109979190611075565b3411156109e9576020830151835133916108fc916109b59190611075565b6109bf9034611088565b6040518115909202916000818181858888f193505050501580156109e7573d6000803e3d6000fd5b505b5050505050505050565b6109fb610a69565b6001600160a01b038116610a605760405162461bcd60e51b815260206004820152602660248201527f4f776e61626c653a206e6577206f776e657220697320746865207a65726f206160448201526564647265737360d01b60648201526084016104f3565b61026881610ac3565b6000546001600160a01b0316331461027d5760405162461bcd60e51b815260206004820181905260248201527f4f776e61626c653a2063616c6c6572206973206e6f7420746865206f776e657260448201526064016104f3565b600080546001600160a01b038381166001600160a01b0319831681178455604051919092169283917f8be0079c531659141344cd1fd0a4f28419497f9722a3daafe3b4186f6b6457e09190a35050565b8051600090819081905b80821015610c0d576000858381518110610b3957610b39611146565b01602001516001600160f81b0319169050600160ff1b811015610b6857610b61600184611075565b9250610bfa565b600760fd1b6001600160f81b031982161015610b8957610b61600284611075565b600f60fc1b6001600160f81b031982161015610baa57610b61600384611075565b601f60fb1b6001600160f81b031982161015610bcb57610b61600484611075565b603f60fa1b6001600160f81b031982161015610bec57610b61600584611075565b610bf7600684611075565b92505b5082610c058161115c565b935050610b1d565b50909392505050565b6060836000610c258585611088565b67ffffffffffffffff811115610c3d57610c3d610d3c565b6040519080825280601f01601f191660200182016040528015610c67576020820181803683370190505b509050845b84811015610cd957828181518110610c8657610c86611146565b01602001516001600160f81b03191682610ca08884611088565b81518110610cb057610cb0611146565b60200101906001600160f81b031916908160001a90535080610cd18161115c565b915050610c6c565b5095945050505050565b600081604051602001610cf69190611175565b6040516020818303038152906040528051906020012083604051602001610d1d9190611175565b6040516020818303038152906040528051906020012014905092915050565b634e487b7160e01b600052604160045260246000fd5b600082601f830112610d6357600080fd5b813567ffffffffffffffff80821115610d7e57610d7e610d3c565b604051601f8301601f19908116603f01168101908282118183101715610da657610da6610d3c565b81604052838152866020858801011115610dbf57600080fd5b836020870160208301376000602085830101528094505050505092915050565b60008060408385031215610df257600080fd5b823567ffffffffffffffff811115610e0957600080fd5b610e1585828601610d52565b95602094909401359450505050565b600060208284031215610e3657600080fd5b813567ffffffffffffffff811115610e4d57600080fd5b6103b184828501610d52565b60008083601f840112610e6b57600080fd5b50813567ffffffffffffffff811115610e8357600080fd5b602083019150836020828501011115610e9b57600080fd5b9250929050565b600080600060408486031215610eb757600080fd5b833567ffffffffffffffff811115610ece57600080fd5b610eda86828701610e59565b909790965060209590950135949350505050565b80356001600160a01b0381168114610f0557600080fd5b919050565b60008060008060608587031215610f2057600080fd5b843567ffffffffffffffff811115610f3757600080fd5b610f4387828801610e59565b9095509350610f56905060208601610eee565b9396929550929360400135925050565b600060208284031215610f7857600080fd5b6106f282610eee565b600060208284031215610f9357600080fd5b5051919050565b60005b83811015610fb5578181015183820152602001610f9d565b50506000910152565b6060815260008451806060840152610fdd816080850160208901610f9a565b60208301949094525060408101919091526080601f909201601f19160101919050565b60006040828403121561101257600080fd5b6040516040810181811067ffffffffffffffff8211171561103557611035610d3c565b604052825181526020928301519281019290925250919050565b8183823760009101908152919050565b634e487b7160e01b600052601160045260246000fd5b808201808211156103b5576103b561105f565b818103818111156103b5576103b561105f565b81835281816020850137506000828201602090810191909152601f909101601f19169091010190565b6060815260006110d860608301868861109b565b6020830194909452506040015292915050565b6000602082840312156110fd57600080fd5b815180151581146106f257600080fd5b60a08152600061112160a08301888a61109b565b9050856020830152846040830152836060830152826080830152979650505050505050565b634e487b7160e01b600052603260045260246000fd5b60006001820161116e5761116e61105f565b5060010190565b60008251611187818460208701610f9a565b919091019291505056fea264697066735822122022935122093b09ef2fe0a449d1bda26d696c04a0d580b742e6c22ac68406094d64736f6c63430008150033",
  "linkReferences": {},
  "deployedLinkReferences": {}
}